:020000040800F2
:1000000000000120011300085113000851130008DB
:10001000511300085113000851130008000000009C
:100020000000000000000000000000005113000864
:1000300051130008000000005113000815120008B9
:10004000000000005113000851130008511300086C
:1000500051130008511300085113000851130008F0
:1000600051130008511300085113000851130008E0
:1000700051130008511300085113000851130008D0
:10008000511300085113000851130008000000002C
:1000900000000000000000000000000051130008F4
:1000A00051130008511300085113000851130008A0
:1000B0005113000851130008511300085113000890
:1000C0005113000851130008511300085113000880
:1000D00051130008511300085113000800000000DC
:1000E00051130008511300085113000800000000CC
:1000F0000000000000000000000000005113000894
:1001000000000000511300085113000851130008AB
:1001100000000000000000000000000000000000DF
:10012000511300085113000851130008511300081F
:100130005113000800000000000000000000000053
:100140000000000000000000000000005113000843
:1001500051130008511300085113000851130008EF
:1001600051130008511300080000000000000000B7
:10017000000000000000000000000000000000007F
:10018000000000000000000000000000000000006F
:0401900051130008FF
:1001940010B5054C237833B9044B13B10448AFF3BD
:1001A40000800123237010BD3800002000000000EF
:1001B400AC13000808B5034B1BB103490348AFF364
:1001C400008008BD000000003C000020AC130008C3
:1001D40070B54FF0FF0C4CF4E06C1CEA11541DBFD9
:1001E4001CEA135594EA0C0F95EA0C0F00F0DEF8A4
:1001F4002C4481EA030621EA4C5123EA4C5350EA89
:10020400013518BF52EA033541F4801143F48013D9
:1002140038D0A0FB02CE4FF00005E1FB02E506F06A
:100224000042E0FB03E54FF00006E1FB03569CF0BF
:10023400000F18BF4EF0010EA4F1FF04B6F5007FC5
:1002440064F5407404D25FEA4E0E6D4146EB060637
:1002540042EAC62141EA55514FEAC52040EA5E50C0
:100264004FEACE2EB4F1FD0C88BFBCF5E06F1ED86A
:10027400BEF1004F08BF5FEA500E50F1000041EBA1
:10028400045170BD06F0004646EA010140EA02004E
:1002940081EA0301B4EB5C04C2BFD4EB0C0541EA70
:1002A400045170BD41F480114FF0000E013C00F385
:1002B400AB8014F1360FDEBF002001F0004170BDA9
:1002C400C4F10004203C35DA0C341BDC04F11404C2
:1002D400C4F1200500FA05F320FA04F001FA05F24E
:1002E40040EA020001F0004221F0004110EBD3701B
:1002F40021FA04F642EB06015EEA430E08BF20EA47
:10030400D37070BDC4F10C04C4F1200500FA04F3E9
:1003140020FA05F001FA04F240EA020001F000417B
:1003240010EBD37041F100015EEA430E08BF20EAEE
:10033400D37070BDC4F1200500FA05F24EEA020E36
:1003440020FA04F301FA05F243EA020321FA04F065
:1003540001F0004121FA04F220EA020000EBD3701C
:100364005EEA430E08BF20EAD37070BD94F0000F1C
:100374000FD101F00046400041EB010111F4801F50
:1003840008BF013CF7D041EA060195F0000F18BF01
:10039400704703F00046520043EB030313F4801F3D
:1003A40008BF013DF7D043EA0603704794EA0C0FF7
:1003B4000CEA135518BF95EA0C0F0CD050EA41060D
:1003C40018BF52EA4306D1D181EA030101F000418A
:1003D4004FF0000070BD50EA410606BF10461946B2
:1003E40052EA430619D094EA0C0F02D150EA0136BE
:1003F40013D195EA0C0F05D152EA03361CBF1046FF
:1004040019460AD181EA030101F0004141F0FE419D
:1004140041F470014FF0000070BD41F0FE4141F421
:10042400780170BD81F0004102E000BF83F0004319
:1004340030B54FEA41044FEA430594EA050F08BF7B
:1004440090EA020F1FBF54EA000C55EA020C7FEA3F
:10045400645C7FEA655C00F0E2804FEA5454D4EBBC
:100464005555B8BF6D420CDD2C4480EA020281EA86
:10047400030382EA000083EA010180EA020281EABE
:100484000303362D88BF30BD11F0004F4FEA013110
:100494004FF4801C4CEA113102D0404261EB41011F
:1004A40013F0004F4FEA03334CEA133302D05242A5
:1004B40063EB430394EA050F00F0A780A4F1010461
:1004C400D5F1200E0DDB02FA0EFC22FA05F280189B
:1004D40041F1000103FA0EF2801843FA05F3594181
:1004E4000EE0A5F120050EF1200E012A03FA0EFC00
:1004F40028BF4CF0020C43FA05F3C01851EBE3712A
:1005040001F0004507D54FF0000EDCF1000C7EEB46
:1005140000006EEB0101B1F5801F1BD3B1F5001F84
:100524000CD349085FEA30004FEA3C0C04F10104A3
:100534004FEA445212F5800F80F09A80BCF1004FCC
:1005440008BF5FEA500C50F1000041EB045141EA4E
:10055400050130BD5FEA4C0C404141EB0101013C17
:1005640028BFB1F5801FE9D291F0000F04BF014606
:100574000020B1FA81F308BF2033A3F10B03B3F1D8
:1005840020020CDA0C3208DD02F1140CC2F10C0268
:1005940001FA0CF021FA02F10CE002F11402D8BFC6
:1005A400C2F1200C01FA02F120FA0CFCDCBF41EA92
:1005B4000C019040E41AA2BF01EB0451294330BD61
:1005C4006FEA04041F3C1CDA0C340EDC04F114043E
:1005D400C4F1200220FA04F001FA02F340EA030015
:1005E40021FA04F345EA030130BDC4F10C04C4F15B
:1005F400200220FA02F001FA04F340EA030029463B
:1006040030BD21FA04F0294630BD94F0000F83F484
:10061400801306BF81F480110134013D4EE77FEA67
:10062400645C18BF7FEA655C29D094EA050F08BFB3
:1006340090EA020F05D054EA000C04BF1946104694
:1006440030BD91EA030F1EBF0021002030BD5FEAD8
:10065400545C05D14000494128BF41F0004130BD00
:1006640014F580043CBF01F5801130BD01F0004554
:1006740045F0FE4141F470014FF0000030BD7FEAC7
:10068400645C1ABF194610467FEA655C1CBF0B46C2
:10069400024650EA013406BF52EA033591EA030FD9
:1006A40041F4002130BD00BF90F0000F04BF0021D1
:1006B400704730B54FF4806404F132044FF0000504
:1006C4004FF0000150E700BF90F0000F04BF00217D
:1006D400704730B54FF4806404F1320410F00045E3
:1006E40048BF40424FF000013EE700BF42004FEADE
:1006F400E2014FEA31014FEA02701FBF12F07F435B
:1007040093F07F4F81F06051704732F07F4208BF11
:10071400704793F07F4F04BF41F40021704730B518
:100724004FF4607401F0004521F000411CE700BF64
:1007340050EA010208BF704730B54FF000050AE0E7
:1007440050EA010208BF704730B511F0004502D5E8
:10075400404261EB41014FF4806404F132045FEAEA
:10076400915C3FF4D8AE4FF003025FEADC0C18BF93
:1007740003325FEADC0C18BF033202EBDC02C2F185
:10078400200300FA03FC20FA02F001FA03FE40EA17
:100794000E0021FA02F11444BDE600BF4A0011D252
:1007A40012F5001211D20DD56FF47873B3EB6252C7
:1007B4000ED44FEAC12343F0004343EA505323FAD3
:1007C40002F070474FF00000704750EA013002D148
:1007D4004FF0FF3070474FF00000704780B400AF17
:1007E400034B01221A7000BFBD465DF8047B7047BD
:1007F4005400002080B584B000AF78600023FB7300
:100804000023FB7315E0FA7B796813465B001344FD
:100814000B441878FA7B796813465B0013440B4445
:1008240001331B780022194600F076FBFB7B013371
:10083400FB73FB7B072BE6D900BF00BF1037BD4617
:1008440080BD80B584B000AF78600023FB730023C3
:10085400FB7316E0FA7B796813465B0013440B4480
:1008640018331878FA7B796813465B0013440B44F9
:1008740019331B780122194600F04EFBFB7B013330
:10088400FB73FB7B072BE5D900BF00BF1037BD46C8
:1008940080BD000080B584B000AF7860396000236B
:1008A400FB730023BB7301237B737868FFF7A2FFFC
:1008B4003849386800F0C2FC61E00023FB735BE058
:1008C4007868FFF7BEFFFA7B796813465B00134430
:1008D4000B441878FA7B796813465B0013440B4485
:1008E40001331B780122194600F016FB0023BB7369
:1008F40029E0FB7B7A68134493F830301A46BB7BBB
:1009040042FA03F303F00103002B0CBF012300237D
:10091400DBB27B73BA7B796813465B0013440B44E8
:1009240018331878BA7B796813465B0013440B4478
:1009340019331B787A7B194600F0EEFA00F060F860
:10094400BB7B0133BB73BB7B072BD2D9FA7B7968A2
:1009540013465B0013440B441878FA7B79681346FA
:100964005B0013440B4401331B780022194600F04A
:10097400D3FAFB7B0133FB73FB7B072BA0D9064B1C
:100984001B78002B99D0044B00221A7000BF10373B
:10099400BD4680BDE10700085400002080B582B048
:1009A40000AF78607B68303308220021184600F0DD
:1009B400CEFC00BF0837BD4680BD80B485B000AF13
:1009C40078600023FB730023FB730FE0FB7B7A68E2
:1009D400134493F83020FB7B5208D1B27A68134455
:1009E4000A4683F83020FB7B0133FB73FB7B072B28
:1009F400ECD900BF00BF1437BD465DF8047B7047D7
:100A040080B483B000AF0023FB710023FB7102E0CC
:100A1400FB790133FB71FB79092BF9D900BF00BFC6
:100A24000C37BD465DF8047B704790B585B000AFC8
:100A340078600023FB730023BB730023FB7376E011
:100A4400FA7B796813465B0013440B441B78022B32
:100A540010D0022B13DC002B02D0012B05D00EE0AA
:100A64000021002000F038FB0AE00121002000F002
:100A740033FB05E00221002000F02EFB00E000BF64
:100A8400FA7B796813465B0013440B441878FA7BAD
:100A9400796813465B0013440B4401331B7801222D
:100AA400194600F033F9FA7B796813465B00134466
:100AB4000B441878FA7B796813465B0013440B44A3
:100AC40001331B780022194600F07AF9FA7B796821
:100AD40013465B0013440B441878FA7B7968134679
:100AE4005B0013440B4401331B780022194600F0C9
:100AF400B9F9FA7B796813465B0013440B44187800
:100B0400FA7B796813465B0013440B4401331C7869
:100B1400FA7B796813465B0013440B4402331B7859
:100B24001A46214600F0F8F9FB7B0133FB73FB7B8B
:100B3400072B85D90023BB737BE0BA7B7968134606
:100B44005B0013440B4418331B78022B10D0022B88
:100B540013DC002B02D0012B05D00EE00021002075
:100B640000F0BAFA0AE00121002000F0B5FA05E02D
:100B74000221002000F0B0FA00E000BFBA7B7968DF
:100B840013465B0013440B4418331878BA7B796816
:100B940013465B0013440B4419331B780122194696
:100BA40000F0B4F8BA7B796813465B0013440B4435
:100BB40018331878BA7B796813465B0013440B44E6
:100BC40019331B780022194600F0FAF8BA7B7968C9
:100BD40013465B0013440B4418331878BA7B7968C6
:100BE40013465B0013440B4419331B780022194647
:100BF40000F038F9BA7B796813465B0013440B4460
:100C040018331878BA7B796813465B0013440B4495
:100C140019331C78BA7B796813465B0013440B4480
:100C24001A331B781A46214600F076F9BB7B013350
:100C3400BB73BB7B072B80D900BF00BF1437BD46F5
:100C440090BD000080B586B000AFF860B9607A60EE
:100C54000023FB750023BB75F868FFF79FFE3AE09D
:100C64000023FB7531E00023BB7521E0BB7DFA68EE
:100C7400134493F830305AB2BB681B78A3F12001B7
:100C8400BB7D2148C90001440B441B781946FB7DF8
:100C940041FA03F3DB015BB213435AB2BB7DD1B219
:100CA400FA6813440A4683F83020BB7D0133BB75D0
:100CB400BB7D072BDAD97968F868FFF7EBFDF86894
:100CC400FFF77BFEFB7D0133FB75FB7D072BCAD948
:100CD400BB680133BB60BB681B78002BC0D1002309
:100CE400FB7509E0F868FFF768FE7968F868FFF7B4
:100CF400D1FDFB7D0133FB75FB7D072BF2D900BFD2
:100D040000BF1837BD4680BDD013000880B483B03F
:100D140000AF0346FB710B46BB7113467B71FB7935
:100D2400022B2CD0022B3DDC002B02D0012B13D044
:100D340038E0204B1B68BA795200032101FA02F211
:100D4400D24313407979BA79520001FA02F211467A
:100D5400184A0B43136026E0174B1B68BA795200FC
:100D6400032101FA02F2D24313407979BA7952008D
:100D740001FA02F21146104A0B43136013E00F4BC1
:100D84001B68BA795200032101FA02F2D2431340DC
:100D94007979BA79520001FA02F21146074A0B43F3
:100DA400136000E000BF00BF0C37BD465DF8047B54
:100DB400704700BF000002400004024000080240E7
:100DC40080B483B000AF0346FB710B46BB7113467E
:100DD4007B71FB79022B28D0022B37DC002B02D04D
:100DE400012B11D032E01D4B1B68BA79012101FAA5
:100DF40002F2D24313407979BA7901FA02F2114628
:100E0400164A0B43136022E0144B1B68BA79012184
:100E140001FA02F2D24313407979BA7901FA02F263
:100E240011460E4A0B43136011E00D4B1B68BA794F
:100E3400012101FA02F2D24313407979BA7901FA15
:100E440002F21146064A0B43136000E000BF00BFE4
:100E54000C37BD465DF8047B704700BF04040240B4
:100E64000408024080B483B000AF0346FB710B4614
:100E7400BB7113467B71FB79022B2CD0022B3DDC1A
:100E8400002B02D0012B13D038E0204B1B68BA7919
:100E94005200032101FA02F2D24313407979BA795C
:100EA400520001FA02F21146184A0B43136026E07D
:100EB400174B1B68BA795200032101FA02F2D2439C
:100EC40013407979BA79520001FA02F21146104AB4
:100ED4000B43136013E00F4B1B68BA7952000321D4
:100EE40001FA02F2D24313407979BA79520001FA35
:100EF40002F21146074A0B43136000E000BF00BF33
:100F04000C37BD465DF8047B704700BF0800024003
:100F1400080402400808024080B483B000AF0346CE
:100F2400FB710B46BB7113467B71FB79022B2CD0F2
:100F3400022B3DDC002B02D0012B13D038E07B794F
:100F4400012B05D1BB7901229A40204B1A6031E074
:100F54007B79002B2ED1BB794FF480329A401B4B06
:100F64001A6027E07B79012B05D1BB7901229A40D5
:100F7400174B1A6020E07B79002B1DD1BB794FF40D
:100F840080329A40124B1A6016E07B79012B05D10E
:100F9400BB7901229A400F4B1A600FE07B79002B3A
:100FA4000CD1BB794FF480329A400A4B1A6005E0A9
:100FB40000BF04E000BF02E000BF00E000BF00BFCC
:100FC4000C37BD465DF8047B704700BF1800024033
:100FD400180402401808024080B500AF00F0BCF8C5
:100FE40000BF80BD80B400AF144B1B68134A43F0AC
:100FF40001031360114B1B68104A23F48033136000
:101004000E4B1B680D4A23F08073136000BF0B4B1B
:101014001B6803F00203002BF9D0094B1B68084A34
:1010240023F001031360064B1B68054A23F00203F7
:10103400136000BFBD465DF8047B70470038024072
:101044000838024080B400AF084B1B68074A23F0FD
:10105400F0031360054B1B68044A43F080031360DC
:1010640000BFBD465DF8047B704700BF08380240EE
:1010740080B400AF074B1B68064A23F4E0531360A7
:10108400044B044A1B68136000BFBD465DF8047B33
:10109400704700BF0838024080B400AF074B1B689C
:1010A400064A23F460431360044B044A1B6813602C
:1010B40000BFBD465DF8047B704700BF083802409E
:1010C40080B500AFFFF78EFFFFF7BCFFFFF7D0FF3F
:1010D400FFF7E2FF00BF80BD80B483B000AF0346DA
:1010E4000A46FB711346BB71FB79022B1CD0022B01
:1010F40025DC002B02D0012B0BD020E0134B1B6806
:10110400BA79012101FA02F21146104A0B43136025
:1011140016E00F4B1B68BA79012101FA02F211465D
:101124000B4A0B4313600BE00A4B1B68BA7901218D
:1011340001FA02F21146074A0B43136000E000BFB4
:1011440000BF0C37BD465DF8047B70473038024061
:10115400403802404438024080B483B000AF0023DA
:101164007B6005233B600D4BDB687B607A684FF640
:10117400FF0313407B603B681A027B68134343F010
:10118400BF6343F400337B60044A7B68D36000BFD1
:101194000C37BD465DF8047B704700BF00ED00E0EE
:1011A40080B400AF0B4B1B680A4A23F0040313609E
:1011B400084B1B68074A23F002031360054B1B68A6
:1011C400044A43F00103136000BFBD465DF8047B8D
:1011D400704700BF10E000E080B400AF0B4B1B6809
:1011E4000A4A23F001031360084B00225A60074B9C
:1011F40000229A60054B1B68044A23F00203136023
:1012040000BFBD465DF8047B704700BF10E000E0FE
:1012140080B500AF074B1B78DBB2002B01D1FFF781
:10122400DBFF054B1B68002B02D0034B1B68984760
:1012340000BF80BD5C0000205800002080B584B051
:1012440000AF786039600023FB603B68002B2ED030
:101254007868FFF729FA4FF00002174BFEF7B8FF42
:1012640002460B4610461946FFF798FA0346FB6000
:10127400FB68B3F1807F02D36FF07F43FB600F4ABA
:10128400FB6853600D4B00229A600D4A3B68136063
:101294000C4B00221A70094B1B68084A43F00203E6
:1012A4001360064B1B68054A43F00103136000BF3B
:1012B4001037BD4680BD00BF00408F4010E000E005
:1012C400580000205C00002080B500AF0448FFF700
:1012D400ACFB822203490248FFF7B4FCF9E700BFE4
:1012E40000000020C413000880B500AFFFF7E8FE3B
:1012F400FFF756FFFFF770FE00BF80BD0D4885461F
:10130400FFF7F2FF0C480D490D4A002302E0D458C0
:10131400C4500433C4188C42F9D30A4A0A4C00233B
:1013240001E013600432A242FBD300F019F8FFF786
:10133400CBFFFEE700000120000000203800002061
:10134400D01600083800002060000020FEE70244A8
:101354000346934200D1704703F8011BF9E70000EC
:1013640070B50D4D0D4C641BA4100026A64209D186
:101374000B4D0C4C00F018F8641BA4100026A64278
:1013840005D170BD55F8043B98470136EEE755F892
:10139400043B98470136F2E7C8160008C81600084F
:1013A400C8160008CC160008F8B500BFF8BC08BC85
:1013B4009E467047F8B500BFF8BC08BC9E4670470F
:1013C400494C4F56454C4F4C59000000000000005A
:1013D40000000000010101010100010005050500F4
:1013E40000000000000A1F0A0A1F0A00041E050E5E
:1013F400140F04001313080402191900040A040248
:10140400150916000101000000000000040201019A
:1014140001020400010204040402010000150E1F6D
:101424000E1500000004041F040400000000000066
:10143400000606030000001F00000000000000007A
:101444000003030010100804020101003C42424260
:101454004242423C10181412101010107E40407E7C
:101464000202027E7C40407C40407C001018141232
:101474007F1010103C04043C20203C003C04043C3D
:1014840024243C007C44201010101010007C4444A0
:101494007C44447C7C44447C4040407C0003030006
:1014A4000003030000060600000606030804020108
:1014B4000204080000000F000F00000001020408ED
:1014C400040201000E110804040004000E111D158D
:1014D400150902001028447C444444443C44447CA0
:1014E40044443C003C02020202023C003E424242AE
:1014F40042423E003E02023E0202023E3E02023EE2
:10150400020202023C0202020222223C2222223E67
:10151400222222223E0808080808083E3C10101027
:101524001010120C0024140C040C142402020202E5
:101534000202023E81C3A599818181810042464A0B
:10154400526242003C4242424242423C3C44444495
:101554003C04040438444444446444B83C4444448F
:101564003C244484007804047C40403C007C1010FB
:101574001010101042424242424244384242424217
:1015840042422418009292929254380000824428D5
:1015940010284482824428101010101000FE4020AD
:1015A400100804FE07010101010107000101020402
:1015B400081010000704040404040700040A1100BE
:1015C400000000000000000000001F0001020400F1
:1015D4000000000000000F101E19160001010F1179
:1015E40011130D0000000E0101010E0010101E1158
:1015F4001119160000000E111F010E000C020F023B
:101604000202020000001E11111E100F0101070941
:10161400090909000200030202020700040006048B
:10162400040404030101090503050900030202027D
:10163400020207000000172A2A2A2A0000000B16BB
:101644001212120000000E1111110E0000000F12F0
:10165400120E020700001E09090E081C00000B16DA
:101664000202070000000E0106080700020702023A
:10167400020204000000090909091E0000001111FA
:101684000A0A040000001111150A0A0000000909E1
:101694000609090000000909090E080700001F08CF
:1016A40004021F00040202010202040001010101FC
:1016B4000101010001020204020201000000000213
:0416C4001508000005
:0416C800B90100085C
:0416CC00950100087C
:1016D00001000001010001020001030001040001FA
:1016E00005000106000107000000000001000002E3
:1016F00000000300000400000500000600000700D1
:081700000000000000000000E1
:0400000508001301DB
:00000001FF
