:020000040800F2
:1000000000000120E50D0008350E0008350E00083F
:10001000350E0008350E0008350E000800000000FF
:10002000000000000000000000000000350E000885
:10003000350E000800000000350E0008D90C00083D
:1000400000000000350E0008350E0008350E0008CF
:10005000350E0008350E00080D0800082D080008B0
:100060004D0800086D0800088D080008F10400081C
:100070001D0500084905000875050008A1050008D0
:10008000CD050008F9050008350E00080000000045
:10009000000000000000000000000000AD080008A3
:1000A000350E0008350E0008350E0008350E000824
:1000B000350E0008350E0008350E0008350E000814
:1000C000350E0008350E0008350E00083D0C0008FE
:1000D0004B0C0008350E0008350E0008000000002B
:1000E00061090008350E0008350E00080000000008
:1000F00000000000000000000000000025060008CD
:1001000000000000350E0008350E0008590C0008EC
:1001100000000000000000000000000000000000DF
:10012000510600087D060008A9060008D50600084B
:1001300001070008000000000000000000000000AF
:10014000000000000000000000000000350E000864
:100150002D0700085907000885070008350E00081C
:10016000350E0008350E00080000000000000000F9
:10017000000000000000000000000000000000007F
:10018000000000000000000000000000000000006F
:04019000350E000820
:1001940010B5054C237833B9044B13B10448AFF3BD
:1001A40000800123237010BD2800002000000000FF
:1001B400900E000808B5034B1BB103490348AFF385
:1001C400008008BD000000002C000020900E0008F4
:1001D40080B582B000AF78607B681B68664A934242
:1001E4001CD17B685B68062B09D87B685B68DBB233
:1001F4000B33DBB25BB2184600F022FC06E07B68EE
:100204005B68072B02D12F2000F01AFC7B685B6827
:100214007A68526A594941F823202AE07B681B68AE
:10022400574A934225D17B685B68042B09D87B68C5
:100234005B68DBB23833DBB25BB2184600F000FC1B
:1002440010E07B685B68042B0CD97B685B68072B28
:1002540008D87B685B68DBB24433DBB25BB2184618
:1002640000F0EEFB7B685B687A68526A454941F8A6
:1002740023207B685B68002B08D17B681B689A6825
:100284007B681B6842F020029A6059E07B685B68D7
:10029400012B08D17B681B689A687B681B6842F451
:1002A40000629A604CE07B685B68022B08D17B6833
:1002B4001B689A687B681B6842F400129A603FE0EE
:1002C4007B685B68032B08D17B681B689A687B6832
:1002D4001B6842F000629A6032E07B685B68042B22
:1002E40008D17B681B68DA687B681B6842F02002CF
:1002F400DA6025E07B685B68052B08D17B681B68A6
:10030400DA687B681B6842F40062DA6018E07B6894
:100314005B68062B08D17B681B68DA687B681B68FE
:1003240042F40012DA600BE07B685B68072B07D1AC
:100334007B681B68DA687B681B6842F00062DA60DD
:100344007B6819687B685A6813465B001344DB00BA
:100354000B4410331B687A6810687A68526843F05B
:10036400100113465B001344DB000344103319608F
:1003740000BF0837BD4680BD006002404400002035
:10038400006402406400002080B582B000AF786051
:100394007B681B68224A934204D11521002000F097
:1003A400E7FB08E07B681B681E4A934203D11621D1
:1003B400002000F0DDFB7B6819687B685A681346EF
:1003C4005B001344DB000B44103300221A607B688B
:1003D4009A687B68DB681A437B681B691A437B68ED
:1003E4005B691A437B689B6942EA03017B68DB69AA
:1003F4007A6810687A685268194313465B0013449C
:10040400DB000344103319607B6893F82030012B20
:1004140002D17868FFF7DCFE00BF0837BD4680BD17
:10042400006002400064024080B485B000AFF86010
:10043400B9607A603B60FB681968FB685A681346C8
:100444005B001344DB000B4410331B68FA6810682C
:10045400FA68526823F0010113465B001344DB0081
:10046400034410331960FB681968FB685A68134623
:100474005B001344DB000B4414333A681A60FB68D6
:100484001868FB685B68B9685A1C13465B00134420
:10049400DB0003441960FB681868FB685B687968D3
:1004A4005A1C13465B001344DB00034404331960F5
:1004B400FB681968FB685A6813465B001344DB0049
:1004C4000B4410331B68FA681068FA68526843F0EA
:1004D400010113465B001344DB000344103319602D
:1004E40000BF1437BD465DF8047B704780B500AF8C
:1004F400074B9B68064A43F020039360054B1B6837
:10050400002B02D0034B1B68984700BF80BD00BF7F
:10051400006002404400002080B500AF074B9B6898
:10052400064A43F400639360054B5B68002B02D0DA
:10053400034B5B68984700BF80BD00BF006002406A
:100544004400002080B500AF074B9B68064A43F483
:1005540000139360054B9B68002B02D0034B9B68F0
:10056400984700BF80BD00BF0060024044000020E7
:1005740080B500AF074B9B68064A43F00063936065
:10058400054BDB68002B02D0034BDB68984700BFA8
:1005940080BD00BF006002404400002080B500AF71
:1005A400074BDB68064A43F02003D360054B1B6905
:1005B400002B02D0034B1B69984700BF80BD00BFCE
:1005C400006002404400002080B500AF074BDB68A8
:1005D400064A43F40063D360054B5B69002B02D0E9
:1005E400034B5B69984700BF80BD00BF00600240B9
:1005F4004400002080B500AF074BDB68064A43F493
:100604000013D360054B9B69002B02D0034B9B69FD
:10061400984700BF80BD00BF006002404400002036
:1006240080B500AF074BDB68064A43F00063D36034
:10063400054BDB69002B02D0034BDB69984700BFF5
:1006440080BD00BF006002404400002080B500AFC0
:10065400074B9B68064A43F020039360054B1B68D5
:10066400002B02D0034B1B68984700BF80BD00BF1E
:10067400006402406400002080B500AF074B9B6813
:10068400064A43F400639360054B5B68002B02D079
:10069400034B5B68984700BF80BD00BF0064024005
:1006A4006400002080B500AF074B9B68064A43F402
:1006B40000139360054B9B68002B02D0034B9B688F
:1006C400984700BF80BD00BF006402406400002062
:1006D40080B500AF074B9B68064A43F00063936004
:1006E400054BDB68002B02D0034BDB68984700BF47
:1006F40080BD00BF006402406400002080B500AFEC
:10070400074BDB68064A43F02003D360054B1B69A3
:10071400002B02D0034B1B69984700BF80BD00BF6C
:10072400006402406400002080B500AF074BDB6822
:10073400064A43F40063D360054B5B69002B02D087
:10074400034B5B69984700BF80BD00BF0064024053
:100754006400002080B500AF074BDB68064A43F411
:100764000013D360054B9B69002B02D0034B9B699C
:10077400984700BF80BD00BF0064024064000020B1
:1007840080B500AF074BDB68064A43F00063D360D3
:10079400054BDB69002B02D0034BDB69984700BF94
:1007A40080BD00BF006402406400002080B483B0B8
:1007B40000AF0346FB71084B5B69FA79012101FA2A
:1007C40002F21146044A0B43536100BF0C37BD4685
:1007D4005DF8047B704700BF003C014080B483B0E7
:1007E40000AF0346FB71074B5A69FB7922FA03F306
:1007F400DBB203F00103DBB218460C37BD465DF8EB
:10080400047B7047003C014080B500AF054B1B687A
:10081400002B02D0034B1B6898470020FFF7C6FF4C
:1008240000BF80BD8400002080B500AF054B5B682D
:10083400002B02D0034B5B6898470120FFF7B6FFFB
:1008440000BF80BD8400002080B500AF054B9B68CD
:10085400002B02D0034B9B6898470220FFF7A6FFAA
:1008640000BF80BD8400002080B500AF054BDB686D
:10087400002B02D0034BDB6898470320FFF796FF59
:1008840000BF80BD8400002080B500AF054B1B690C
:10089400002B02D0034B1B6998470420FFF786FF07
:1008A40000BF80BD8400002080B500AF0520FFF7A5
:1008B40095FF0346002B0AD0274B5B69002B02D01F
:1008C400254B5B6998470520FFF770FF42E006203F
:1008D400FFF784FF0346002B0AD01F4B9B69002BB4
:1008E40002D01D4B9B6998470620FFF75FFF31E05C
:1008F4000720FFF773FF0346002B0AD0164BDB6972
:10090400002B02D0144BDB6998470720FFF74EFFFA
:1009140020E00820FFF762FF0346002B0AD00E4BAD
:100924001B6A002B02D00C4B1B6A98470820FFF768
:100934003DFF0FE00920FFF751FF0346002B09D0CC
:10094400054B5B6A002B02D0034B5B6A9847092076
:10095400FFF72CFF00BF80BD8400002080B500AFEE
:100964000A20FFF73BFF0346002B0AD0304B9B6A5B
:10097400002B02D02E4B9B6A98470A20FFF716FFE4
:1009840053E00B20FFF72AFF0346002B0AD0284B25
:10099400DB6A002B02D0264BDB6A98470B20FFF75B
:1009A40005FF42E00C20FFF719FF0346002B0AD095
:1009B4001F4B1B6B002B02D01D4B1B6B98470C204D
:1009C400FFF7F4FE31E00D20FFF708FF0346002B8C
:1009D4000AD0174B5B6B002B02D0154B5B6B98470F
:1009E4000D20FFF7E3FE20E00E20FFF7F7FE03469D
:1009F400002B0AD00E4B9B6B002B02D00C4B9B6B35
:100A040098470E20FFF7D2FE0FE00F20FFF7E6FE17
:100A14000346002B09D0064BDB6B002B02D0044BA2
:100A2400DB6B98470F20FFF7C1FE00BF80BD00BFFE
:100A34008400002080B500AF00F0DAF800BF80BD6C
:100A440080B483B000AF0346FB7197F90730002BE5
:100A54000BDBFB7903F01F02074997F907305B09A9
:100A6400012000FA02F241F8232000BF0C37BD46F2
:100A74005DF8047B704700BF00E100E080B400AF84
:100A8400144B1B68134A43F001031360114B1B689A
:100A9400104A23F4803313600E4B1B680D4A23F075
:100AA4008073136000BF0B4B1B6803F00203002B21
:100AB400F9D0094B1B68084A23F001031360064B65
:100AC4001B68054A23F00203136000BFBD465DF8AE
:100AD400047B7047003802400838024080B400AFFD
:100AE400084B1B68074A23F0F0031360054B1B688F
:100AF400044A43F08003136000BFBD465DF8047BE5
:100B0400704700BF0838024080B400AF074B1B6831
:100B1400064A23F4E0531360044B044A1B68136031
:100B240000BFBD465DF8047B704700BF0838024033
:100B340080B400AF074B1B68064A23F4604313607C
:100B4400044B044A1B68136000BFBD465DF8047B78
:100B5400704700BF0838024080B500AFFFF78EFF32
:100B6400FFF7BCFFFFF7D0FFFFF7E2FF00BF80BD38
:100B740080B483B000AF03460A46FB711346BB71D1
:100B8400FB79022B1CD0022B25DC002B02D0012B7D
:100B94000BD020E0134B1B68BA79012101FA02F251
:100BA4001146104A0B43136016E00F4B1B68BA79C9
:100BB400012101FA02F211460B4A0B4313600BE0C8
:100BC4000A4B1B68BA79012101FA02F21146074A5D
:100BD4000B43136000E000BF00BF0C37BD465DF857
:100BE400047B7047303802404038024044380240A9
:100BF40080B483B000AF00237B6005233B600D4BC2
:100C0400DB687B607A684FF6FF0313407B603B68C8
:100C14001A027B68134343F0BF6343F400337B60E1
:100C2400044A7B68D36000BF0C37BD465DF8047B83
:100C3400704700BF00ED00E080B400AF00BFBD46C8
:100C44005DF8047B704780B400AF00BFBD465DF81B
:100C5400047B704780B400AF00BFBD465DF8047BE1
:100C64007047000080B400AF0B4B1B680A4A23F0A6
:100C740004031360084B1B68074A23F00203136044
:100C8400054B1B68044A43F00103136000BFBD46D3
:100C94005DF8047B704700BF10E000E080B400AF53
:100CA4000B4B1B680A4A23F001031360084B002214
:100CB4005A60074B00229A60054B1B68044A23F0D4
:100CC4000203136000BFBD465DF8047B704700BF9C
:100CD40010E000E080B500AF074B1B78DBB2002BBF
:100CE40001D1FFF7DBFF054B1B68002B02D0034B40
:100CF4001B68984700BF80BDC8000020C4000020C6
:100D040080B5ADF5FA5D00AF07F5FA53A3F5FA63C4
:100D140018464FF4FA631A46002100F08AF807F5E2
:100D24007463A3F5EE6318464FF4FA631A46002180
:100D340000F07FF81E4B1F4A5A621D48FFF724FB40
:100D440007F57A634FF4FA720121184600F071F83E
:100D54003B464FF4FA720121184600F06AF83A460D
:100D640007F5FC6110394FF4FA731148FFF75CFB87
:100D7400114B00221A6014E00F4B1B689B0007F50F
:100D8400BB5202F110021A440B4B1B689B0007F57F
:100D94007A610B4412681A60074B1B680133064AD8
:100DA4001360054B1B68B3F5FA7FE5D3FEE700BF7C
:100DB40000000020C10D0008CC00002080B400AF6A
:100DC40000BF00BFBD465DF8047B704780B500AF2F
:100DD400FFF7C2FEFFF746FFFFF72CFE00BF80BD02
:100DE4000D488546FFF7F2FF0C480D490D4A0023D4
:100DF40002E0D458C4500433C4188C42F9D30A4ACC
:100E04000A4C002301E013600432A242FBD300F039
:100E140019F8FFF775FFFEE700000120000000202D
:100E240028000020B00E000828000020D000002078
:100E3400FEE702440346934200D1704703F8011BC6
:100E4400F9E7000070B50D4D0D4C641BA41000268D
:100E5400A64209D10B4D0C4C00F018F8641BA410E9
:100E64000026A64205D170BD55F8043B98470136CB
:100E7400EEE755F8043B98470136F2E7A80E000860
:100E8400A80E0008A80E0008AC0E0008F8B500BFB4
:100E9400F8BC08BC9E467047F8B500BFF8BC08BC57
:040EA4009E467047AF
:040EA800B901000884
:040EAC0095010008A4
:100EB000006402400000000000000000800000000C
:100EC00000020000000400000010000000400000CC
:080ED000010000000000000019
:0400000508000DE5FD
:00000001FF
