:020000040800F2
:100000000000012039120008891200088912000836
:1000100089120008891200088912000800000000F7
:10002000000000000000000000000000891200082D
:100030008912000800000000891200083D11000824
:1000400000000000891200088912000889120008C7
:100050008912000889120008B1080008D1080008B8
:10006000F108000811090008310900088912000888
:1000700089120008891200088912000889120008F4
:100080008912000889120008891200080000000087
:1000900000000000000000000000000051090008FE
:1000A00089120008891200088912000889120008C4
:1000B00089120008891200088912000889120008B4
:1000C00089120008891200088912000889120008A4
:1000D0008912000889120008891200080000000037
:1000E000050A0008891200088912000800000000B3
:1000F000000000000000000000000000891200085D
:100100000000000089120008891200088912000806
:1001100000000000000000000000000000000000DF
:100120008912000889120008891200088912000843
:10013000891200080000000000000000000000001C
:10014000000000000000000000000000891200080C
:100150008912000889120008891200088912000813
:100160008912000889120008000000000000000049
:10017000000000000000000000000000000000007F
:10018000000000000000000000000000000000006F
:0401900089120008C8
:1001940010B5054C237833B9044B13B10448AFF3BD
:1001A40000800123237010BD100000200000000017
:1001B400D412000808B5034B1BB103490348AFF33D
:1001C400008008BD0000000014000020D4120008C4
:1001D40080B584B000AF786039600023FB737B681E
:1001E4009B78BB737B685B787B737B681B783B7302
:1001F40007F10C031A49184600F01CFA7B681B78B7
:10020400022B10D0022B13DC002B02D0012B05D0C3
:100214000EE00021002000F0BDFE0AE001210020D4
:1002240000F0B8FE05E00221002000F0B3FE00E07B
:1002340000BF7B6818787B685B780022194600F061
:100244004BFC7B6818787B685B780022194600F0C9
:10025400A9FD044A3B68136000BF1037BD4680BD4A
:10026400850200082C00002080B400AF034B1B68FB
:100274001846BD465DF8047B704700BF300000207F
:1002840080B582B000AF00237B60494B1B78002B04
:1002940007D1474B01221A7043F6982000F03AFF29
:1002A40081E0434B1B78012B20D100F00FFF7860D5
:1002B4007B6843F2C722934208D97B6843F69822AD
:1002C400934203D83A4B02221A700CE07B6842F640
:1002D400F722934207D97B6842F6E062934202D840
:1002E400344B1B68984700F009FF5CE0304B1B78E7
:1002F400022B43D100F0EAFE78607B68B3F57A7F85
:1003040012D37B6840F2DC5293420DD82A4B93F906
:1003140000301A4601239340DB431A46274B1B68DF
:100324001340264A136014E07B68B3F5FA6F10D3C8
:100334007B6840F6C41293420BD81F4B93F90030EC
:100344001A46012393401A461C4B1B6813431B4A4D
:100354001360194B93F90030DBB2013BDBB25AB2A4
:10036400154B1A70144B93F90030B3F1FF3F02D1CF
:100374000F4B05221A7000F0C1FE14E00C4B1B78E1
:10038400052B10D10C4B1F221A70094B00221A7036
:10039400084B1B68002B03D0064B1B68984702E0F0
:1003A400074B01221A7000BF0837BD4680BD00BF4D
:1003B400350000202C000020030000203000002025
:1003C4003400002080B582B000AF03460A46FB71BA
:1003D4001346BB71FB79022B10D0022B13DC002BCC
:1003E40002D0012B05D00EE00021002000F0D2FD48
:1003F4000AE00121002000F0CDFD05E002210020EB
:1004040000F0C8FD00E000BFB979FB79012218466D
:1004140000F062FBB979FB790022184600F0B6FBC4
:10042400B979FB790022184600F002FCB979FB790E
:100434000122184600F056FC00BF0837BD4680BDB7
:1004440080B582B000AF78607B685A787B681B788F
:1004540019461046FFF7B6FF7B681A797B68DB788C
:1004640019461046FFF7AEFF7B68DA797B689B7903
:1004740019461046FFF7A6FF00BF0837BD4680BDEA
:1004840080B582B000AF78600B46FB707B6858780B
:100494007B681978FB789B08DBB203F00103002B1F
:1004A4000CBF01230023DBB21A4600F01BFCFB78CF
:1004B4009B08DBB203F00103002B0CBF01230023D4
:1004C400DBB21A467B689A707B6818797B68D978A6
:1004D400FB785B08DBB203F00103002B0CBF0123A4
:1004E4000023DBB21A4600F0FDFBFB785B08DBB2AD
:1004F40003F00103002B0CBF01230023DBB21A46D7
:100504007B685A717B68D8797B689979FB7803F0AA
:100514000103002B0CBF01230023DBB21A4600F0B9
:10052400E1FBFB7803F00103002B0CBF0123002344
:10053400DBB21A467B681A7200BF0837BD4680BD1D
:1005440080B582B000AF78600B46FB70FB78022B5D
:1005540046D0022B69DC002B02D0012B20D064E0B2
:100564007B689B78002B0BD17B6858787B681B7861
:100574000122194600F0B6FB7B6801229A704FE015
:100584007B689B78012B4BD17B6858787B681B7800
:100594000022194600F0A6FB7B6800229A703FE017
:1005A4007B685B79002B0BD17B6818797B68DB78DF
:1005B4000122194600F096FB7B6801225A7131E052
:1005C4007B685B79012B2DD17B6818797B68DB789C
:1005D4000022194600F086FB7B6800225A7121E054
:1005E4007B681B7A002B0BD17B68D8797B689B795D
:1005F4000122194600F076FB7B6801221A7213E08F
:100604007B681B7A012B0FD17B68D8797B689B7937
:100614000022194600F066FB7B6800221A7203E090
:1006240000BF02E000BF00E000BF00BF0837BD46C6
:1006340080BD000080B582B000AF786039607B680F
:10064400DB78002B02D0012B0CD017E07A4B1B680F
:100654007A685278114601228A401146764A0B4341
:1006640013600BE0744B5B687A6852781146012280
:100674008A401146704A0B43536000BF7B685B7825
:1006840019466E4A3B6842F821307B689B78022BFE
:1006940036D0022B4BDC002B02D0012B18D046E0C5
:1006A400654B9B687A685278114601228A4011464C
:1006B400614A0B439360604BDB687A685278114659
:1006C40001228A40D24311465B4A0B40D3602FE09B
:1006D400594BDB687A685278114601228A401146E8
:1006E400554A0B43D360544B9B687A685278114641
:1006F40001228A40D24311464F4A0B40936017E0CF
:100704004D4B9B687A685278114601228A40114603
:10071400494A0B439360484BDB687A685278114628
:1007240001228A401146444A0B43D36000E000BFD3
:100734000E21022000F02EFC7B685B78032B0ED880
:100744003F4B1B687A68127811467A685278920097
:1007540001FA02F211463A4A0B43136043E07B6804
:100764005B78072B12D87B685B78032B0ED9354B4B
:100774001B687A68127811467A685278920001FAF6
:1007840002F211462F4A0B4313602CE07B685B781E
:100794000B2B12D87B685B78072B0ED92A4B1B686E
:1007A4007A68127811467A685278920001FA02F255
:1007B4001146254A0B43136015E07B685B780F2BC9
:1007C40011D87B685B780B2B0DD9204B1B687A689A
:1007D400127811467A685278920001FA02F21146B0
:1007E4001A4A0B4313607B685B78042B08D87B6838
:1007F4005B780633DBB25BB2184600F033FB16E0DD
:100804007B685B78042B07D97B685B78092B03D85A
:10081400172000F027FB0AE07B685B78092B06D9D8
:100824007B685B780F2B02D8282000F01BFB00BFED
:100834000837BD4680BD00BF003C014038000020A1
:10084400083801400C380140103801401438014088
:1008540080B483B000AF0346FB71084B5B69FA793F
:10086400012101FA02F21146044A0B43536100BF0D
:100874000C37BD465DF8047B704700BF003C014067
:1008840080B483B000AF0346FB71074B5A69FB7910
:1008940022FA03F3DBB203F00103DBB218460C3790
:1008A400BD465DF8047B7047003C014080B500AF55
:1008B400054B1B68002B02D0034B1B689847002094
:1008C400FFF7C6FF00BF80BD3800002080B500AF31
:1008D400054B5B68002B02D0034B5B6898470120F3
:1008E400FFF7B6FF00BF80BD3800002080B500AF21
:1008F400054B9B68002B02D0034B9B689847022052
:10090400FFF7A6FF00BF80BD3800002080B500AF10
:10091400054BDB68002B02D0034BDB6898470320B0
:10092400FFF796FF00BF80BD3800002080B500AF00
:10093400054B1B69002B02D0034B1B69984704200D
:10094400FFF786FF00BF80BD3800002080B500AFF0
:100954000520FFF795FF0346002B0AD0274B5B6960
:10096400002B02D0254B5B6998470520FFF770FFE9
:1009740042E00620FFF784FF0346002B0AD01F4BFA
:100984009B69002B02D01D4B9B6998470620FFF7FB
:100994005FFF31E00720FFF773FF0346002B0AD007
:1009A400164BDB69002B02D0144BDB6998470720F8
:1009B400FFF74EFF20E00820FFF762FF0346002BFD
:1009C4000AD00E4B1B6A002B02D00C4B1B6A9847B3
:1009D4000820FFF73DFF0FE00920FFF751FF034612
:1009E400002B09D0054B5B6A002B02D0034B5B6ADA
:1009F40098470920FFF72CFF00BF80BD3800002076
:100A040080B500AF0A20FFF73BFF0346002B0AD056
:100A1400304B9B6A002B02D02E4B9B6A98470A20CE
:100A2400FFF716FF53E00B20FFF72AFF0346002BC6
:100A34000AD0284BDB6A002B02D0264BDB6A98478E
:100A44000B20FFF705FF42E00C20FFF719FF0346D8
:100A5400002B0AD01F4B1B6B002B02D01D4B1B6BB2
:100A640098470C20FFF7F4FE31E00D20FFF708FF54
:100A74000346002B0AD0174B5B6B002B02D0154B9F
:100A84005B6B98470D20FFF7E3FE20E00E20FFF795
:100A9400F7FE0346002B0AD00E4B9B6B002B02D0B3
:100AA4000C4B9B6B98470E20FFF7D2FE0FE00F20F4
:100AB400FFF7E6FE0346002B09D0064BDB6B002B49
:100AC40002D0044BDB6B98470F20FFF7C1FE00BF39
:100AD40080BD00BF3800002080B483B000AF03465F
:100AE400FB710B46BB7113467B71FB79022B2CD037
:100AF400022B3DDC002B02D0012B13D038E0204B1D
:100B04001B68BA795200032101FA02F2D24313405E
:100B14007979BA79520001FA02F21146184A0B4364
:100B2400136026E0174B1B68BA795200032101FABF
:100B340002F2D24313407979BA79520001FA02F2EF
:100B44001146104A0B43136013E00F4B1B68BA792C
:100B54005200032101FA02F2D24313407979BA799F
:100B6400520001FA02F21146074A0B43136000E0F7
:100B740000BF00BF0C37BD465DF8047B704700BF63
:100B840000000240000402400008024080B483B028
:100B940000AF0346FB710B46BB7113467B71FB79B7
:100BA400022B28D0022B37DC002B02D0012B11D0D2
:100BB40032E01D4B1B68BA79012101FA02F2D243DB
:100BC40013407979BA7901FA02F21146164A0B43B5
:100BD400136022E0144B1B68BA79012101FA02F276
:100BE400D24313407979BA7901FA02F211460E4AD6
:100BF4000B43136011E00D4B1B68BA79012101FA14
:100C040002F2D24313407979BA7901FA02F2114619
:100C1400064A0B43136000E000BF00BF0C37BD461B
:100C24005DF8047B704700BF0404024004080240DE
:100C340080B483B000AF0346FB710B46BB7113460F
:100C44007B71FB79022B2CD0022B3DDC002B02D0D4
:100C5400012B13D038E0204B1B68BA7952000321D2
:100C640001FA02F2D24313407979BA79520001FAB7
:100C740002F21146184A0B43136026E0174B1B6817
:100C8400BA795200032101FA02F2D243134079796E
:100C9400BA79520001FA02F21146104A0B4313606A
:100CA40013E00F4B1B68BA795200032101FA02F2D8
:100CB400D24313407979BA79520001FA02F211460B
:100CC400074A0B43136000E000BF00BF0C37BD466A
:100CD4005DF8047B704700BF08000240080402402E
:100CE4000808024080B483B000AF0346FB710B4692
:100CF400BB7113467B71FB79022B2CD0022B3DDC9C
:100D0400002B02D0012B13D038E07B79012B05D1C5
:100D1400BB7901229A40204B1A6031E07B79002B89
:100D24002ED1BB794FF480329A401B4B1A6027E0D6
:100D34007B79012B05D1BB7901229A40174B1A60AC
:100D440020E07B79002B1DD1BB794FF480329A408F
:100D5400124B1A6016E07B79012B05D1BB79012275
:100D64009A400F4B1A600FE07B79002B0CD1BB79B2
:100D74004FF480329A400A4B1A6005E000BF04E049
:100D840000BF02E000BF00E000BF00BF0C37BD465B
:100D94005DF8047B704700BF18000240180402404D
:100DA4001808024080B483B000AF0346FB710B46C1
:100DB400BB7113467B71FB79022B2CD0022B3DDCDB
:100DC400002B02D0012B13D038E0204B1B68BA79DA
:100DD4005200032101FA02F2D24313407979BA791D
:100DE400520001FA02F21146184A0B43136026E03E
:100DF400174B1B68BA795200032101FA02F2D2435D
:100E040013407979BA79520001FA02F21146104A74
:100E14000B43136013E00F4B1B68BA795200032194
:100E240001FA02F2D24313407979BA79520001FAF5
:100E340002F21146074A0B43136000E000BF00BFF3
:100E44000C37BD465DF8047B704700BF0C000240C0
:100E54000C0402400C08024080B500AF00F0DAF840
:100E640000BF80BD80B483B000AF0346FB7197F927
:100E74000730002B0BDBFB7903F01F02074997F9BE
:100E840007305B09012000FA02F241F8232000BF79
:100E94000C37BD465DF8047B704700BF00E100E0FD
:100EA40080B400AF144B1B68134A43F00103136072
:100EB400114B1B68104A23F4803313600E4B1B68DC
:100EC4000D4A23F08073136000BF0B4B1B6803F0C3
:100ED4000203002BF9D0094B1B68084A23F00103D5
:100EE4001360064B1B68054A23F00203136000BF1E
:100EF400BD465DF8047B7047003802400838024064
:100F040080B400AF084B1B68074A23F0F00313605A
:100F1400054B1B68044A43F08003136000BFBD46C1
:100F24005DF8047B704700BF0838024080B400AF0E
:100F3400074B1B68064A23F4E0531360044B044A2E
:100F44001B68136000BFBD465DF8047B704700BF9B
:100F54000838024080B400AF074B1B68064A23F4EC
:100F640060431360044B044A1B68136000BFBD4612
:100F74005DF8047B704700BF0838024080B500AFBD
:100F8400FFF78EFFFFF7BCFFFFF7D0FFFFF7E2FF8D
:100F940000BF80BD80B483B000AF03460A46FB7136
:100FA4001346BB71FB79022B1CD0022B25DC002BD2
:100FB40002D0012B0BD020E0134B1B68BA7901211E
:100FC40001FA02F21146104A0B43136016E00F4B6C
:100FD4001B68BA79012101FA02F211460B4A0B434C
:100FE40013600BE00A4B1B68BA79012101FA02F283
:100FF4001146074A0B43136000E000BF00BF0C37E3
:10100400BD465DF8047B70473038024040380240EA
:101014004438024080B483B000AF00237B600523D2
:101024003B600D4BDB687B607A684FF6FF0313402F
:101034007B603B681A027B68134343F0BF6343F44D
:1010440000337B60044A7B68D36000BF0C37BD4625
:101054005DF8047B704700BF00ED00E080B400AF92
:101064000B4B1B680A4A23F004031360084B1B68EC
:10107400074A23F002031360054B1B68044A43F03C
:101084000103136000BFBD465DF8047B704700BFD9
:1010940010E000E080B400AF0B4B1B680A4A23F059
:1010A40001031360084B00225A60074B00229A6028
:1010B400054B1B68044A23F00203136000BFBD46BE
:1010C4005DF8047B704700BF10E000E080B483B09B
:1010D40000AF00237B6000233B60074B5A68064B3C
:1010E4009B68D31A7B607B683B603B6818460C376F
:1010F400BD465DF8047B704710E000E080B400AFAB
:10110400034B00229A6000BFBD465DF8047B704724
:1011140010E000E080B483B000AF7860054A7B68DB
:101124005360044B00229A6000BF0C37BD465DF843
:10113400047B704710E000E080B500AF074B1B78DC
:10114400DBB2002B01D1FFF7A5FF054B1B68002B79
:1011540002D0034B1B68984700BF80BD7C00002071
:101164007800002080B500AFFFF77EF803461E4AE2
:10117400934204D100211D48FFF7E2F932E0FFF762
:1011840073F803461A4A934204D101211748FFF722
:10119400D7F927E0FFF768F80346164A934204D1CB
:1011A40002211248FFF7CCF91CE0FFF75DF8034673
:1011B400114A934216D1114B1B78002B07D10721FA
:1011C4000A48FFF75DF90D4B01221A700AE00B4B38
:1011D4001B78012B06D100210448FFF751F9074B76
:1011E40000221A7000BF80BD27D8D9220400002035
:1011F4000FF0D9223FC0D9222FD0D9227D00002060
:1012040080B500AF0348FFF71BF903490348FEF715
:10121400DFFFFEE704000020691100080000002041
:1012240080B500AFFFF7AAFEFFF718FFFFF714FE23
:1012340000BF80BD0D488546FFF7F2FF0C480D49FD
:101244000D4A002302E0D458C4500433C4188C421D
:10125400F9D30A4A0A4C002301E013600432A24283
:10126400FBD300F011F8FFF7CBFFFEE700000120ED
:101274000000002010000020F412000810000020DC
:1012840080000020FEE7000070B50D4D0D4C641B7E
:10129400A4100026A64209D10B4D0C4C00F018F8FE
:1012A400641BA4100026A64205D170BD55F8043B6A
:1012B40098470136EEE755F8043B98470136F2E7C4
:1012C400EC120008EC120008EC120008F0120008FE
:1012D400F8B500BFF8BC08BC9E467047F8B500BF1F
:0812E400F8BC08BC9E467047EF
:0412EC00B90100083C
:0412F000950100085C
:1012F4000000011F000101010101030101000000C0
:0400000508001239A4
:00000001FF
