:020000040800F2
:1000000000000120111B0008611B0008611B000893
:10001000611B0008611B0008611B00080000000054
:10002000000000000000000000000000611B00084C
:10003000611B000800000000611B0008311A000865
:1000400000000000611B0008611B0008611B000824
:10005000611B0008611B0008A1110008C111000804
:10006000E11100080112000821120008611B0008BC
:10007000611B0008611B0008611B0008611B000870
:10008000611B0008611B0008611B000800000000E4
:100090000000000000000000000000004112000805
:1000A000611B0008611B0008611B0008611B000840
:1000B000611B0008611B0008611B0008611B000830
:1000C000611B0008611B0008611B0008611B000820
:1000D000611B0008611B0008611B00080000000094
:1000E000F5120008611B0008611B000800000000F9
:1000F000000000000000000000000000611B00087C
:1001000000000000611B0008611B0008611B000863
:1001100000000000000000000000000000000000DF
:10012000611B0008611B0008611B0008611B0008BF
:10013000611B00080000000000000000000000003B
:10014000000000000000000000000000611B00082B
:10015000611B0008611B0008611B0008611B00088F
:10016000611B0008611B0008000000000000000087
:10017000000000000000000000000000000000007F
:10018000000000000000000000000000000000006F
:04019000611B0008E7
:1001980010B5054C237833B9044B13B10448AFF3B9
:1001A80000800123237010BD14000020000000000F
:1001B800AC1B000808B5034B1BB103490348AFF358
:1001C800008008BD0000000018000020AC1B0008DB
:1001D80081F0004102E000BF83F0004330B54FEAF0
:1001E80041044FEA430594EA050F08BF90EA020F5D
:1001F8001FBF54EA000C55EA020C7FEA645C7FEAF0
:10020800655C00F0E2804FEA5454D4EB5555B8BF12
:100218006D420CDD2C4480EA020281EA030382EA83
:10022800000083EA010180EA020281EA0303362D15
:1002380088BF30BD11F0004F4FEA01314FF4801CE8
:100248004CEA113102D0404261EB410113F0004FFA
:100258004FEA03334CEA133302D0524263EB4303B1
:1002680094EA050F00F0A780A4F10104D5F1200E4F
:100278000DDB02FA0EFC22FA05F2801841F10001AA
:1002880003FA0EF2801843FA05F359410EE0A5F17E
:1002980020050EF1200E012A03FA0EFC28BF4CF0AF
:1002A800020C43FA05F3C01851EBE37101F0004565
:1002B80007D54FF0000EDCF1000C7EEB00006EEB72
:1002C8000101B1F5801F1BD3B1F5001F0CD34908FC
:1002D8005FEA30004FEA3C0C04F101044FEA445253
:1002E80012F5800F80F09A80BCF1004F08BF5FEADA
:1002F800500C50F1000041EB045141EA050130BDBA
:100308005FEA4C0C404141EB0101013C28BFB1F5CB
:10031800801FE9D291F0000F04BF01460020B1FA16
:1003280081F308BF2033A3F10B03B3F120020CDAE9
:100338000C3208DD02F1140CC2F10C0201FA0CF0C7
:1003480021FA02F10CE002F11402D8BFC2F1200C2C
:1003580001FA02F120FA0CFCDCBF41EA0C019040E2
:10036800E41AA2BF01EB0451294330BD6FEA04042B
:100378001F3C1CDA0C340EDC04F11404C4F1200216
:1003880020FA04F001FA02F340EA030021FA04F328
:1003980045EA030130BDC4F10C04C4F1200220FA7F
:1003A80002F001FA04F340EA0300294630BD21FABD
:1003B80004F0294630BD94F0000F83F4801306BF83
:1003C80081F480110134013D4EE77FEA645C18BF77
:1003D8007FEA655C29D094EA050F08BF90EA020F0E
:1003E80005D054EA000C04BF1946104630BD91EA06
:1003F800030F1EBF0021002030BD5FEA545C05D109
:100408004000494128BF41F0004130BD14F5800447
:100418003CBF01F5801130BD01F0004545F0FE41BB
:1004280041F470014FF0000030BD7FEA645C1ABFF0
:10043800194610467FEA655C1CBF0B46024650EA27
:10044800013406BF52EA033591EA030F41F4002153
:1004580030BD00BF90F0000F04BF0021704730B5D9
:100468004FF4806404F132044FF000054FF00001AE
:1004780050E700BF90F0000F04BF0021704730B56F
:100488004FF4806404F1320410F0004548BF404244
:100498004FF000013EE700BF42004FEAE2014FEA99
:1004A80031014FEA02701FBF12F07F4393F07F4F74
:1004B80081F06051704732F07F4208BF704793F077
:1004C8007F4F04BF41F40021704730B54FF460748A
:1004D80001F0004521F000411CE700BF50EA01028D
:1004E80008BF704730B54FF000050AE050EA010236
:1004F80008BF704730B511F0004502D5404261EBA6
:1005080041014FF4806404F132045FEA915C3FF4E6
:10051800D8AE4FF003025FEADC0C18BF03325FEA83
:10052800DC0C18BF033202EBDC02C2F1200300FA34
:1005380003FC20FA02F001FA03FE40EA0E0021FA59
:1005480002F11444BDE600BF70B54FF0FF0C4CF447
:10055800E06C1CEA11541DBF1CEA135594EA0C0FF9
:1005680095EA0C0F00F0DEF82C4481EA030621EA34
:100578004C5123EA4C5350EA013518BF52EA03356F
:1005880041F4801143F4801338D0A0FB02CE4FF021
:100598000005E1FB02E506F00042E0FB03E54FF051
:1005A8000006E1FB03569CF0000F18BF4EF0010E49
:1005B800A4F1FF04B6F5007F64F5407404D25FEA45
:1005C8004E0E6D4146EB060642EAC62141EA5551F8
:1005D8004FEAC52040EA5E504FEACE2EB4F1FD0C3A
:1005E80088BFBCF5E06F1ED8BEF1004F08BF5FEAB8
:1005F800500E50F1000041EB045170BD06F000466A
:1006080046EA010140EA020081EA0301B4EB5C0416
:10061800C2BFD4EB0C0541EA045170BD41F480110E
:100628004FF0000E013C00F3AB8014F1360FDEBF33
:10063800002001F0004170BDC4F10004203C35DA0F
:100648000C341BDC04F11404C4F1200500FA05F392
:1006580020FA04F001FA05F240EA020001F0004233
:1006680021F0004110EBD37021FA04F642EB0601A9
:100678005EEA430E08BF20EAD37070BDC4F10C04D3
:10068800C4F1200500FA04F320FA05F001FA04F297
:1006980040EA020001F0004110EBD37041F1000183
:1006A8005EEA430E08BF20EAD37070BDC4F120058E
:1006B80000FA05F24EEA020E20FA04F301FA05F2F6
:1006C80043EA020321FA04F001F0004121FA04F29E
:1006D80020EA020000EBD3705EEA430E08BF20EA6E
:1006E800D37070BD94F0000F0FD101F000464000A8
:1006F80041EB010111F4801F08BF013CF7D041EA2A
:10070800060195F0000F18BF704703F0004652002D
:1007180043EB030313F4801F08BF013DF7D043EAFE
:100728000603704794EA0C0F0CEA135518BF95EAB4
:100738000C0F0CD050EA410618BF52EA4306D1D13B
:1007480081EA030101F000414FF0000070BD50EA5A
:10075800410606BF1046194652EA430619D094EAE4
:100768000C0F02D150EA013613D195EA0C0F05D1CE
:1007780052EA03361CBF104619460AD181EA030122
:1007880001F0004141F0FE4141F470014FF00000DA
:1007980070BD41F0FE4141F4780170BD70B54FF075
:1007A800FF0C4CF4E06C1CEA11541DBF1CEA1355F5
:1007B80094EA0C0F95EA0C0F00F0A7F8A4EB0504D7
:1007C80081EA030E52EA03354FEA013100F08880CE
:1007D8004FEA03334FF0805545EA131343EA126397
:1007E8004FEA022245EA111545EA10654FEA00264C
:1007F8000EF000419D4208BF964244F1FD0404F505
:10080800407402D25B084FEA3202B61A65EB030560
:100818005B084FEA32024FF480104FF4002CB6EB1D
:10082800020E75EB030E22BFB61A754640EA0C009D
:100838005B084FEA3202B6EB020E75EB030E22BFDD
:10084800B61A754640EA5C005B084FEA3202B6EB1E
:10085800020E75EB030E22BFB61A754640EA9C00DD
:100868005B084FEA3202B6EB020E75EB030E22BFAD
:10087800B61A754640EADC0055EA060E18D04FEA6B
:10088800051545EA16754FEA06164FEAC30343EA0B
:1008980052734FEAC2025FEA1C1CC0D111F4801FD8
:1008A8000BD141EA00014FF000004FF0004CB6E7D1
:1008B80011F4801F04BF01430020B4F1FD0C88BF70
:1008C800BCF5E06F3FF6AFAEB5EB030C04BFB6EB7B
:1008D800020C5FEA500C50F1000041EB045170BD6E
:1008E8000EF0004E4EEA113114EB5C04C2BFD4EB9B
:1008F8000C0541EA045170BD41F480114FF0000E1F
:10090800013C90E645EA060E8DE60CEA135594EA9A
:100918000C0F08BF95EA0C0F3FF43BAF94EA0C0F9D
:100928000AD150EA01347FF434AF95EA0C0F7FF412
:1009380025AF104619462CE795EA0C0F06D152EA66
:1009480003353FF4FDAE1046194622E750EA41064A
:1009580018BF52EA43067FF4C5AE50EA41047FF45B
:100968000DAF52EA43057FF4EBAE12E74A0011D20D
:1009780012F5001211D20DD56FF47873B3EB6252F1
:100988000ED44FEAC12343F0004343EA505323FAFD
:1009980002F070474FF00000704750EA013002D172
:1009A8004FF0FF3070474FF00000704780B584B0BB
:1009B80000AF786039600023FB737B689B78BB735A
:1009C8007B685B787B737B681B783B7307F10C0350
:1009D8001A49184600F0A4FA7B681B78022B10D03D
:1009E800022B13DC002B02D0012B05D00EE00021D6
:1009F800002000F045FF0AE00121002000F040FF40
:100A080005E00221002000F03BFF00E000BF7B680A
:100A180018787B685B780022194600F0D3FC7B6865
:100A280018787B685B780022194600F031FE044A8A
:100A38003B68136000BF1037BD4680BD650A0008DB
:100A48003000002080B400AF034B1B681846BD4639
:100A58005DF8047B704700BF3400002080B582B089
:100A680000AF00237B60424B1B78002B07D1404B23
:100A780001221A7043F6982000F0C4FF73E03C4B43
:100A88001B78012B12D100F097FF78607B6843F246
:100A9800C722934207D97B6843F69822934202D82B
:100AA800334B02221A7000F0A1FF5CE0304B1B7838
:100AB800022B43D100F080FF78607B68B3F57A7F22
:100AC80012D37B6840F2DC5293420DD8294B93F93C
:100AD80000301A4601239340DB431A46264B1B6815
:100AE8001340254A136014E07B68B3F5FA6F10D3FE
:100AF8007B6840F6C41293420BD81E4B93F9003022
:100B08001A46012393401A461B4B1B6813431A4A83
:100B18001360184B93F90030DBB2013BDBB25AB2D9
:100B2800144B1A70134B93F90030B3F1FF3F02D105
:100B38000F4B05221A7000F059FF14E00C4B1B787C
:100B4800052B10D10B4B1F221A70094B00221A706B
:100B58000A4B1B68002B03D0084B1B68984702E020
:100B6800074B01221A7000BF0837BD4680BD00BF81
:100B7800390000200300002034000020300000204D
:100B88003800002080B582B000AF78607B685B7861
:100B9800022B10D0022B13DC002B02D0012B05D026
:100BA8000EE00021002000F06BFE0AE00121002089
:100BB80000F066FE05E00221002000F061FE00E082
:100BC80000BF7B6858787B681B780122194600F0C3
:100BD800F9FB7B6858787B681B780022194600F07F
:100BE8004BFC7B6858787B681B780022194600F01C
:100BF80095FC7B6858787B6819787B689B781A46DF
:100C080000F0E6FC00BF0837BD4680BD80B582B065
:100C180000AF78607B6858787B681B78012219469A
:100C280000F0D6FC7B6801229A7000BF0837BD46E9
:100C380080BD80B582B000AF78607B6858787B68EB
:100C48001B780022194600F0C3FC7B6800229A70CA
:100C580000BF0837BD4680BD80B582B000AF786060
:100C68007B689B78012B03D17868FFF7E2FF06E0E9
:100C78007B689B78002B02D17868FFF7C7FF00BF1D
:100C88000837BD4680BD80B582B000AF03460A462E
:100C9800FB711346BB71FB79022B10D0022B13DCBE
:100CA800002B02D0012B05D00EE00021002000F01F
:100CB800E7FD0AE00121002000F0E2FD05E0022145
:100CC800002000F0DDFD00E000BFB979FB790122CA
:100CD800184600F077FBB979FB790022184600F036
:100CE800CBFBB979FB790022184600F017FCB979DB
:100CF800FB790122184600F06BFC00BF0837BD469F
:100D080080BD80B582B000AF78607B685A787B6818
:100D18001B7819461046FFF7B6FF7B681A797B687F
:100D2800DB7819461046FFF7AEFF7B68DA797B68F7
:100D38009B7919461046FFF7A6FF00BF0837BD4646
:100D480080BD80B582B000AF78600B46FB70FB7841
:100D5800022B46D0022B69DC002B02D0012B20D0BD
:100D680064E07B689B78002B0BD17B6858787B68A4
:100D78001B780122194600F02BFC7B6801229A702F
:100D88004FE07B689B78012B4BD17B6858787B6858
:100D98001B780022194600F01BFC7B6800229A7021
:100DA8003FE07B685B79002B0BD17B6818797B6807
:100DB800DB780122194600F00BFC7B6801225A718E
:100DC80031E07B685B79012B2DD17B6818797B68D2
:100DD800DB780022194600F0FBFB7B6800225A7181
:100DE80021E07B681B7A002B0BD17B68D8797B6864
:100DF8009B790122194600F0EBFB7B6801221A72ED
:100E080013E07B681B7A012B0FD17B68D8797B684C
:100E18009B790022194600F0DBFB7B6800221A72DE
:100E280003E000BF02E000BF00E000BF00BF0837DA
:100E3800BD4680BD80B582B000AF78607868FFF7A6
:100E480009FB4FF00002144BFFF77EFB02460B46EE
:100E5800104619464FF00002104BFFF7BDF9024645
:100E68000B46104619464FF000020D4BFFF796FC53
:100E780002460B4610461946FFF778FD03467B608D
:100E880002E07B68013B7B607B68002BF9D100BFE7
:100E980000BF0837BD4680BD0040CF4000308640C7
:100EA800000034400000000080B582B000AF7860D8
:100EB8007868FFF7CFFA18A3D3E90023FFF744FBBC
:100EC80002460B46104619464FF00002104BFFF73A
:100ED80083F902460B46104619464FF000020D4BA7
:100EE800FFF75CFC02460B4610461946FFF73EFD2D
:100EF80003467B6002E07B68013B7B607B68002BDC
:100F0800F9D100BF00BF0837BD4680BDAFF30080F0
:100F180000308640000034400000000080846E41AC
:100F280080B582B000AF786039607B68DB78002BD1
:100F380002D0012B0CD017E07A4B1B687A685278E4
:100F4800114601228A401146764A0B4313600BE092
:100F5800744B5B687A685278114601228A401146C0
:100F6800704A0B43536000BF7B685B7819466E4A32
:100F78003B6842F821307B689B78022B36D0022BE5
:100F88004BDC002B02D0012B18D046E0654B9B6848
:100F98007A685278114601228A401146614A0B4309
:100FA8009360604BDB687A685278114601228A4068
:100FB800D24311465B4A0B40D3602FE0594BDB68A4
:100FC8007A685278114601228A401146554A0B43E5
:100FD800D360544B9B687A685278114601228A4044
:100FE800D24311464F4A0B40936017E04D4B9B6824
:100FF8007A685278114601228A401146494A0B43C1
:101008009360484BDB687A685278114601228A401F
:101018001146444A0B43D36000E000BF0E21022072
:1010280000F02EFC7B685B78032B0ED83F4B1B68C7
:101038007A68127811467A685278920001FA02F2B8
:1010480011463A4A0B43136043E07B685B78072BF1
:1010580012D87B685B78032B0ED9354B1B687A68EE
:10106800127811467A685278920001FA02F2114613
:101078002F4A0B4313602CE07B685B780B2B12D84C
:101088007B685B78072B0ED92A4B1B687A68127825
:1010980011467A685278920001FA02F21146254AFE
:1010A8000B43136015E07B685B780F2B11D87B68C6
:1010B8005B780B2B0DD9204B1B687A681278114688
:1010C8007A685278920001FA02F211461A4A0B43E2
:1010D80013607B685B78042B08D87B685B780633E1
:1010E800DBB25BB2184600F033FB16E07B685B7836
:1010F800042B07D97B685B78092B03D8172000F0ED
:1011080027FB0AE07B685B78092B06D97B685B784C
:101118000F2B02D8282000F01BFB00BF0837BD4664
:1011280080BD00BF003C01403C0000200838014061
:101138000C380140103801401438014080B483B0A5
:1011480000AF0346FB71084B5B69FA79012101FA8C
:1011580002F21146044A0B43536100BF0C37BD46E7
:101168005DF8047B704700BF003C014080B483B049
:1011780000AF0346FB71074B5A69FB7922FA03F368
:10118800DBB203F00103DBB218460C37BD465DF84D
:10119800047B7047003C014080B500AF054B1B68DD
:1011A800002B02D0034B1B6898470020FFF7C6FFAF
:1011B80000BF80BD3C00002080B500AF054B5B68D8
:1011C800002B02D0034B5B6898470120FFF7B6FF5E
:1011D80000BF80BD3C00002080B500AF054B9B6878
:1011E800002B02D0034B9B6898470220FFF7A6FF0D
:1011F80000BF80BD3C00002080B500AF054BDB6818
:10120800002B02D0034BDB6898470320FFF796FFBB
:1012180000BF80BD3C00002080B500AF054B1B69B6
:10122800002B02D0034B1B6998470420FFF786FF69
:1012380000BF80BD3C00002080B500AF0520FFF74F
:1012480095FF0346002B0AD0274B5B69002B02D081
:10125800254B5B6998470520FFF770FF42E00620A1
:10126800FFF784FF0346002B0AD01F4B9B69002B16
:1012780002D01D4B9B6998470620FFF75FFF31E0BE
:101288000720FFF773FF0346002B0AD0164BDB69D4
:10129800002B02D0144BDB6998470720FFF74EFF5D
:1012A80020E00820FFF762FF0346002B0AD00E4B10
:1012B8001B6A002B02D00C4B1B6A98470820FFF7CB
:1012C8003DFF0FE00920FFF751FF0346002B09D02F
:1012D800054B5B6A002B02D0034B5B6A98470920D9
:1012E800FFF72CFF00BF80BD3C00002080B500AF99
:1012F8000A20FFF73BFF0346002B0AD0304B9B6ABE
:10130800002B02D02E4B9B6A98470A20FFF716FF46
:1013180053E00B20FFF72AFF0346002B0AD0284B87
:10132800DB6A002B02D0264BDB6A98470B20FFF7BD
:1013380005FF42E00C20FFF719FF0346002B0AD0F7
:101348001F4B1B6B002B02D01D4B1B6B98470C20AF
:10135800FFF7F4FE31E00D20FFF708FF0346002BEE
:101368000AD0174B5B6B002B02D0154B5B6B984771
:101378000D20FFF7E3FE20E00E20FFF7F7FE0346FF
:10138800002B0AD00E4B9B6B002B02D00C4B9B6B97
:1013980098470E20FFF7D2FE0FE00F20FFF7E6FE7A
:1013A8000346002B09D0064BDB6B002B02D0044B05
:1013B800DB6B98470F20FFF7C1FE00BF80BD00BF61
:1013C8003C00002080B483B000AF0346FB710B469D
:1013D800BB7113467B71FB79022B2CD0022B3DDCB1
:1013E800002B02D0012B13D038E0204B1B68BA79B0
:1013F8005200032101FA02F2D24313407979BA79F3
:10140800520001FA02F21146184A0B43136026E013
:10141800174B1B68BA795200032101FA02F2D24332
:1014280013407979BA79520001FA02F21146104A4A
:101438000B43136013E00F4B1B68BA79520003216A
:1014480001FA02F2D24313407979BA79520001FACB
:1014580002F21146074A0B43136000E000BF00BFC9
:101468000C37BD465DF8047B704700BF00000240A2
:10147800000402400008024080B483B000AF034675
:10148800FB710B46BB7113467B71FB79022B28D08D
:10149800022B37DC002B02D0012B11D032E01D4B80
:1014A8001B68BA79012101FA02F2D2431340797913
:1014B800BA7901FA02F21146164A0B43136022E088
:1014C800144B1B68BA79012101FA02F2D243134086
:1014D8007979BA7901FA02F211460E4A0B43136080
:1014E80011E00D4B1B68BA79012101FA02F2D243CF
:1014F80013407979BA7901FA02F21146064A0B4388
:10150800136000E000BF00BF0C37BD465DF8047BE8
:10151800704700BF040402400408024080B483B04E
:1015280000AF0346FB710B46BB7113467B71FB7919
:10153800022B2CD0022B3DDC002B02D0012B13D028
:1015480038E0204B1B68BA795200032101FA02F2F5
:10155800D24313407979BA79520001FA02F211465E
:10156800184A0B43136026E0174B1B68BA795200E0
:10157800032101FA02F2D24313407979BA79520071
:1015880001FA02F21146104A0B43136013E00F4BA5
:101598001B68BA795200032101FA02F2D2431340C0
:1015A8007979BA79520001FA02F21146074A0B43D7
:1015B800136000E000BF00BF0C37BD465DF8047B38
:1015C800704700BF080002400804024008080240B3
:1015D80080B483B000AF0346FB710B46BB71134662
:1015E8007B71FB79022B2CD0022B3DDC002B02D027
:1015F800012B13D038E07B79012B05D1BB7901226F
:101608009A40204B1A6031E07B79002B2ED1BB79B0
:101618004FF480329A401B4B1A6027E07B79012BEC
:1016280005D1BB7901229A40174B1A6020E07B79DB
:10163800002B1DD1BB794FF480329A40124B1A60AF
:1016480016E07B79012B05D1BB7901229A400F4B1B
:101658001A600FE07B79002B0CD1BB794FF48032F4
:101668009A400A4B1A6005E000BF04E000BF02E0A0
:1016780000BF00E000BF00BF0C37BD465DF8047B2B
:10168800704700BF180002401804024018080240C2
:1016980080B483B000AF0346FB710B46BB711346A1
:1016A8007B71FB79022B2CD0022B3DDC002B02D066
:1016B800012B13D038E0204B1B68BA795200032164
:1016C80001FA02F2D24313407979BA79520001FA49
:1016D80002F21146184A0B43136026E0174B1B68A9
:1016E800BA795200032101FA02F2D2431340797900
:1016F800BA79520001FA02F21146104A0B431360FC
:1017080013E00F4B1B68BA795200032101FA02F269
:10171800D24313407979BA79520001FA02F211469C
:10172800074A0B43136000E000BF00BF0C37BD46FB
:101738005DF8047B704700BF0C0002400C040240B7
:101748000C08024080B500AF00F0DAF800BF80BD99
:1017580080B483B000AF0346FB7197F90730002BC4
:101768000BDBFB7903F01F02074997F907305B0988
:10177800012000FA02F241F8232000BF0C37BD46D1
:101788005DF8047B704700BF00E100E080B400AF63
:10179800144B1B68134A43F001031360114B1B6879
:1017A800104A23F4803313600E4B1B680D4A23F054
:1017B8008073136000BF0B4B1B6803F00203002B00
:1017C800F9D0094B1B68084A23F001031360064B44
:1017D8001B68054A23F00203136000BFBD465DF88D
:1017E800047B7047003802400838024080B400AFDC
:1017F800084B1B68074A23F0F0031360054B1B686E
:10180800044A43F08003136000BFBD465DF8047BC3
:10181800704700BF0838024080B400AF074B1B6810
:10182800064A23F4E0531360044B044A1B68136010
:1018380000BFBD465DF8047B704700BF0838024012
:1018480080B400AF074B1B68064A23F4604313605B
:10185800044B044A1B68136000BFBD465DF8047B57
:10186800704700BF0838024080B500AFFFF78EFF11
:10187800FFF7BCFFFFF7D0FFFFF7E2FF00BF80BD17
:1018880080B483B000AF03460A46FB711346BB71B0
:10189800FB79022B1CD0022B25DC002B02D0012B5C
:1018A8000BD020E0134B1B68BA79012101FA02F230
:1018B8001146104A0B43136016E00F4B1B68BA79A8
:1018C800012101FA02F211460B4A0B4313600BE0A7
:1018D8000A4B1B68BA79012101FA02F21146074A3C
:1018E8000B43136000E000BF00BF0C37BD465DF836
:1018F800047B704730380240403802404438024088
:1019080080B483B000AF00237B6005233B600D4BA0
:10191800DB687B607A684FF6FF0313407B603B68A7
:101928001A027B68134343F0BF6343F400337B60C0
:10193800044A7B68D36000BF0C37BD465DF8047B62
:10194800704700BF00ED00E080B400AF0B4B1B6890
:101958000A4A43F004031360084B1B68074A23F044
:1019680002031360054B1B68044A43F0010313602C
:1019780000BFBD465DF8047B704700BF10E000E083
:1019880080B400AF0B4B1B680A4A23F001031360B5
:10199800084B00225A60074B00229A60054B1B68CF
:1019A800044A23F00203136000BFBD465DF8047BC0
:1019B800704700BF10E000E080B483B000AF0023A0
:1019C8007B6000233B60084B5A68074B9B68D31A1F
:1019D8007B607B68DB083B603B6818460C37BD467C
:1019E8005DF8047B704700BF10E000E080B400AFF2
:1019F800034B00229A6000BFBD465DF8047B704728
:101A080010E000E080B483B000AF7860054A7B68DE
:101A18005360044B00229A6000BF0C37BD465DF846
:101A2800047B704710E000E080B500AF074B1B78DF
:101A3800DBB2002B01D1FFF7A3FF054B1B68002B7E
:101A480002D0034B1B68984700BF80BD8000002070
:101A58007C00002080B500AFFEF7F4FF0346134A70
:101A680093420CD100211248FFF76BF941F28830FC
:101A7800FFF7E0F900210E48FFF763F914E0FEF7DD
:101A8800E1FF03460B4A934204D101210848FFF7BE
:101A980058F909E0FEF7D6FF0346074A934203D1F7
:101AA80002210348FFF74DF900BF80BDFF00D9228E
:101AB80008000020BF40D922DF20D92280B500AF1E
:101AC8000848FFF71EF90848FFF75CF80749084877
:101AD800FEF76CFF0448FFF7BFF80A20FFF7E4F9A8
:101AE800F8E700BF08000020040000205D1A000885
:101AF8000000002080B500AFFFF7B6FEFFF724FF17
:101B0800FFF720FE00BF80BD0D488546FFF7F2FFB6
:101B18000C480D490D4A002302E0D458C450043340
:101B2800C4188C42F9D30A4A0A4C002301E0136016
:101B38000432A242FBD300F011F8FFF7BFFFFEE723
:101B4800000001200000002014000020CC1B000829
:101B58001400002084000020FEE7000070B50D4D41
:101B68000D4C641BA4100026A64209D10B4D0C4C49
:101B780000F018F8641BA4100026A64205D170BD19
:101B880055F8043B98470136EEE755F8043B98476B
:101B98000136F2E7C41B0008C41B0008C41B000878
:101BA800C81B0008F8B500BFF8BC08BC9E467047C3
:0C1BB800F8B500BFF8BC08BC9E467047A2
:041BC400BD01000857
:041BC8009901000877
:101BCC000000011F010000000001010101010201E0
:041BDC000100000004
:0400000508001B11C3
:00000001FF
