:020000040800F2
:1000000000000120C11C0008111D0008111D00087E
:10001000111D0008111D0008111D0008000000003E
:10002000000000000000000000000000111D00089A
:10003000111D000800000000111D0008A11B000890
:1000400000000000111D0008111D0008111D00080E
:10005000111D0008111D00081911000839110008B0
:10006000591100087911000899110008FD0D0008C8
:10007000290E0008550E0008810E0008AD0E00087C
:10008000D90E0008050F0008111D0008000000002F
:10009000000000000000000000000000B91100088E
:1000A000111D0008111D0008111D0008111D000878
:1000B000111D0008111D0008111D0008111D000868
:1000C000111D0008111D0008111D0008051B000866
:1000D000131B0008111D0008111D0008000000007E
:1000E0006D120008111D0008111D0008000000001D
:1000F000000000000000000000000000310F0008B8
:1001000000000000111D0008111D0008211B00083F
:1001100000000000000000000000000000000000DF
:100120005D0F0008890F0008B50F0008E10F0008F7
:100130000D1000080000000000000000000000009A
:10014000000000000000000000000000111D000879
:10015000391000086510000891100008111D0008F2
:10016000111D0008111D0008000000000000000023
:10017000000000000000000000000000000000007F
:10018000000000000000000000000000000000006F
:04019000111D000835
:1001940010B5054C237833B9044B13B10448AFF3BD
:1001A40000800123237010BD6800002000000000BF
:1001B4005C1D000808B5034B1BB103490348AFF3AA
:1001C400008008BD000000006C0000205C1D0008D9
:1001D40070B54FF0FF0C4CF4E06C1CEA11541DBFD9
:1001E4001CEA135594EA0C0F95EA0C0F00F0DEF8A4
:1001F4002C4481EA030621EA4C5123EA4C5350EA89
:10020400013518BF52EA033541F4801143F48013D9
:1002140038D0A0FB02CE4FF00005E1FB02E506F06A
:100224000042E0FB03E54FF00006E1FB03569CF0BF
:10023400000F18BF4EF0010EA4F1FF04B6F5007FC5
:1002440064F5407404D25FEA4E0E6D4146EB060637
:1002540042EAC62141EA55514FEAC52040EA5E50C0
:100264004FEACE2EB4F1FD0C88BFBCF5E06F1ED86A
:10027400BEF1004F08BF5FEA500E50F1000041EBA1
:10028400045170BD06F0004646EA010140EA02004E
:1002940081EA0301B4EB5C04C2BFD4EB0C0541EA70
:1002A400045170BD41F480114FF0000E013C00F385
:1002B400AB8014F1360FDEBF002001F0004170BDA9
:1002C400C4F10004203C35DA0C341BDC04F11404C2
:1002D400C4F1200500FA05F320FA04F001FA05F24E
:1002E40040EA020001F0004221F0004110EBD3701B
:1002F40021FA04F642EB06015EEA430E08BF20EA47
:10030400D37070BDC4F10C04C4F1200500FA04F3E9
:1003140020FA05F001FA04F240EA020001F000417B
:1003240010EBD37041F100015EEA430E08BF20EAEE
:10033400D37070BDC4F1200500FA05F24EEA020E36
:1003440020FA04F301FA05F243EA020321FA04F065
:1003540001F0004121FA04F220EA020000EBD3701C
:100364005EEA430E08BF20EAD37070BD94F0000F1C
:100374000FD101F00046400041EB010111F4801F50
:1003840008BF013CF7D041EA060195F0000F18BF01
:10039400704703F00046520043EB030313F4801F3D
:1003A40008BF013DF7D043EA0603704794EA0C0FF7
:1003B4000CEA135518BF95EA0C0F0CD050EA41060D
:1003C40018BF52EA4306D1D181EA030101F000418A
:1003D4004FF0000070BD50EA410606BF10461946B2
:1003E40052EA430619D094EA0C0F02D150EA0136BE
:1003F40013D195EA0C0F05D152EA03361CBF1046FF
:1004040019460AD181EA030101F0004141F0FE419D
:1004140041F470014FF0000070BD41F0FE4141F421
:10042400780170BD81F0004102E000BF83F0004319
:1004340030B54FEA41044FEA430594EA050F08BF7B
:1004440090EA020F1FBF54EA000C55EA020C7FEA3F
:10045400645C7FEA655C00F0E2804FEA5454D4EBBC
:100464005555B8BF6D420CDD2C4480EA020281EA86
:10047400030382EA000083EA010180EA020281EABE
:100484000303362D88BF30BD11F0004F4FEA013110
:100494004FF4801C4CEA113102D0404261EB41011F
:1004A40013F0004F4FEA03334CEA133302D05242A5
:1004B40063EB430394EA050F00F0A780A4F1010461
:1004C400D5F1200E0DDB02FA0EFC22FA05F280189B
:1004D40041F1000103FA0EF2801843FA05F3594181
:1004E4000EE0A5F120050EF1200E012A03FA0EFC00
:1004F40028BF4CF0020C43FA05F3C01851EBE3712A
:1005040001F0004507D54FF0000EDCF1000C7EEB46
:1005140000006EEB0101B1F5801F1BD3B1F5001F84
:100524000CD349085FEA30004FEA3C0C04F10104A3
:100534004FEA445212F5800F80F09A80BCF1004FCC
:1005440008BF5FEA500C50F1000041EB045141EA4E
:10055400050130BD5FEA4C0C404141EB0101013C17
:1005640028BFB1F5801FE9D291F0000F04BF014606
:100574000020B1FA81F308BF2033A3F10B03B3F1D8
:1005840020020CDA0C3208DD02F1140CC2F10C0268
:1005940001FA0CF021FA02F10CE002F11402D8BFC6
:1005A400C2F1200C01FA02F120FA0CFCDCBF41EA92
:1005B4000C019040E41AA2BF01EB0451294330BD61
:1005C4006FEA04041F3C1CDA0C340EDC04F114043E
:1005D400C4F1200220FA04F001FA02F340EA030015
:1005E40021FA04F345EA030130BDC4F10C04C4F15B
:1005F400200220FA02F001FA04F340EA030029463B
:1006040030BD21FA04F0294630BD94F0000F83F484
:10061400801306BF81F480110134013D4EE77FEA67
:10062400645C18BF7FEA655C29D094EA050F08BFB3
:1006340090EA020F05D054EA000C04BF1946104694
:1006440030BD91EA030F1EBF0021002030BD5FEAD8
:10065400545C05D14000494128BF41F0004130BD00
:1006640014F580043CBF01F5801130BD01F0004554
:1006740045F0FE4141F470014FF0000030BD7FEAC7
:10068400645C1ABF194610467FEA655C1CBF0B46C2
:10069400024650EA013406BF52EA033591EA030FD9
:1006A40041F4002130BD00BF90F0000F04BF0021D1
:1006B400704730B54FF4806404F132044FF0000504
:1006C4004FF0000150E700BF90F0000F04BF00217D
:1006D400704730B54FF4806404F1320410F00045E3
:1006E40048BF40424FF000013EE700BF42004FEADE
:1006F400E2014FEA31014FEA02701FBF12F07F435B
:1007040093F07F4F81F06051704732F07F4208BF11
:10071400704793F07F4F04BF41F40021704730B518
:100724004FF4607401F0004521F000411CE700BF64
:1007340050EA010208BF704730B54FF000050AE0E7
:1007440050EA010208BF704730B511F0004502D5E8
:10075400404261EB41014FF4806404F132045FEAEA
:10076400915C3FF4D8AE4FF003025FEADC0C18BF93
:1007740003325FEADC0C18BF033202EBDC02C2F185
:10078400200300FA03FC20FA02F001FA03FE40EA17
:100794000E0021FA02F11444BDE600BF4A0011D252
:1007A40012F5001211D20DD56FF47873B3EB6252C7
:1007B4000ED44FEAC12343F0004343EA505323FAD3
:1007C40002F070474FF00000704750EA013002D148
:1007D4004FF0FF3070474FF00000704780B582B093
:1007E40000AF03460A46FB711346BB71FB79022B2B
:1007F40010D0022B13DC002B02D0012B05D00EE00D
:100804000021002000F09CFF0AE00121002000F0FC
:1008140097FF05E00221002000F092FF00E000BFF6
:10082400B979FB790122184600F08AFD00BF083728
:10083400BD4680BD80B588B000AF78607B6893F812
:1008440058007B6893F859300122194600F07AFE6B
:100854005023FB6102E0FB69013BFB61FB69002B58
:10086400F9D17B6893F858007B6893F859300022DB
:10087400194600F067FE0023BB6102E0BB69013B3F
:10088400BB61BB69002BF9D17B6893F858007B6886
:1008940093F859300122194600F054FE50237B612D
:1008A40002E07B69013B7B617B69002BF9D17B68AA
:1008B40093F858007B6893F859300022194600F0E9
:1008C40041FE50233B6102E03B69013B3B613B69D4
:1008D400002BF9D17B6893F858007B6893F8593062
:1008E4000122194600F02EFE064BFB6002E0FB6875
:1008F400013BFB60FB68002BF9D100BF00BF203730
:10090400BD4680BD0077010080B582B000AF78603D
:100914000B46FB707B6893F85A007B6893F85B3056
:100924000022194600F00EFE7B68F9784FF47A72C3
:10093400184601F04DF800BF0837BD4680BD80B5AC
:1009440082B000AF78600B46FB707B6893F85A0066
:100954007B6893F85B300122194600F0F3FD7B6855
:10096400F9784FF47A72184601F032F800BF08376C
:10097400BD4680BD80B584B000AF78607B6893F8D5
:1009840058207B6893F8593019461046FFF726FF24
:100994007B6893F85A207B6893F85B3019461046BD
:1009A400FFF71CFF7B68184600F0C8FF7868FFF764
:1009B40041FF11217868FFF7A7FF0E4BFB6002E0AF
:1009C400FB68013BFB60FB68002BF9D13A21786896
:1009D400FFF79AFF05217868FFF7B1FF21217868B6
:1009E400FFF792FF29217868FFF78EFF00BF1037C9
:1009F400BD4680BDC0D4010080B582B000AF786030
:100A0400084611461A460346FB700B46BB70134654
:100A14007B702A217868FFF777FF00217868FFF759
:100A24008EFFFB7819467868FFF789FF0021786804
:100A3400FFF785FFBB7819467868FFF780FF2B2105
:100A44007868FFF761FF00217868FFF778FF7B780B
:100A540019467868FFF773FF00217868FFF76FFF86
:100A64003B7C19467868FFF76AFF2C217868FFF70A
:100A74004BFF00BF0837BD4680BD80B584B002AFD0
:100A8400786039609F23009300237F2200217868D7
:100A9400FFF7B2FF7B6893F85A007B6893F85B30EA
:100AA4000122194600F04EFD7B684FF4204239685C
:100AB400184600F0F3FF00BF0837BD4680BD80B480
:100AC40083B000AF78607B685B68002B08D17B68DB
:100AD4001B689A687B681B6842F020029A6059E0A0
:100AE4007B685B68012B08D17B681B689A687B680C
:100AF4001B6842F400629A604CE07B685B68022BDE
:100B040008D17B681B689A687B681B6842F40012F2
:100B14009A603FE07B685B68032B08D17B681B68A5
:100B24009A687B681B6842F000629A6032E07B68D6
:100B34005B68042B08D17B681B68DA687B681B68D8
:100B440042F02002DA6025E07B685B68052B08D15F
:100B54007B681B68DA687B681B6842F40062DA60B1
:100B640018E07B685B68062B08D17B681B68DA6831
:100B74007B681B6842F40012DA600BE07B685B68F8
:100B8400072B07D17B681B68DA687B681B6842F017
:100B94000062DA6000BF0C37BD465DF8047B704725
:100BA40080B582B000AF78607B681B68334A93429B
:100BB4001CD17B685B68062B09D87B685B68DBB259
:100BC4000B33DBB25BB2184600F022FD06E07B6813
:100BD4005B68072B02D12F2000F01AFD7B685B684D
:100BE4007A68526A264941F823202AE07B681B6808
:100BF400244A934225D17B685B68042B09D87B681F
:100C04005B68DBB23833DBB25BB2184600F000FD40
:100C140010E07B685B68042B0CD97B685B68072B4E
:100C240008D87B685B68DBB24433DBB25BB218463E
:100C340000F0EEFC7B685B687A68526A124941F8FE
:100C440023207B6819687B685A6813465B00134449
:100C5400DB000B4410331B687A6810687A685268AA
:100C640043F0100113465B001344DB0003441033CC
:100C7400196000BF0837BD4680BD00BF0060024058
:100C84008400002000640240A400002080B582B0EB
:100C940000AF78607B681B68244A934204D1152115
:100CA400002000F04DFD08E07B681B68204A934259
:100CB40003D11621002000F043FD7B6819687B688E
:100CC4005A6813465B001344DB000B4410330022C4
:100CD4001A607868FFF7F3FE7B689A687B68DB68C4
:100CE4001A437B681B691A437B685B691A437B68F8
:100CF4009B6942EA03017B68DB697A6810687A6859
:100D04005268194313465B001344DB000344103359
:100D140019607B6893F82030012B02D17868FFF7C3
:100D24003FFF00BF0837BD4680BD00BF00600240E2
:100D34000064024080B485B000AFF860B9607A60A6
:100D44003B60FB681968FB685A6813465B001344F0
:100D5400DB000B4410331B68FA681068FA685268A9
:100D640023F0010113465B001344DB0003441033FA
:100D74001960FB681968FB685A6813465B001344E2
:100D8400DB000B4414333A681A60FB681868FB688C
:100D94005B68B9685A1C13465B001344DB000344C8
:100DA4001960FB681868FB685B6879685A1C13460D
:100DB4005B001344DB00034404331960FB681968C7
:100DC400FB685A6813465B001344DB000B44103382
:100DD4001B68FA681068FA68526843F00101134608
:100DE4005B001344DB0003441033196000BF143765
:100DF400BD465DF8047B704780B500AF074B9B6828
:100E0400064A43F020039360054B1B68002B02D075
:100E1400034B1B68984700BF80BD00BF00600240C1
:100E24008400002080B500AF074B9B68064A43F45A
:100E340000639360054B5B68002B02D0034B5B6837
:100E4400984700BF80BD00BF0060024084000020BE
:100E540080B500AF074B9B68064A43F400139360C8
:100E6400054B9B68002B02D0034B9B68984700BF3F
:100E740080BD00BF006002408400002080B500AF48
:100E8400074B9B68064A43F000639360054BDB689D
:100E9400002B02D0034BDB68984700BF80BD00BF26
:100EA400006002408400002080B500AF074BDB687F
:100EB400064A43F02003D360054B1B69002B02D084
:100EC400034B1B69984700BF80BD00BF0060024010
:100ED4008400002080B500AF074BDB68064A43F46A
:100EE4000063D360054B5B69002B02D0034B5B6945
:100EF400984700BF80BD00BF00600240840000200E
:100F040080B500AF074BDB68064A43F40013D36097
:100F1400054B9B69002B02D0034B9B69984700BF8C
:100F240080BD00BF006002408400002080B500AF97
:100F3400074BDB68064A43F00063D360054BDB696B
:100F4400002B02D0034BDB69984700BF80BD00BF74
:100F5400006002408400002080B500AF074B9B680E
:100F6400064A43F020039360054B1B68002B02D014
:100F7400034B1B68984700BF80BD00BF006402405C
:100F8400A400002080B500AF074B9B68064A43F4D9
:100F940000639360054B5B68002B02D0034B5B68D6
:100FA400984700BF80BD00BF00640240A400002039
:100FB40080B500AF074B9B68064A43F40013936067
:100FC400054B9B68002B02D0034B9B68984700BFDE
:100FD40080BD00BF00640240A400002080B500AFC3
:100FE400074B9B68064A43F000639360054BDB683C
:100FF400002B02D0034BDB68984700BF80BD00BFC5
:1010040000640240A400002080B500AF074BDB68F9
:10101400064A43F02003D360054B1B69002B02D022
:10102400034B1B69984700BF80BD00BF00640240AA
:10103400A400002080B500AF074BDB68064A43F4E8
:101044000063D360054B5B69002B02D0034B5B69E3
:10105400984700BF80BD00BF00640240A400002088
:1010640080B500AF074BDB68064A43F40013D36036
:10107400054B9B69002B02D0034B9B69984700BF2B
:1010840080BD00BF00640240A400002080B500AF12
:10109400074BDB68064A43F00063D360054BDB690A
:1010A400002B02D0034BDB69984700BF80BD00BF13
:1010B40000640240A400002080B483B000AF034663
:1010C400FB71084B5B69FA79012101FA02F21146BE
:1010D400044A0B43536100BF0C37BD465DF8047BE3
:1010E400704700BF003C014080B483B000AF0346AA
:1010F400FB71074B5A69FB7922FA03F3DBB203F065
:101104000103DBB218460C37BD465DF8047B70471B
:10111400003C014080B500AF054B1B68002B02D09A
:10112400034B1B6898470020FFF7C6FF00BF80BD34
:10113400C400002080B500AF054B5B68002B02D0D3
:10114400034B5B6898470120FFF7B6FF00BF80BDE3
:10115400C400002080B500AF054B9B68002B02D073
:10116400034B9B6898470220FFF7A6FF00BF80BD92
:10117400C400002080B500AF054BDB68002B02D013
:10118400034BDB6898470320FFF796FF00BF80BD41
:10119400C400002080B500AF054B1B69002B02D0B2
:1011A400034B1B6998470420FFF786FF00BF80BDEF
:1011B400C400002080B500AF0520FFF795FF03466B
:1011C400002B0AD0274B5B69002B02D0254B5B69AF
:1011D40098470520FFF770FF42E00620FFF784FFE1
:1011E4000346002B0AD01F4B9B69002B02D01D4BDA
:1011F4009B6998470620FFF75FFF31E00720FFF760
:1012040073FF0346002B0AD0164BDB69002B02D078
:10121400144BDB6998470720FFF74EFF20E00820B6
:10122400FFF762FF0346002B0AD00E4B1B6A002B0C
:1012340002D00C4B1B6A98470820FFF73DFF0FE0D4
:101244000920FFF751FF0346002B09D0054B5B6AC9
:10125400002B02D0034B5B6A98470920FFF72CFF51
:1012640000BF80BDC400002080B500AF0A20FFF796
:101274003BFF0346002B0AD0304B9B6A002B02D065
:101284002E4B9B6A98470A20FFF716FF53E00B206A
:10129400FFF72AFF0346002B0AD0284BDB6A002BFA
:1012A40002D0264BDB6A98470B20FFF705FF42E08C
:1012B4000C20FFF719FF0346002B0AD01F4B1B6BB2
:1012C400002B02D01D4B1B6B98470C20FFF7F4FE3C
:1012D40031E00D20FFF708FF0346002B0AD0174B1F
:1012E4005B6B002B02D0154B5B6B98470D20FFF70F
:1012F400E3FE20E00E20FFF7F7FE0346002B0AD0A2
:101304000E4B9B6B002B02D00C4B9B6B98470E2013
:10131400FFF7D2FE0FE00F20FFF7E6FE0346002B97
:1013240009D0064BDB6B002B02D0044BDB6B9847D8
:101334000F20FFF7C1FE00BF80BD00BFC400002026
:1013440080B483B000AF0346FB710B46BB711346F8
:101354007B71FB79022B2CD0022B3DDC002B02D0BD
:10136400012B13D038E0204B1B68BA7952000321BB
:1013740001FA02F2D24313407979BA79520001FAA0
:1013840002F21146184A0B43136026E0174B1B6800
:10139400BA795200032101FA02F2D2431340797957
:1013A400BA79520001FA02F21146104A0B43136053
:1013B40013E00F4B1B68BA795200032101FA02F2C1
:1013C400D24313407979BA79520001FA02F21146F4
:1013D400074A0B43136000E000BF00BF0C37BD4653
:1013E4005DF8047B704700BF000002400004024027
:1013F4000008024080B483B000AF0346FB710B4683
:10140400BB7113467B71FB79022B5DD0022B00F379
:101414008680002B02D0012B2BD080E0BB79072BD8
:1014240012D8424B1B68BA7992000F2101FA02F2DA
:10143400D24313407979BA79920001FA02F2114643
:101444003A4A0B4313606BE0394B1B68BA79083A8C
:1014540092000F2101FA02F2D24313407979BA794A
:10146400083A920001FA02F21146314A0B43136022
:1014740056E0BB79072B12D82E4B1B68BA79920021
:101484000F2101FA02F2D24313407979BA7992001A
:1014940001FA02F21146274A0B43136040E0264B3F
:1014A4001B68BA79083A92000F2101FA02F2D2437A
:1014B40013407979BA79083A920001FA02F2114696
:1014C4001D4A0B4313602BE0BB79072B12D81B4B2F
:1014D4001B68BA7992000F2101FA02F2D243134039
:1014E4007979BA79920001FA02F21146134A0B4350
:1014F400136015E0124B1B68BA79083A92000F2169
:1015040001FA02F2D24313407979BA79083A920087
:1015140001FA02F211460A4A0B43136000E000BFCD
:1015240000BF0C37BD465DF8047B704720000240C5
:101534002400024020040240240402402008024007
:101544002408024080B483B000AF0346FB710B460D
:10155400BB7113467B71FB79022B2CD0022B3DDC33
:10156400002B02D0012B13D038E07B79012B05D15D
:10157400BB7901229A40204B1A6031E07B79002B21
:101584002ED1BB794FF480329A401B4B1A6027E06E
:101594007B79012B05D1BB7901229A40174B1A6044
:1015A40020E07B79002B1DD1BB794FF480329A4027
:1015B400124B1A6016E07B79012B05D1BB7901220D
:1015C4009A400F4B1A600FE07B79002B0CD1BB794A
:1015D4004FF480329A400A4B1A6005E000BF04E0E1
:1015E40000BF02E000BF00E000BF00BF0C37BD46F3
:1015F4005DF8047B704700BF1800024018040240E5
:101604001808024080B500AF00F0DAF800BF80BDD2
:1016140080B483B000AF0346FB7197F90730002B09
:101624000BDBFB7903F01F02074997F907305B09CD
:10163400012000FA02F241F8232000BF0C37BD4616
:101644005DF8047B704700BF00E100E080B400AFA8
:10165400144B1B68134A43F001031360114B1B68BE
:10166400104A23F4803313600E4B1B680D4A23F099
:101674008073136000BF0B4B1B6803F00203002B45
:10168400F9D0094B1B68084A23F001031360064B89
:101694001B68054A23F00203136000BFBD465DF8D2
:1016A400047B7047003802400838024080B400AF21
:1016B400084B1B68074A23F0F0031360054B1B68B3
:1016C400044A43F08003136000BFBD465DF8047B09
:1016D400704700BF0838024080B400AF074B1B6856
:1016E400064A23F4E0531360044B044A1B68136056
:1016F40000BFBD465DF8047B704700BF0838024058
:1017040080B400AF074B1B68064A23F460431360A0
:10171400044B044A1B68136000BFBD465DF8047B9C
:10172400704700BF0838024080B500AFFFF78EFF56
:10173400FFF7BCFFFFF7D0FFFFF7E2FF00BF80BD5C
:1017440080B483B000AF03460A46FB711346BB71F5
:10175400FB79022B1CD0022B25DC002B02D0012BA1
:101764000BD020E0134B1B68BA79012101FA02F275
:101774001146104A0B43136016E00F4B1B68BA79ED
:10178400012101FA02F211460B4A0B4313600BE0EC
:101794000A4B1B68BA79012101FA02F21146074A81
:1017A4000B43136000E000BF00BF0C37BD465DF87B
:1017B400047B7047303802404038024044380240CD
:1017C40080B483B000AF00237B6005233B600D4BE6
:1017D400DB687B607A684FF6FF0313407B603B68ED
:1017E4001A027B68134343F0BF6343F400337B6006
:1017F400044A7B68D36000BF0C37BD465DF8047BA8
:10180400704700BF00ED00E080B582B000AF7860A3
:101814007B681B78022B42D0022B5DDC002B02D0AC
:10182400012B23D058E000210020FFF789FF02227A
:1018340004210020FFF784FD052204210020FFF786
:10184400D9FD022205210020FFF77AFD052205219A
:101854000020FFF7CFFD022207210020FFF770FDD3
:10186400052207210020FFF7C5FD35E001210020F6
:10187400FFF766FF02220A210120FFF761FD05221E
:101884000A210120FFF7B6FD02220F210120FFF7F4
:1018940057FD05220F210120FFF7ACFD1CE00021BC
:1018A4000020FFF74DFF01210020FFF749FF02222E
:1018B40003210120FFF744FD062203210120FFF745
:1018C40099FD022205210120FFF73AFD0622052198
:1018D4000120FFF78FFD00BF00BF0837BD4680BD64
:1018E40080B400AF034B01221A7000BFBD465DF8FF
:1018F400047B70470401002080B582B000AF78609B
:101904007B681B78022B10D0022B13DC002B02D037
:10191400012B05D00EE00C210220FFF711FF09E096
:101924000E210120FFF70CFF04E00F210120FFF737
:1019340007FF00BF00BF0837BD4680BD80B582B039
:1019440000AF78607868FFF75FFF7868FFF7D4FF2F
:101954007B685A787B689B781343DAB27B68DB78C0
:101964001343DAB27B681B791343DAB27B685B7981
:101974001343DAB27B681B781946144B53F82130B1
:101984001A607B681B781A46104B53F822305A6849
:101994007B681B7819460D4B53F8213042F0040242
:1019A4005A607B681B781A46084B53F822301A6831
:1019B4007B681B781946054B53F8213042F04002EE
:1019C4001A6000BF0837BD4680BD00BF5C00002020
:1019D40080B586B000AFF8600B467A60FB720023D6
:1019E400FB750023BB752A49786800F0EDF800BF49
:1019F400FB681B781A46274B53F822309B685B0818
:101A040003F00103012B03D0234B1B78012BEFD1EF
:101A1400214B1B78012B05D10223FB751E4B0022A1
:101A24001A7030E01A49786800F0CEF8FB681B7829
:101A34001A46184B53F82230FA7ADA6000BFFB6872
:101A44001B781A46134B53F822309B68DB0903F0CA
:101A54000103012B03D1104B1B78012BEFD10E4B4B
:101A64001B78012B05D10223FB750B4B00221A7046
:101A740009E000F077F8FB681B781A46054B53F829
:101A84002230DB68BB75FB7D18461837BD4680BD28
:101A9400E51800085C0000200401002080B584B033
:101AA40000AFF860B9601346FB80FB680833184642
:101AB400FFF7ECF8FB6803F10800FB681B781A4693
:101AC4000E4B53F8223003F10C01FB88BA68FFF780
:101AD40031F9FB681B781A46084B53F822305A68D0
:101AE400FB681B781946054B53F8213042F002027B
:101AF4005A6000BF1037BD4680BD00BF5C000020A7
:101B040080B400AF00BFBD465DF8047B704780B46D
:101B140000AF00BFBD465DF8047B704780B400AFE2
:101B240000BFBD465DF8047B7047000080B400AF81
:101B34000B4B1B680A4A23F004031360084B1B6811
:101B4400074A23F002031360054B1B68044A43F061
:101B54000103136000BFBD465DF8047B704700BFFE
:101B640010E000E080B400AF0B4B1B680A4A23F07E
:101B740001031360084B00225A60074B00229A604D
:101B8400054B1B68044A23F00203136000BFBD46E3
:101B94005DF8047B704700BF10E000E080B500AF43
:101BA400074B1B78DBB2002B01D1FFF7DBFF054BA2
:101BB4001B68002B02D0034B1B68984700BF80BDF5
:101BC4000C0100200801002080B584B000AF7860CB
:101BD40039600023FB603B68002B2ED07868FEF749
:101BE40063FD4FF00002174BFEF7F2FA02460B4674
:101BF40010461946FEF7D2FD0346FB60FB68B3F1BD
:101C0400807F02D36FF07F43FB600F4AFB68536011
:101C14000D4B00229A600D4A3B6813600C4B002266
:101C24001A70094B1B68084A43F002031360064B01
:101C34001B68054A43F00103136000BF1037BD461B
:101C440080BD00BF00408F4010E000E0080100208C
:101C54000C01002080B582B000AF0F48FEF78AFE69
:101C64000E490D48FEF709FF0D4B7B6002E07B68CF
:101C7400013B7B607B68002BF9D10A490648FEF7DB
:101C8400FCFE074B3B6002E03B68013B3B603B686A
:101C9400002BF9D1E4E700BF00000020741D000808
:101CA40000350C0074BD000880B500AFFFF73CFDA3
:101CB400FFF73CFFFFF7A6FC00BF80BD0D4885463B
:101CC400FFF7F2FF0C480D490D4A002302E0D458F7
:101CD400C4500433C4188C42F9D30A4A0A4C002372
:101CE40001E013600432A242FBD300F011F8FFF7C5
:101CF400B1FFFEE700000120000000206800002082
:101D04007C5D01086800002010010020FEE700004F
:101D140070B50D4D0D4C641BA4100026A64209D1CC
:101D24000B4D0C4C00F018F8641BA4100026A642BE
:101D340005D170BD55F8043B98470136EEE755F8D8
:101D4400043B98470136F2E7745D0108745D0108AD
:101D5400745D0108785D0108F8B500BFF8BC08BCE3
:101D64009E467047F8B500BFF8BC08BC9E46704755
:101D7400D658D658D659D658D638D658CE38D65836
:101D8400D658D658D658D658D658D658D658D658DF
:101D9400D658D658CE38D658D658CE38CE38CE584F
:101DA400CE38CE38D658CE38CE38CE38CE38CE38D7
:101DB400CE58CE58CE38CE58CE58CE58CE38CE582F
:101DC400CE58CE58CE38CE38CE38CE38CE38CE389F
:101DD400CE38CE38CE38CE38CE17C5F7BDB6C5F717
:101DE400CE38CE17CE17C617C617CE37CE38CE3854
:101DF400CE38CE38CE38CE38CE38CE38CE38CE38AF
:101E0400CE37CE17CE17C5F7C5D6C5B6BD75B575D1
:101E1400B535ACF4A4B39C7294318BF083CF738E3C
:101E24006B4D630C5ACC52AB4A6A4229420839E8DA
:101E340039C831A731A731A73187318731A7318616
:101E44002966296629662966294629662966296636
:101E54002966296629662966296629662966296606
:101E64002966296639C85ACB9491C5D7BDD7BDD741
:101E7400CE38CE38D658D658CE38D658D658D65866
:101E8400D658D658D658D658D658D658D658CE3806
:101E9400D658CE38CE38CE38CE38CE38CE38CE38E6
:101EA400CE38CE38CE38CE38CE38CE38CE38CE38FE
:101EB400CE38CE38CE38CE38CE38CE38CE38CE38EE
:101EC400CE58CE38CE38CE38CE38CE38CE38CE38BE
:101ED400CE38CE38CE38CE37CE17C617C617C6176B
:101EE400C5F7C5F7C5D6BDB6BD95BD75B555AD34F9
:101EF400AD14A4F39CB29C9294518C3083F083CFA4
:101F04007B8E736E6B4D62EC5AAB52AB4A6A4A29B4
:101F140042093A0939E839C831A731A731873187ED
:101F2400298629662966298629862986298631876C
:101F340029872986298629662966296629662966C4
:101F440029662966294629462946294629462946D5
:101F54002945294521452145294521452145214535
:101F640029452946298629667BCEC5F7BDB7BDD745
:101F7400CE38CE38CE58CE58CE38CE38CE58D638C5
:101F8400CE38CE58CE38CE38CE38D638CE38CE38F5
:101F9400CE38CE38CE38CE38CE38CE38CE38CE380D
:101FA400CE38CE38CE38CE38CE38CE38CE38CE38FD
:101FB400CE38CE38CE38CE37CE17CE17C5F7C5F7C4
:101FC400C5D6BDB6BD95B575B554AD14A4F3A4B2CC
:101FD4009C9294718C31841083EF7BAF736E6B4D44
:101FE400630C62EC5ACB5AAB526A526A4A294209D0
:101FF400420839E839C731A73187318731862966E4
:1020040029662966294629462945294629662966D5
:102014002966296629662966296629662966296644
:102024002966294629652966296629662966296655
:102034002966296629662966296629462946294684
:102044002946294621462146214621462146212565
:10205400212521252125212521252125212521254C
:10206400212521452966294573AEC5F7BDB7C5D7D6
:10207400CE38CE38CE58CE38CE38CE38CE38CE380C
:10208400CE38CE58CE38CE38CE38CE38CE38CE38FC
:10209400CE38CE17CE17CDF7C5F7C5D7C5D6BDB642
:1020A400BD96B575B535AD14A4F4A4D39C929471C2
:1020B4008C518C1083F07BAF736E734E6B0D62EC9E
:1020C4005ACB528B4A6A4A4A4229420939E839C8EA
:1020D40039C831A831A731873186318629862986C6
:1020E4003186318631A731A731A731A731A731A76E
:1020F40031A731A731A731A731A731A731A731A71C
:1021040031A7318731863186298629863186318601
:102114002966296629662966296629662966296643
:1021240029662146214529462966296629662966A4
:1021340029462966296629462946294629462946E3
:1021440021462146214621462146212621252125B5
:10215400212521252125192519251904192521258C
:1021640021252145214621256BADC5F7C5B7C5B746
:10217400CE38CE17CDF7C5D6C5B6BDB6BD95B575A7
:10218400B534AD34A4F3A4D39CB2947294518C109E
:1021940083CF7BAF738E734E6B0D62EC5ACC5AAB0C
:1021A400528B4A4A422942093A0939E839C831C8A6
:1021B40031A831A831A7318731A731A729872987C9
:1021C400318731A731A731A831A831A731A731A868
:1021D40031A831A731A7318731873187318731A7BA
:1021E40031A731A731A731A731A731A731A731A72B
:1021F40031A731A7318731A731A731A731A731A73B
:102204003186316629862966296629662966296602
:102214002966296629662966296629462966296662
:102224002166214621452145214629462946214644
:102234002146294621462146214621462925214673
:102244002146214621262125212521252125212517
:10225400190519051904190419041904190419058F
:1022640021252125214621456B8DC5F7C5B7C5B765
:10227400CE38C5F77BAE5ACB5AAB528A4A4A4A4A41
:1022840042093A0939E839E839A731A731A731A712
:1022940031A731A7318731872987298731A731A70A
:1022A40031A731A831C831C831C831C831C831C8A3
:1022B40031C831C831C831A831C831C831C831A892
:1022C40031A831A831A831A831A731A731A731A746
:1022D400318729872966296629662966296631870F
:1022E40031872986296629662966318629863187B8
:1022F40031A73186318631873187318731873186FD
:1023040031863186318629662966296629662966D9
:102314002966296629662166216621662966296659
:102324002146214621452125214521452146214695
:1023340021462146214621462146212621262126C1
:1023440021252125212519251925192519251905A1
:10235400190519051905190519041904190519058B
:1023640019252125214621256B8DC5F6C5D7C5D74D
:10237400CE18C5D6526A296631A729873187318795
:102384002987318731A7318731A73187318731A731
:1023940031C731A731A731A831A831A831A831A755
:1023A40031A831A831A731A731A731A731A731A767
:1023B40031A731A731873187318731A731A73187D9
:1023C4002987318731873187318731873187318751
:1023D400298729872966296629462946296629667F
:1023E4002966296629662966296629662966296671
:1023F400318629862966318631A731863186318630
:1024040029862986298629662966296629662966F0
:102414002966296629662166296621662946214698
:1024240021462146212521252145214521462145B5
:102434002146212621462126212621262126212521
:1024440019251925192519251925192519251905B8
:102454001905190519051905190519051905192568
:1024640021252125214621256B6CC5D6C5D6C5D687
:10247400CE18C5D6528A298731A731A7298729873B
:10248400296729872987298629862966296629862D
:1024940029872987298729873187318729873187A0
:1024A40031A731A731A7318731873187318731A7E8
:1024B4003187298729872987318731A73187298758
:1024C4002987298729872987318731872987298778
:1024D40029872966294629462946294629662966DF
:1024E4002966296629662966296629662966296670
:1024F40029662966296629663186318631862986C8
:10250400296629662966296629662966296629664F
:1025140029662966296629662166294621462146B7
:102524002146214521252125212521262146212613
:102534002126214621262125212521252125212544
:1025440019251925192519251905192519051905F7
:102554001905190519051904190419051905192569
:1025640019252125214619256B6CC5F6BDB6C5D69E
:10257400CE17C5D6526A296629872967296629662E
:1025840029662966296629662966296629662966CF
:102594002966296729872967298729872987298718
:1025A40029872987298729872987298729872987A7
:1025B40029872987296729672987298729872967F7
:1025C4002987298729872967296729672967296727
:1025D40029662966296621462146214621662966FF
:1025E4002166216621662166216629662966296697
:1025F400296629462946296629662966296629669F
:10260400296629662966296629662966296629664E
:1026140029662966296629662946214621462146D6
:102624002145214521252125212521262126212633
:102634002126212621251925212521252125192574
:102644001925192519251905190519051905190536
:1026540019051905190518E418E4190419051905CB
:102664001905212521461925636CC5D6C5D6C5D6BD
:10267400CE17C5D6526A2146298729662966296656
:10268400296629662966214621462146216629664E
:1026940029662966296629672967296729672967B9
:1026A4002967296729872987296729872966296747
:1026B4002967296629662966296729672967296799
:1026C400296629672966296629662966296629668D
:1026D400296629662146214621462146214621466E
:1026E4002146214621462146216629462966296636
:1026F400294621462146294629462966296629660E
:10270400296629662966294629662966298629664D
:1027140029662966216629462946214621462146FD
:10272400214521252125192521052125212521257D
:1027340021252125192519251925212521051905C5
:102744001905190519251905190519051905190575
:10275400190518E518E518E418E41904190519040D
:102764001905212521461925634CC5D6BDD6BDD6EC
:10277400CE37C5D64A49214629672966296629667E
:1027840029662146294629462146214621462946CD
:1027940029662966296629662966296629662966BD
:1027A4002966296729672987296729662966296689
:1027B40029662966294629662966296629662966BD
:1027C40029662966296629662966296629662946AD
:1027D40021462146214521452126214621462146DF
:1027E4002146214621462146214629462946294695
:1027F400214621462145214629462946294629665E
:102804002966296629462946294529663186296685
:10281400296629662946294621462145214521451F
:1028240021452125212521051905190519052125EC
:1028340021252125212521251925190519051905E4
:102844001905190519051905190519051905190594
:10285400190518E518E418E418E41904190419050D
:102864001905192521451925634CC5D6C5D7BDD7EA
:10287400CE17BDD64A4921462966294629662966C6
:102884002146214621462146212621462146294624
:1028940029662966296629662966296629662966BC
:1028A40029662966296629672966296629662966AB
:1028B40029662146214629662966296629662966EC
:1028C4002966296629662966294621462946294614
:1028D40029462146214521452126214621462146D6
:1028E4002146214621462146294629462146294694
:1028F4002146214621462146214629462146214595
:102904002945214521452125212529462966296670
:10291400296629662146214621462145212521256E
:10292400212521252125210519051905190521250B
:10293400190519251925212519051905190519053B
:10294400190519051905190519051905190518E4B5
:1029540018E418E418E418E418E418E41904190550
:102964001905190521451905634CC5D6BDD6BDD633
:10297400CE18BDB64A492146294621462966216614
:10298400214521452145212621252126214621466F
:102994002146294629462966294629662966296643
:1029A40029662966296629662966296629462946EB
:1029B400214621462946296629662946296629662B
:1029C400296629462146214621462146214621469B
:1029D4002946214621452125212521262146214616
:1029E40021462146214621462146214621462146AB
:1029F400214621452145214621462146214621459E
:102A04002145212521252125210521252945294641
:102A140029462146214621452125212521252125F7
:102A24002125212521051905190519051925212512
:102A34001925190519051905190519051905190582
:102A44001905190519051905190519051905190592
:102A54001904190418E418E418E418E4190419040E
:102A64001904192421451925632CBDD6BDD6C5D713
:102A7400CE18BDB64A29212529462146216621467C
:102A84002145214521252125212521252146214690
:102A9400214629462146294629662966296629664A
:102AA40029662966296629662966296629662146D2
:102AB40021462146214629662946214621462946A2
:102AC40021462146214621462146214621462146CA
:102AD4002146214521252125212521252145214640
:102AE40021462146214621462146214621462146AA
:102AF40021452125212521452146214521462146DF
:102B040021252125212521251905212521252125B9
:102B14002125214521252125212521252125212561
:102B24002105212519251905190519041905192542
:102B34001925190519051905190519051905190581
:102B44001905190519051905190519051905190591
:102B54001904190418E418E418E418E418E419042E
:102B640019041904214519255B2BBDD6C5D7BDD73A
:102B7400CE18BDB64A29212529462146214621459C
:102B840021452125212521252125212521252125F1
:102B940021462146214621462146214621462946F1
:102BA40029462946294629462946294629462146B1
:102BB40021462146214629462146214621462146D1
:102BC40021462146214621462146214621452145CB
:102BD4002145214521252125212521252145212561
:102BE40021252126214621462146214621462145EB
:102BF4002145212521252145214521452145212501
:102C040029462926212519051904190519252125DF
:102C140021251925212521252125212521252105A8
:102C2400210519051925190519051904190419058A
:102C340019051905190519051905190519051905A0
:102C44001905190519051905190519051905190590
:102C54001904190418E418E418E418E418E419042D
:102C640019041904212519245B0BBDD6C5D6BDD67C
:102C7400CE38BDB64A09212529462146214621469A
:102C840021262125212521252125212521252146EE
:102C940021462146214621462146214621462146F8
:102CA40029462946294621462146214621462146D0
:102CB40021462146214621462146214621462146D8
:102CC40021462145214521462146214521452125ED
:102CD4002125212521252105210521252125212500
:102CE40021252145214521462146214621462145CC
:102CF40021252125212521252125212521252125A0
:102D04002145212521051905190519051905192537
:102D140021251925192519252125210521052105F7
:102D24001905190519251925190519041904190571
:102D3400190519051905190519051905190519059F
:102D4400190519051905190519051905190519058F
:102D54001904190418E418E418E418E4190419040B
:102D640019041904212519055B0BBDD6BDD7BDD7A0
:102D7400CE17BDB5420821252946214621462146C4
:102D840021462125212521252125212521452145AE
:102D9400214621252125212521462146214621465A
:102DA4002146214621462146214621462146212607
:102DB40021252146214621462146214521462146F9
:102DC400214621452125214621452125214621450C
:102DD40021252125212521252125212521252125BF
:102DE400214521252125214621462146214621250B
:102DF400292529252125292529252125212521257F
:102E04002125212521251905190519041905190557
:102E1400192519251905190519051925190519055E
:102E24001925192519051905190519041904190570
:102E3400190519051905190519051905190519059E
:102E44001905190519051905190519041904190590
:102E54001904190518E410E418E418E418E4190432
:102E640019041925214519045B0BBDD6BDD7C5F737
:102E7400CE17BDB5420821252946214621462146C3
:102E840021452125212521052125212521462125ED
:102E9400212521252125214521452146214621465B
:102EA40021462146214621462146214621462146E6
:102EB400212521262146214621452145214521451B
:102EC400214521462145212521452125212521254D
:102ED40021252125212521252125212521252125BE
:102EE400212521252145214521452145214521250E
:102EF4002925212521252125212521252125212596
:102F04002125210521051904190419041905190598
:102F140019051905190519051905190519051905BD
:102F2400192519051905190519051904190419058F
:102F3400190419051905190519051905190519059E
:102F4400190519051905190519051905190519048E
:102F54001904190418E418E418E418E418E419042A
:102F640019041925214519245B0BBDD6BDD6BDD73F
:102F7400CE17BDB5420821252966214621462146A2
:102F8400212621252105210521252125212521452C
:102F9400212521452125212521252125214521459D
:102FA400214521252125214521252146214621266A
:102FB400212621262126214521452145214521255A
:102FC40021452125212521252125212521252125AD
:102FD400212521252105210521052125212521251D
:102FE400212521452125212521452145212521254D
:102FF40021252125210521252125212521252125BD
:10300400212521251905190518E41904190519059F
:10301400192519251905190419051905190519057D
:1030240019051905190519051905190419041905AE
:10303400190419051905192519051905190519057D
:10304400190519041905190519041905190519058E
:103054001905190518E418E418E418E418E4190427
:1030640019041925214519255B0ABDD6BDD7BDD73D
:10307400CE17BD9542082125294621462146212601
:10308400212521252125212521252125212521250C
:1030940021252125212521252125212521452145BC
:1030A40021252125212521252125212521252126EB
:1030B40021252145212521252125212521252125BC
:1030C400214521252125214521252125212521258C
:1030D40021252105210521052125212521252145FC
:1030E400212521252125212521452125212521258C
:1030F40021252105212521252125212521252125BC
:10310400212521051905190418E418E419051905E0
:1031140019051905190519051905190419051905BC
:1031240019051905190419051904190519041904AF
:103134001905190519051925192521251905190533
:10314400190519051905190519051905190419058C
:1031540019041904190410E418E418E418E419040F
:10316400190419042145212552EABDD6BDD7C5F756
:10317400C617BD9541E82125214621252126212672
:10318400212521252125210521252125214521250B
:1031940021452125212521252125212521252125DB
:1031A40021252125212521252125212521252126EA
:1031B40021262125212521452125212521252125BA
:1031C40021252125212521252125212521252125CB
:1031D40021252125210521052125212521252125FB
:1031E400212521252145212521252125212521258B
:1031F400212521252125212521252125212521259B
:1032040021252125190518E418E418E419051905E0
:1032140019051905190519051904190519051905BB
:1032240019051905190519051905190419051904AC
:103234001905190519051905212519251925190532
:10324400190519051905190519051905190519058A
:103254001905190518E418E418E418E418E4190425
:10326400190419052145192552EBBDD6BDD6BDD784
:10327400CE17BD9541E82125214621462146214608
:1032840021252125212521252125214521252125EA
:1032940021252125212521252125214521252145BA
:1032A40021252125214521252125212521252125CA
:1032B40021252125212521252125212521252145BA
:1032C40021252125212521252145212521252125AA
:1032D400212521052105210521252125212521251A
:1032E400212521452145212521452125212521254A
:1032F40021252105212521252125212521252105DA
:1033040021052105190518E418E418E4190519051F
:1033140019051905190519041904190519051905BB
:1033240019051905190419051905190519051905AA
:103334001905190519051905190519051905190599
:103344001905190519051905190519051905190589
:1033540019051905190418E418E418E419041904E2
:10336400190419252125192452EABDD6BDD7BDD685
:10337400CE17BD9541E821252146214629462146FF
:1033840021252125212521252125214521252125E9
:1033940021452125212521252125214521252125B9
:1033A40021252125212521452125212521252125C9
:1033B40021252125212521252145212521252125B9
:1033C40021252125212521452125212521252125A9
:1033D4002125210521052105210521252125214519
:1033E4002146214621462145214521252125212506
:1033F40021252105212521252125212521252105D9
:10340400210521051905190418E418E419041905FE
:1034140019051904190519041905190519051905BA
:1034240019041905190519051905190519051905A9
:103434001904190519051905190519051905190599
:103444001905190519051905190519251905190568
:1034540019051905190418E418E418E418E4190402
:10346400190419052125192552EABDB6BDD7BDD7C2
:10347400CE17BD9541E82125214621462146212626
:103484002125210521252125212521252125212528
:103494002125212521252145214521252125214598
:1034A40021252125212521252125212521252125E8
:1034B40021252125212521452125212521252125B8
:1034C40021252125212521252125212521252125C8
:1034D4002125190521052105210521252125212540
:1034E4002145214521452125212521252125212548
:1034F40021252125212529252125212521052105D0
:10350400210521051905190418E418E419041905FD
:1035140019041905190519041905190419051905BA
:1035240019051904190519051905190419051905A9
:103534001905190519041905190519051905190598
:103544001905190519051905190519051925190567
:1035540019051904190418E418E418E418E4190402
:10356400190419052125192552CABDB6BDD6BDD7E2
:10357400CE17BD7539C821252146212621252125AF
:103584002125212521052125212521252125212527
:1035940021452125212521462125212521252125B6
:1035A40021252125212521252145212521252125C7
:1035B40021252125212521452125212521252125B7
:1035C40021252125212521252125214521252125A7
:1035D4002125210521052105210521252125212537
:1035E400214521452125212521252125292621255E
:1035F40021052125212529252125210521052125EF
:1036040021052105190518E418E418E4190519041D
:1036140019041904190519041904190419051905BB
:1036240019051905190519051905190519051905A6
:103634001905190519051905190519051905190596
:103644001905190519051905190519051905190586
:1036540019051905190418E418E4190418E41904DF
:10366400190521252145192552CABDB6BDD6BDD798
:10367400CE17BD7539C821252145212521252125B0
:1036840021252125212521252125214621452125C5
:1036940021252125214521452125212521252125B6
:1036A40021252125212521252125212521252125E6
:1036B40021252125212521252125212521252125D6
:1036C40021252125212521252125212521252125C6
:1036D40021252105210521052125212521252145F6
:1036E4002146214521452145212521252125212525
:1036F40021252125212521252125210521252105D6
:1037040021051905190418E418E418E41904190525
:1037140019051905190519051905190419051905B6
:1037240019051905190519051905190519051905A5
:103734001905190519051905190519051905190595
:103744001925190519051905190519051905190565
:1037540019051905190418E418E418E419041904DE
:10376400192521252146192552CABDB5BDD6BDD777
:10377400CE17B57539C82125214521252125214597
:103784002125212521252125212521252125212505
:103794002125214521462125212521452125214574
:1037A40021252125212521252125212521252125E5
:1037B40021252125212521252125212521252125D5
:1037C40021252125212521252125212521252125C5
:1037D40021052104210521252125212521252145F6
:1037E4002145214521452145212521252125210545
:1037F40021252125212521252105212521252125B5
:1038040021052105190418E410E418E41904190524
:1038140019051905190519051905190519051905B4
:1038240019051905190419051905190519051905A5
:103834001904190419041905190519051905190597
:103844001905190519051905192519051905190564
:10385400190419051904190418E418E418E41904DE
:1038640019252125214619254ACABDB6BDD7BDD67D
:10387400CE17B57539C72125214621252146212595
:1038840021252125212521252125212521252145E4
:103894002146214621462125212521452125212571
:1038A40021252125212521252125212521252125E4
:1038B40021252125212521252125212521252125D4
:1038C40021252125212521252125212521252125C4
:1038D40021252105210521252125212521452125D4
:1038E4002145214521252125212521252125210584
:1038F40021052125212521252125212521252125B4
:1039040021052105190518E418E410E41904190522
:1039140019051905190519051905190519051905B3
:1039240019041904190519051904190519051905A6
:103934001905190419051905190519051905190594
:1039440019051925192519251925192519251925A3
:10395400190519051905190418E418E418E41904DB
:1039640019051925214519254ACAB5B5BDD6BDD7AE
:10397400CE17B55539C72125214621452145212595
:1039840021252125212521252145214521252125C3
:103994002145214521462145212521252125212572
:1039A4002125212521252125212521052125212503
:1039B40021252125212521252125212521252125D3
:1039C40021252125212521252125212521252125C3
:1039D4002105210521052105212521252125212533
:1039E4002125292521252125292621252125212592
:1039F4002125212521252125212521252125212593
:103A0400212521052105190418E418E419041905D0
:103A140019051905190519051905190519051905B2
:103A240019041905190419051905190519051905A4
:103A34001905190519051905190519251905192552
:103A440019051905192519051925192519251925E2
:103A5400192519051905190418E418E418E41904BA
:103A640019252125214519254AAAB5B5BDD6C5D79D
:103A7400CE17B57439C72125214621252145214575
:103A840021252125212521252125214521452125C2
:103A94002125214621452145214521252125212571
:103AA40021252125212521252125212521252125E2
:103AB40021252125212521252125212521252125D2
:103AC40021252125212521252125212521252125C2
:103AD4002125210521052105212521252925292502
:103AE4002925212521252946294621252125212548
:103AF400212521252125212521252925212521258A
:103B04002125210419041905190418E419041905B7
:103B14001905192519051905190519051905190591
:103B240019051905190519051905190519051905A1
:103B34001905190519041905190519051905190592
:103B44001905190519051905190521251925192519
:103B54001925190519051904190419041904190456
:103B640021252145214619254AAAB5B5BDD7BDD77A
:103B7400CE17B57439A7212529462146214521258B
:103B840021252125212521252125212521452125E1
:103B94002145214521452145214521252125212551
:103BA40021252145212521252125212521252125C1
:103BB40021252125212521252125212521252125D1
:103BC40021252125212521252125214521252125A1
:103BD40021252125210521252125294529252125A1
:103BE4002125212521252925292621252125212590
:103BF4002125212521252125212529452125212569
:103C0400212521041904190418E418E419041905D8
:103C140019051905190519051905190519051905B0
:103C240019051905190519051905190519051905A0
:103C34001905190519041905190519051905190591
:103C44001905190519051905190519251925212518
:103C5400212519251905190419051904190419052B
:103C640021252145214621254AAAB5B5BDD7C5F749
:103C7400CE17B57439A721252146214521252125B3
:103C840021252125214521452125212521252125C0
:103C9400214521462145214521252125212521454F
:103CA40021252125212521252125212521252125E0
:103CB40021252125212521252125212521252125D0
:103CC40021252125212521252125212521252125C0
:103CD4002125212521052125212529462946294556
:103CE4002925212521252946294621252125212546
:103CF4002125212529252125292529452945212530
:103D04002125210518E418E4190418E419041905F7
:103D1400192519051905190519051905190519058F
:103D2400190519051905190519051905192519057F
:103D3400192519051905190519251905190519252F
:103D44001905190419051925190519251925192500
:103D5400212521251905190519051905190519051F
:103D640021252145214621254AA9B5B5BDD7BDF751
:103D7400CE17B57439C72125214621452125212592
:103D8400212521452145214521452145212521255F
:103D9400214521452145214521452125212521452F
:103DA40021252125212521252105212521252125FF
:103DB40021252125212521252125212521252125CF
:103DC400212521252125212521252145212521259F
:103DD4002105210521052125214629462946294574
:103DE4002125212521252925212521252125212597
:103DF40029252945294529452945294529252925AF
:103E040021252105190518E418E418E419041925D5
:103E14002125192519051904190519051905190468
:103E2400190519051905190519051905192519255E
:103E34001925190519041904190519051925212528
:103E440019251905190519251905192521252125CE
:103E5400192519051905190519041905190519252F
:103E640021252125214621254AAAB5B5C5D7C5D77F
:103E7400CE17B55439C721252146212521252145B1
:103E8400212521452145214521452146212521463C
:103E9400214621462145214521452145212521252C
:103EA40021252125212521252125212521252125DE
:103EB40021252125212521252125212521252125CE
:103EC400212521252125214521462145214521253D
:103ED4002125212521252125212529462946292554
:103EE4002125292521252125212521252925294566
:103EF4002945294529452945294529452925212596
:103F0400210521052105190418E418E419042125C3
:103F1400192519051905190519051905190519048E
:103F24001905190519051905190519051905212575
:103F3400212519051905190519052125192519051D
:103F440019051925192519251905190519251925DD
:103F54001925192519051905190519041905212506
:103F640021252145214621254AAAB5B5C5D7BDF746
:103F7400CE18B57439A7214621462125214521466D
:103F840021452145214621452145214521452145FC
:103F9400214621452145214521462146214521250A
:103FA40021252125212521252125212521252125DD
:103FB40021252125212521252125212521252125CD
:103FC400214521252125214521452146214521251C
:103FD40021252105212521252125212529252125C5
:103FE4002125292529252125212529252945294535
:103FF400294529452945294529452945294529256D
:104004002125210521051905190418E41904192588
:10401400192519051905190519051905190519058C
:10402400190519051905190519041905192519255D
:1040340021251905190419051905212519251925FD
:104044002125192519252125212519251905192584
:1040540021251925190519051905190519052125FC
:1040640021252145216621454AA9B5B5BDD7BDF70E
:10407400CE18B55439A7214621462125214521458D
:1040840021462145214621462146214621452145F7
:10409400214521252125214621452125212521456B
:1040A40021252125212521252125212521252125DC
:1040B40021252125212521252125212521252125CC
:1040C400212521252125212521452146212521257B
:1040D40021052104210521252145294529252925B5
:1040E40029252945294529252925294529462945BB
:1040F4002945294629462946294629452945294548
:10410400212521252105190519051904190521253C
:104114002125192519051905190519051905190563
:10412400190519051905190519041905192519255C
:104134001925190519051905190519051925212523
:104144002125212519251925192519251925212563
:1041540021252125192519051905190519252125B3
:1041640021252125216621254ACAB5B5BDD7BDF72C
:10417400CE18B55439A7214521462145214621258C
:1041840021452146214621452145214521452145F9
:10419400214521452145214521452125212521254B
:1041A40021252125212521252125212521252125DB
:1041B400212521452125214521252125212521258B
:1041C400212521252125214521452145212521255B
:1041D4002125212521252125214529452925294533
:1041E400294529452966294529252945294529455A
:1041F4002946296629662946294629462945294604
:104204002946212521042125190519041905190513
:10421400192519051925190519051905190519056A
:10422400190519051905190519051905192519255A
:1042340019052125192519051905212521252125CA
:104244002125212521252125212519252125212542
:1042540021252125192519051905190521252125AA
:1042640021252145214521254AA9B5B5BDD7C5D765
:10427400CE37B55439C7214621462146214621452A
:104284002146214621462145212521452145214517
:104294002146214521452125212521252125212589
:1042A40021252125212521252125212521252125DA
:1042B40021252125212521252125212521252125CA
:1042C40021252125212521252125212521252125BA
:1042D4002125212521252145294521252945294512
:1042E4002945294541E75A4839A6294529462946F9
:1042F4002945294529462946294629462966294624
:104304002946214521052104190519051905190511
:104314001925192519251905190519051905190549
:104324001905190519051905190519051905192579
:1043340019051925190519041905212519252125FA
:104344002125192521252125212521252125212541
:1043540021252125192519051905190521252125A9
:1043640021252125214621254A89B5B5BDD7BDF78B
:10437400CE37B55439C72146214621462146214628
:1043840029462146214521462145214521452146ED
:104394002145214521452145212521252145212549
:1043A4002125212521252125214521252145214579
:1043B40021452125212521252125212521252125A9
:1043C4002145212521252125212521252125212599
:1043D40021252125212529452945294529452945E1
:1043E400294531A672CA938D8B4C49E72966296603
:1043F4002946294529452945294629462945294546
:1044040029452125212521041905190519051925F1
:104414002125212519051904190519051905190559
:104424001905190519051905190519051905190598
:104434001905192519251905190519251905192508
:104444002125192521252125212521252125212540
:1044540021251905190519251905190519252125D8
:1044640021252125214621464AA9B5B5BDD7C5F741
:10447400CE17B55439C72146216621462146214627
:10448400294621462145214621462125214621460A
:104494002145214621452145212521252125214547
:1044A40021252125212521252125212521252125D8
:1044B4002125212521252145214521452125214548
:1044C4002125212521452125294529452125212548
:1044D40021252125292529452945294529452965B8
:1044E40029655A68938DA40EAC709BAD5228318611
:1044F40031862966294629462946294629452945DA
:104504002945212521251905190419051904190519
:104514001925212519251904190519041905190541
:104524001905192519051905190519051925190557
:10453400192519252125190519051905190519051F
:10454400192521252125192521252125212519254F
:10455400192521251925190519251925212521256F
:1045640021252125214621464AAAB5B5BDD7C5F73F
:10457400CE17B55439C72146214621462146214646
:1045840021462146214621462145214621462146F0
:104594002146214621462145214521452125212524
:1045A40021252125212521452125212521252125B7
:1045B40021252125212521252125212521252125C7
:1045C40021452125214521452946294521452125E6
:1045D400212529252945292529452965296529656F
:1045E40041C6832B93ADA40EB470B490A3EE62695C
:1045F4003986318631662965294529452945294564
:1046040021452125212519041905190519051925FF
:104614002125212519251905190519051905190536
:104624001905190519051905190519252125212526
:1046340019252125212519051905190519251905F6
:10464400212519252125212521252125192519254E
:10465400192519252125192519052125192521256E
:1046640021252125214621454AA9B5B5BDD7C5F740
:10467400C5D6B53439A721462166214621452146B0
:1046840021462146214621462146214621462145EF
:104694002146214621462146212521252125212562
:1046A40021252125212521252125212521252125D6
:1046B4002125214521252125212521252145214566
:1046C40021452146214621462946294621252125E1
:1046D4002125294529452925294529652966316644
:1046E4006AAA938D93ADA40EB470B490B470AC0E5A
:1046F4007ACA41C731663166296529652945294544
:1047040029452125212521041905190519052125E6
:10471400212519251925190519051904190519053E
:1047240019051925192519051925192519251925D5
:10473400212521251925192519051925212519258D
:10474400212521252125212521251925192519254D
:104754001925212519251925192521252125212545
:1047640021252145214621254AA9B5B5BDD7C5F73F
:10477400CE37B55439C721452966214621462946F5
:1047840029462146214621462146214621462146E5
:104794002145214621452146214521252145212523
:1047A4002145212521252145212521252125212595
:1047B4002125212521452125212521452145212565
:1047C40021452146214621462946294629462125B7
:1047D40029252945294529452966318629664A28F6
:1047E4008B6D938D9BCEA42FB490B490B490AC6F8A
:1047F400AC0E8B2B5208316631663166296529452A
:1048040029452925212521041904190519051925E6
:104814002125212519251905190419041905190536
:1048240019051905212521251925192519252125BC
:10483400192521252125192519052125212521257C
:10484400212521252125212521251925212521253C
:104854002125192519251925192521252125212544
:1048640021452145214621254AAAB5B5BDD7BDF725
:10487400CE37B55439C721462966294621462146F3
:1048840021462146214621462146214621462146EC
:104894002145214621462146214621452125212520
:1048A4002125212521452145212521252125212594
:1048B4002125212521452145214521462146214502
:1048C400214629462146294629462946294629259D
:1048D40029252945294529462966296631A672EBE9
:1048E400938D9BADA40EAC6FB4B0BCB0BCB0B4900F
:1048F400AC4FAC2E9BAD6269318631662965296562
:104904002945292521252104190419041904190507
:104914002125212519251904190419041904190537
:1049240019051925192519251925212521251925A3
:10493400212521252125212521251925212521254B
:104944002125212521252125212521252125212533
:10495400212519251925192519251925212521254B
:1049640021252146294621264AA9B5B5BDD7C5D753
:10497400CE37B55439C729462966294621462146EA
:1049840029462146214621462146214621462146E3
:1049940021462146294621462946294629462946B3
:1049A400292529462946294629252946212521251F
:1049B40021252125214521462145214621462146FF
:1049C4002146294629462946296629662946292554
:1049D4002945294529452966316629665A49938D11
:1049E40093AD9BEEAC4FB490BCB0BCD1BCB1BC9009
:1049F400B490AC4FAC0EA3EE6AAA31862965296542
:104A04002945292521052104210421041904190417
:104A1400212521252125190419041904190419042F
:104A24001925212521251925212521252125212562
:104A3400212521252125212521251925212521254A
:104A4400212521252125212521251905212521255A
:104A5400212521251925192519251925192521254A
:104A640021262146214621264AA9B5B5BDD7BDD761
:104A7400CE37B55439C729462966214621462946E9
:104A840029462146294621462146294621462946CA
:104A940021462146214621462146294629462945C3
:104AA40029252945294529462946294629462125D6
:104AB40021252145214621462146214621462146DC
:104AC4002146294629462946294629662946294553
:104AD4002945294529463166316641E7834C93AD22
:104AE4009BCEA40FB490BCB0BCD1BCD1BCD1BCB1E2
:104AF400B490B490AC4FA42EA3CD6A6931863166CC
:104B040029452125212521042104210421042104EE
:104B1400212519251925190419041904190419053D
:104B24001904192521251925192521252125212592
:104B34002145214521252125212521252125212501
:104B44002145212521252125212519251925192529
:104B54002125212519251925192519251925212549
:104B640021462146214621264AA9B5B5BDF7BDF700
:104B7400CE17B55439C729462966294629462946F8
:104B840029462946296629462146214629462146A1
:104B940021462146214629462946294629452945B3
:104BA400294529452946294629462946294629468B
:104BB40029462146214621462146214629462946A1
:104BC400294629462946294629662946294629454A
:104BD400294529463166318639A672EB938D93AE09
:104BE400A3EEAC50B4B0BCB0BCD1BCD1BCD1BCD130
:104BF400BCB1B490B490AC4FA40EA3CE624831863D
:104C040029662945212521052105210421041904AA
:104C14001904212521251904190419041904192535
:104C24001904192521252125192519252125214571
:104C340021452145214521252125212521252145C0
:104C44002145212521252125212519251925192528
:104C54002125212519251925192521252125214617
:104C640021462146214621264AAAB5B5BDF7BDF7FE
:104C7400CE18B55439C729462966294629462966D6
:104C84002946296629662966294629462946294648
:104C940021462146214629462946294629462945B1
:104CA4002946294629662946294629462946294668
:104CB4002946294621462946214621462146294698
:104CC400296629662946296629662946294529250A
:104CD400294629663186318662AA938D938D93AED7
:104CE400A40FB470BCB0BCD1BCD1BCD1BCD1C4F194
:104CF400BCD1BCB1BCB0B46FAC2FA3EE938D522821
:104D04003166294521252125212521252105210437
:104D140021042125212521252125210521251925A8
:104D24001924212519252125212521252125212560
:104D3400214521252145214521252125214521459F
:104D44002145214521252125212519251925192507
:104D540021252146212519252125214621462146A3
:104D640021462146216621464AAAB5B5C5D7C5D7ED
:104D7400CE18B55439C729662966214629462966BD
:104D840029662946296629662966294629662966E7
:104D9400294629462146294629462966294629467F
:104DA40029462946296629662966296629662966C7
:104DB4002946294621462146294629462946296667
:104DC40029662966294629662966294629452945E9
:104DD4002966316629664A288B4C938D93AD9BAE28
:104DE400AC2FB4B0BCD0BCD1BCD1BCD1BCF1BCF1F3
:104DF400BCF1BCD1BCB1B490AC2FA40EA3EE936DA6
:104E040049E8294529252125212521252105210593
:104E1400210521252125212521252125212521059E
:104E24001925212521252125212521252125212556
:104E3400214521452146214621252125214521457C
:104E440021452145214521452125212521251925B6
:104E5400192521462146214621462146214621463F
:104E640021462146296621464AA9B5B5BDF7BDF7B5
:104E7400CE18B55539C729462966294629662966B3
:104E840029662966296629662946296629662966C6
:104E94002966296629662146214629462946296626
:104EA4002946294629662946296629662966294606
:104EB4002946294629462946294629462966296636
:104EC4002966296629462946294629462946294527
:104ED4003166318641E77B0B8B6D938D93AD9BEEF1
:104EE400AC70BCB0BCD1BCD1BCD1C4F1BCF1BCF180
:104EF400BCF1BCD1BCB1B490AC4FA40FA3CEA3CE33
:104F04007ACA3186294529252925212521252105E6
:104F1400212521252125212521252125212521255D
:104F2400212521252125212521252125212521452D
:104F3400214521452146214621462125212521457A
:104F4400214521452145214521452126214621256B
:104F54002125214621462146214621462146214636
:104F640021462146216621464AA9B5B5BDF7BDF7BC
:104F7400CE38B55539C72946296629662966296672
:104F840029662966296629662966296629662966A5
:104F940029662966296629462146294629662966FD
:104FA40029462966296629662966296629662946C5
:104FB4002966296629662966296629662966296675
:104FC4002966296629662946294629462946294605
:104FD400318631866AAA8B2C8B4D938D93ADA40FA9
:104FE400B490BCB1BCD1BCD1BCD1BCD1BCD1BCD1BE
:104FF400BCD1BCD1BCB1B490AC4FA3EEA3CE9BAD9D
:10500400936C49E8296629662945294521252125E6
:10501400212521252125212521252125210521059C
:10502400212521252125212521252125212521452C
:105034002146214621462146214621462145214635
:105044002146214521462145214521452125212669
:105054002146214621462146214621462146214614
:1050640021462146296621464AA9B5B5BDF7BDF7B3
:10507400C638B57539C72946296629662966296659
:1050840029662966296629662966296629662966A4
:1050940029662966296629662966294629462966D4
:1050A40029462966294629662966296629662966C4
:1050B4002966296629662966296629662966296674
:1050C4002966318629662946294629662966316674
:1050D400318641E77AEB832C8B2C8B4D93ADAC4F0F
:1050E400B4B0BCB1BCD1BCB1BCD1BCD1BCB1BCB1FD
:1050F400BCB1BCB0B490B470AC2FA3EE9BAD936DB7
:10510400934C6A693186316629452145212521253B
:10511400212521252125212521252125212521255B
:1051240021252125212521252125214521452145EB
:105134002146216621462146214621462146214613
:105144002146214621462146214621462146214623
:105154002146214621462146214621462146214613
:1051640021462166296621464AA9B5B5BDF7BDF792
:10517400C617B57539C72966296629662967296757
:105184002966296629862966296629662966296683
:1051940029662966296629662966296629662946B3
:1051A40029462966296629662966296629662966A3
:1051B4002966296629662966316631663166316653
:1051C4003166316729662966294629663186318622
:1051D40031A65A6982EB830B832C8B2C9BCEAC4F6C
:1051E400B490BCB1BCB0BCB0BCB0BCB0B490B490D2
:1051F400B490B490B490B46FAC2FA3CE938D8B2C99
:105204008B0B7ACA39A62966294621252125212511
:10521400212521252125212521252125212521255A
:1052240021252125212521452145214521462146A8
:105234002146214621462146214621462146214632
:105244002146214621462146214621462146214622
:105254002146214621462146214621462146214612
:1052640021662166296621464ACAB5D5BDF7BDF730
:10527400C618B57539E82966296629662967296734
:10528400296729872987296729662966296629675D
:10529400298729672966296729662967296629468E
:1052A400296629663166296631663166316631665A
:1052B4003166316631673166316631663166316631
:1052C40031662966316731662966316631A73187CF
:1052D40041C76A8A7ACB7AEB82EB8B4CA40EB46F0B
:1052E400B490BCB0B490B490B490B470B490B470B2
:1052F400B470B46FAC4FAC4FA40FA3CE938D8B0B93
:1053040082CA7ACA5208316629662945212521258F
:105314002125212521252125212521252125214539
:105324002145214521452125212521452146214687
:1053340021462166216629662146214621462146C9
:105344002146214621462146214621662146214601
:105354002166214621662166214621462146216691
:10536400216621662966214652CAB5D5BDF7C617FE
:10537400C618B57539E829662987298729872987B1
:1053840029872987298729872967298729872987B9
:10539400298729872967298729662967296729662B
:1053A4002966296629662966296629663166316671
:1053B4003166296629662966316631663166318728
:1053C40031873166318629662966316631873186AF
:1053D40049E76A6A72AA72AA72CA8B6CAC4FB46F3C
:1053E400B490B490B490B490B470B470B46FAC4F43
:1053F400AC4FAC4FAC4FAC2FA40E9BCE936C8B0B2D
:105404007AAA72896268398629662945294521253F
:105414002125212521252125212521252125212558
:105424002125214521462146214521452146216644
:105434002166296629662966296621662146214650
:105444002166216621462166214621662166214680
:105454002166216621662166216621662966216608
:10546400296621662987214652CAB5D5BDF7BE17DC
:10547400C638B57539E82986298731873187298760
:105484002987298729872987298729872987298798
:105494002987298729872967296729872967296708
:1054A4002966298629662966296629662966318737
:1054B40031662966296629662966318731873187ED
:1054C400318731872986318629663186318731874C
:1054D4004A0862696A696A697AEA9BEEAC4FB490D9
:1054E400B490B470B470B470B46FAC4FAC4FAC4FF4
:1054F400AC4FAC4FAC4FA42EA3EE9B8D936C8B2B77
:105504007ACA6A68624849C62966294629452145F6
:1055140021252125214521252145214521452125D7
:105524002125214521452146216621462146216622
:1055340029662966296629662966296629662966EF
:1055440029662966296629662966216621662166F7
:1055540021662166216621662166296629662966F7
:10556400296621662987216652CAB5D6BDF7BDF7DB
:10557400C618B5753A0829662987298731A731875E
:10558400318731873187298729872987298729877F
:105594002987298729872987298729872987298787
:1055A400298729862966296629662966296629663E
:1055B40029662966296629663166318731873187EC
:1055C40031872986298631663166318631A739A724
:1055D40052085A485A2862698B6CA42FAC6FB46F76
:1055E400B470B470B46FAC4FAC4FAC4FAC4FAC2F85
:1055F400AC2FA42EA42FA40EA3ED9B8D934C8B2B28
:1056040082CA6A685A0751E73186296629452945BD
:105614002125214521452145294529452945294556
:1056240021452146214621462966296621462166CF
:1056340021662966296629662966296629662966F6
:1056440029662966296629662966216621662166F6
:1056540021662166216621662966296629662966EE
:105664002966298729A7298752EAB5D6BDF7BDF748
:10567400C617B5754208298731A7318731A7318705
:1056840031A731873187298729872987298729875E
:1056940031A73187318731A7298729872987298726
:1056A400298729872966296629862966296629661C
:1056B40029662966296629663187318731873186CB
:1056C4002986318629863186316631A731A739C7C3
:1056D4004A0852085A2872C99BEEAC4FAC4FAC4FE3
:1056E400B46FB46FAC4FAC4FAC4FAC4FAC4FAC2FAE
:1056F400AC2FA40EA3EEA40EA3EE9B8D934C8B2B88
:1057040082EA6A8951E749C739A6296629462945A3
:105714002145214529452945294529452945294624
:105724002146294629662966296629662966296645
:1057340029662966296629662966296629662966ED
:1057440029662966296629662966298721662966C4
:105754002966296629872987298729872987298707
:1057640029A729872986216652EBBDD6BDF7BDF747
:10577400C618B5754208298731A731A731A731A7C3
:1057840031A731A731A731A731A731A731A7318775
:10579400318731A731A731A731A7318729872987D5
:1057A4002987298729872987298629862966298699
:1057B40029862966296629663187318731873186AA
:1057C4003186318631863186318631A731A739C792
:1057D40049E749E75A488B8CA42EAC2EAC4FAC4F0A
:1057E400B46FAC4FAC4FAC4FAC4FAC4FAC2FAC2FF5
:1057F400A40EA40EA3EEA3EEA3EE9BCD936C8B4B51
:10580400830B7AC9622741A63986318629662945E0
:105814002945294529452945294629452946294611
:105824002146296629662966296629662966296624
:1058340029662966296629662966296629662966EC
:105844002967298729872987298729662966298736
:105854002987298729872987298729A729A7298784
:10586400298631E75B0C7C2F94F2BDF7C617C61767
:10587400CE38B575420929A73187318731A731C898
:1058840031C831A831A731A731A731A731A731A732
:1058940031A731A731A731A731A731A7318729878C
:1058A4003187318731872987296629873187298676
:1058B400298631872987296631862986318631866A
:1058C4003186318631863186318631A731A739A7B1
:1058D40041C751E77AEAA40DA42EAC2EAC4FB46FA5
:1058E400B46FB44FAC4FAC4FAC4FAC4FAC2FAC2FEC
:1058F400A40EA3EEA3EDA3EDA3EDA3ED9BAD936CDA
:10590400832B82EA726949C6318631662966294544
:10591400294529452946294529452946294629460F
:1059240029462966296629662966298629662966FB
:105934002966296629862986296629862967298769
:1059440029872987298729872987298729872987D3
:10595400298729A731A731A829A7298731C74A8AC6
:1059640073CE9D33BE17C638BDD6BDF7C617C5F76F
:10597400C638B59542294249634D632C426931A723
:1059840031C839C831C831C731C731C731A831A886
:1059940031A831A831A731A731A831A731A731A740
:1059A40031A731A7318731873187318731873186F4
:1059B4003186318731873187298629662966318680
:1059C4003186318731873186318639A739A739A79E
:1059D40039C75A689BCCA40EAC2EAC2EAC6FB46FF6
:1059E400B46FB46FB46FAC4FAC4FAC4FAC2FAC2EA4
:1059F400A40EA3EEA3ED9BCDA3EDA3ED9BCD938DC0
:105A04008B4C830B7AAA622839862966316629660B
:105A140029452945294629662946296629662946AC
:105A2400296629662966298629862986298629865A
:105A340029862986298629872987298729872987E5
:105A4400298729872987298729A729A731A731C821
:105A540031C831C731A731C742696B8E94B2B5B62C
:105A6400C637C638C617BE17B5D6BDF7C617BE1794
:105A7400C638B59542495B2CC617CE58B5D68C713D
:105A84004A8A31C831A831A731C831E831E831C870
:105A940031C831C831C831C831C831C831C831A75B
:105AA40031A731A731A731A731A731A73187318772
:105AB4003187318731873187318729862986318635
:105AC4003187318731873187318739A739A739A79A
