:020000040800F2
:10000000000001209D100008ED100008ED10000810
:10001000ED100008ED100008ED10000800000000D1
:10002000000000000000000000000000ED100008CB
:10003000ED10000800000000ED1000080910000895
:1000400000000000ED100008ED100008ED100008A1
:10005000ED100008ED1000087D0700089D0700085E
:10006000BD070008DD070008FD070008ED100008C7
:10007000ED100008ED100008ED100008ED1000086C
:10008000ED100008ED100008ED1000080000000061
:100090000000000000000000000000001D08000833
:1000A000ED100008ED100008ED100008ED1000083C
:1000B000ED100008ED100008ED100008ED1000082C
:1000C000ED100008ED100008ED100008ED1000081C
:1000D000ED100008ED100008ED1000080000000011
:1000E000D1080008ED100008ED1000080000000025
:1000F000000000000000000000000000ED100008FB
:1001000000000000ED100008ED100008ED100008E0
:1001100000000000000000000000000000000000DF
:10012000ED100008ED100008ED100008ED100008BB
:10013000ED100008000000000000000000000000BA
:10014000000000000000000000000000ED100008AA
:10015000ED100008ED100008ED100008ED1000088B
:10016000ED100008ED100008000000000000000085
:10017000000000000000000000000000000000007F
:10018000000000000000000000000000000000006F
:04019000ED10000866
:1001940010B5054C237833B9044B13B10448AFF3BD
:1001A40000800123237010BDA49A002000000000E9
:1001B4003811000808B5034B1BB103490348AFF3DA
:1001C400008008BD00000000A89A00203811000833
:1001D40080B584B000AF786039600023FB737B681E
:1001E4009B78BB737B685B787B737B681B783B7302
:1001F40007F10C031A49184600F082F97B681B7852
:10020400022B10D0022B13DC002B02D0012B05D0C3
:100214000EE00021002000F023FE0AE0012100206E
:1002240000F01EFE05E00221002000F019FE00E0AF
:1002340000BF7B6818787B685B780022194600F061
:10024400B1FB7B6818787B685B780022194600F064
:100254000FFD044A3B68136000BF1037BD4680BDE4
:1002640085020008C09A002080B400AF034B1B68CD
:100274001846BD465DF8047B704700BFC49A002051
:1002840080B582B000AF00237B60494B1B78002B04
:1002940007D1474B01221A7043F6982000F0A0FEC4
:1002A40081E0434B1B78012B20D100F075FE786070
:1002B4007B6843F2C722934208D97B6843F69822AD
:1002C400934203D83A4B02221A700CE07B6842F640
:1002D400F722934207D97B6842F6E062934202D840
:1002E400344B1B68984700F06FFE5CE0304B1B7882
:1002F400022B43D100F050FE78607B68B3F57A7F1F
:1003040012D37B6840F2DC5293420DD82A4B93F906
:1003140000301A4601239340DB431A46274B1B68DF
:100324001340264A136014E07B68B3F5FA6F10D3C8
:100334007B6840F6C41293420BD81F4B93F90030EC
:100344001A46012393401A461C4B1B6813431B4A4D
:100354001360194B93F90030DBB2013BDBB25AB2A4
:10036400154B1A70144B93F90030B3F1FF3F02D1CF
:100374000F4B05221A7000F027FE14E00C4B1B787B
:10038400052B10D10C4B1F221A70094B00221A7036
:10039400084B1B68002B03D0064B1B68984702E0F0
:1003A400074B01221A7000BF0837BD4680BD00BF4D
:1003B400C99A0020C09A002003000020C49A00209B
:1003C400C89A002080B582B000AF03460A46FB718C
:1003D4001346BB71FB79022B10D0022B13DC002BCC
:1003E40002D0012B05D00EE00021002000F038FDE2
:1003F4000AE00121002000F033FD05E00221002085
:1004040000F02EFD00E000BFB979FB790122184607
:1004140000F0C8FAB979FB790022184600F01CFBF9
:10042400B979FB790022184600F068FBB979FB79A9
:100434000022184600F0BCFB00BF0837BD4680BD53
:1004440080B584B000AF78600023FB730023FB7396
:100454000CE0FB7B7A681344187AFB7B7A68D35CE4
:100464001946FFF7AFFFFB7B0133FB73FB7B072BC5
:10047400EFD900BF00BF1037BD4680BD80B588B03E
:1004840000AFF860B9607A600023FB610023FB765B
:100494000023FB612AE00023FB7618E0FB7EFA6868
:1004A4001344187AFB7EFA68D15CBA68FB6913447A
:1004B4001B781A46FB7E42FA03F3DBB203F0010316
:1004C400DBB21A4600F074FBFB7E0133FB76FB7E45
:1004D400072BE3D91C237B6102E07B69013B7B6131
:1004E4007B69002BF9D1FB690133FB61FA697B68F5
:1004F4009A42D0D300BF00BF2037BD4680BD000064
:1005040080B582B000AF786039607B68DB78002BFF
:1005140002D0012B0CD017E07A4B1B687A68527812
:10052400114601228A401146764A0B4313600BE0C0
:10053400744B5B687A685278114601228A401146EE
:10054400704A0B43536000BF7B685B7819466E4A60
:100554003B6842F821307B689B78022B36D0022B13
:100564004BDC002B02D0012B18D046E0654B9B6876
:100574007A685278114601228A401146614A0B4337
:100584009360604BDB687A685278114601228A4096
:10059400D24311465B4A0B40D3602FE0594BDB68D2
:1005A4007A685278114601228A401146554A0B4313
:1005B400D360544B9B687A685278114601228A4072
:1005C400D24311464F4A0B40936017E04D4B9B6852
:1005D4007A685278114601228A401146494A0B43EF
:1005E4009360484BDB687A685278114601228A404E
:1005F4001146444A0B43D36000E000BF0E210220A1
:1006040000F02EFC7B685B78032B0ED83F4B1B68F5
:100614007A68127811467A685278920001FA02F2E6
:1006240011463A4A0B43136043E07B685B78072B1F
:1006340012D87B685B78032B0ED9354B1B687A681C
:10064400127811467A685278920001FA02F2114641
:100654002F4A0B4313602CE07B685B780B2B12D87A
:100664007B685B78072B0ED92A4B1B687A68127853
:1006740011467A685278920001FA02F21146254A2C
:100684000B43136015E07B685B780F2B11D87B68F4
:100694005B780B2B0DD9204B1B687A6812781146B6
:1006A4007A685278920001FA02F211461A4A0B4310
:1006B40013607B685B78042B08D87B685B7806330F
:1006C400DBB25BB2184600F033FB16E07B685B7864
:1006D400042B07D97B685B78092B03D8172000F01B
:1006E40027FB0AE07B685B78092B06D97B685B787B
:1006F4000F2B02D8282000F01BFB00BF0837BD4693
:1007040080BD00BF003C0140CC9A00200838014065
:100714000C380140103801401438014080B483B0D3
:1007240000AF0346FB71084B5B69FA79012101FABA
:1007340002F21146044A0B43536100BF0C37BD4615
:100744005DF8047B704700BF003C014080B483B077
:1007540000AF0346FB71074B5A69FB7922FA03F396
:10076400DBB203F00103DBB218460C37BD465DF87B
:10077400047B7047003C014080B500AF054B1B680B
:10078400002B02D0034B1B6898470020FFF7C6FFDD
:1007940000BF80BDCC9A002080B500AF054B5B68DC
:1007A400002B02D0034B5B6898470120FFF7B6FF8C
:1007B40000BF80BDCC9A002080B500AF054B9B687C
:1007C400002B02D0034B9B6898470220FFF7A6FF3B
:1007D40000BF80BDCC9A002080B500AF054BDB681C
:1007E400002B02D0034BDB6898470320FFF796FFEA
:1007F40000BF80BDCC9A002080B500AF054B1B69BB
:10080400002B02D0034B1B6998470420FFF786FF97
:1008140000BF80BDCC9A002080B500AF0520FFF753
:1008240095FF0346002B0AD0274B5B69002B02D0AF
:10083400254B5B6998470520FFF770FF42E00620CF
:10084400FFF784FF0346002B0AD01F4B9B69002B44
:1008540002D01D4B9B6998470620FFF75FFF31E0EC
:100864000720FFF773FF0346002B0AD0164BDB6902
:10087400002B02D0144BDB6998470720FFF74EFF8B
:1008840020E00820FFF762FF0346002B0AD00E4B3E
:100894001B6A002B02D00C4B1B6A98470820FFF7F9
:1008A4003DFF0FE00920FFF751FF0346002B09D05D
:1008B400054B5B6A002B02D0034B5B6A9847092007
:1008C400FFF72CFF00BF80BDCC9A002080B500AF9D
:1008D4000A20FFF73BFF0346002B0AD0304B9B6AEC
:1008E400002B02D02E4B9B6A98470A20FFF716FF75
:1008F40053E00B20FFF72AFF0346002B0AD0284BB6
:10090400DB6A002B02D0264BDB6A98470B20FFF7EB
:1009140005FF42E00C20FFF719FF0346002B0AD025
:100924001F4B1B6B002B02D01D4B1B6B98470C20DD
:10093400FFF7F4FE31E00D20FFF708FF0346002B1C
:100944000AD0174B5B6B002B02D0154B5B6B98479F
:100954000D20FFF7E3FE20E00E20FFF7F7FE03462D
:10096400002B0AD00E4B9B6B002B02D00C4B9B6BC5
:1009740098470E20FFF7D2FE0FE00F20FFF7E6FEA8
:100984000346002B09D0064BDB6B002B02D0044B33
:10099400DB6B98470F20FFF7C1FE00BF80BD00BF8F
:1009A400CC9A002080B483B000AF0346FB710B46A1
:1009B400BB7113467B71FB79022B2CD0022B3DDCDF
:1009C400002B02D0012B13D038E0204B1B68BA79DE
:1009D4005200032101FA02F2D24313407979BA7921
:1009E400520001FA02F21146184A0B43136026E042
:1009F400174B1B68BA795200032101FA02F2D24361
:100A040013407979BA79520001FA02F21146104A78
:100A14000B43136013E00F4B1B68BA795200032198
:100A240001FA02F2D24313407979BA79520001FAF9
:100A340002F21146074A0B43136000E000BF00BFF7
:100A44000C37BD465DF8047B704700BF00000240D0
:100A5400000402400008024080B483B000AF0346A3
:100A6400FB710B46BB7113467B71FB79022B28D0BB
:100A7400022B37DC002B02D0012B11D032E01D4BAE
:100A84001B68BA79012101FA02F2D2431340797941
:100A9400BA7901FA02F21146164A0B43136022E0B6
:100AA400144B1B68BA79012101FA02F2D2431340B4
:100AB4007979BA7901FA02F211460E4A0B431360AE
:100AC40011E00D4B1B68BA79012101FA02F2D243FD
:100AD40013407979BA7901FA02F21146064A0B43B6
:100AE400136000E000BF00BF0C37BD465DF8047B17
:100AF400704700BF040402400408024080B483B07D
:100B040000AF0346FB710B46BB7113467B71FB7947
:100B1400022B2CD0022B3DDC002B02D0012B13D056
:100B240038E0204B1B68BA795200032101FA02F223
:100B3400D24313407979BA79520001FA02F211468C
:100B4400184A0B43136026E0174B1B68BA7952000E
:100B5400032101FA02F2D24313407979BA7952009F
:100B640001FA02F21146104A0B43136013E00F4BD3
:100B74001B68BA795200032101FA02F2D2431340EE
:100B84007979BA79520001FA02F21146074A0B4305
:100B9400136000E000BF00BF0C37BD465DF8047B66
:100BA400704700BF080002400804024008080240E1
:100BB40080B483B000AF0346FB710B46BB71134690
:100BC4007B71FB79022B2CD0022B3DDC002B02D055
:100BD400012B13D038E07B79012B05D1BB7901229D
:100BE4009A40204B1A6031E07B79002B2ED1BB79DF
:100BF4004FF480329A401B4B1A6027E07B79012B1B
:100C040005D1BB7901229A40174B1A6020E07B7909
:100C1400002B1DD1BB794FF480329A40124B1A60DD
:100C240016E07B79012B05D1BB7901229A400F4B49
:100C34001A600FE07B79002B0CD1BB794FF4803222
:100C44009A400A4B1A6005E000BF04E000BF02E0CE
:100C540000BF00E000BF00BF0C37BD465DF8047B59
:100C6400704700BF180002401804024018080240F0
:100C740080B483B000AF0346FB710B46BB711346CF
:100C84007B71FB79022B2CD0022B3DDC002B02D094
:100C9400012B13D038E0204B1B68BA795200032192
:100CA40001FA02F2D24313407979BA79520001FA77
:100CB40002F21146184A0B43136026E0174B1B68D7
:100CC400BA795200032101FA02F2D243134079792E
:100CD400BA79520001FA02F21146104A0B4313602A
:100CE40013E00F4B1B68BA795200032101FA02F298
:100CF400D24313407979BA79520001FA02F21146CB
:100D0400074A0B43136000E000BF00BF0C37BD4629
:100D14005DF8047B704700BF0C0002400C040240E5
:100D24000C08024080B500AF00F0DAF800BF80BDC7
:100D340080B483B000AF0346FB7197F90730002BF2
:100D44000BDBFB7903F01F02074997F907305B09B6
:100D5400012000FA02F241F8232000BF0C37BD46FF
:100D64005DF8047B704700BF00E100E080B400AF91
:100D7400144B1B68134A43F001031360114B1B68A7
:100D8400104A23F4803313600E4B1B680D4A23F082
:100D94008073136000BF0B4B1B6803F00203002B2E
:100DA400F9D0094B1B68084A23F001031360064B72
:100DB4001B68054A23F00203136000BFBD465DF8BB
:100DC400047B7047003802400838024080B400AF0A
:100DD400084B1B68074A23F0F0031360054B1B689C
:100DE400044A43F08003136000BFBD465DF8047BF2
:100DF400704700BF0838024080B400AF074B1B683F
:100E0400064A23F4E0531360044B044A1B6813603E
:100E140000BFBD465DF8047B704700BF0838024040
:100E240080B400AF074B1B68064A23F46043136089
:100E3400044B044A1B68136000BFBD465DF8047B85
:100E4400704700BF0838024080B500AFFFF78EFF3F
:100E5400FFF7BCFFFFF7D0FFFFF7E2FF00BF80BD45
:100E640080B483B000AF03460A46FB711346BB71DE
:100E7400FB79022B1CD0022B25DC002B02D0012B8A
:100E84000BD020E0134B1B68BA79012101FA02F25E
:100E94001146104A0B43136016E00F4B1B68BA79D6
:100EA400012101FA02F211460B4A0B4313600BE0D5
:100EB4000A4B1B68BA79012101FA02F21146074A6A
:100EC4000B43136000E000BF00BF0C37BD465DF864
:100ED400047B7047303802404038024044380240B6
:100EE40080B483B000AF00237B6005233B600D4BCF
:100EF400DB687B607A684FF6FF0313407B603B68D6
:100F04001A027B68134343F0BF6343F400337B60EE
:100F1400044A7B68D36000BF0C37BD465DF8047B90
:100F2400704700BF00ED00E080B400AF0B4B1B68BE
:100F34000A4A23F004031360084B1B68074A23F092
:100F440002031360054B1B68044A43F0010313605A
:100F540000BFBD465DF8047B704700BF10E000E0B1
:100F640080B400AF0B4B1B680A4A23F001031360E3
:100F7400084B00225A60074B00229A60054B1B68FD
:100F8400044A23F00203136000BFBD465DF8047BEE
:100F9400704700BF10E000E080B483B000AF0023CE
:100FA4007B6000233B60074B5A68064B9B68D31A4F
:100FB4007B607B683B603B6818460C37BD465DF838
:100FC400047B704710E000E080B400AF034B0022C4
:100FD4009A6000BFBD465DF8047B704710E000E0F6
:100FE40080B483B000AF7860054A7B685360044BDB
:100FF40000229A6000BF0C37BD465DF8047B704741
:1010040010E000E080B500AF074B1B78DBB2002B8B
:1010140001D1FFF7A5FF054B1B68002B02D0034B42
:101024001B68984700BF80BD109B00200C9B0020CC
:1010340080B500AFFFF718F90346064A934206D17C
:10104400054B1B681A4605490548FFF717FA00BF08
:1010540080BD00BF27D8D922A09A00201400002008
:101064000400002080B500AF03490448FFF7B0F83E
:101074000348FFF7E5F9FEE73510000800000020FB
:101084000400002080B500AFFFF7DEFEFFF74CFF41
:10109400FFF748FE00BF80BD0D488546FFF7F2FF0D
:1010A4000C480D490D4A002302E0D458C4500433BF
:1010B400C4188C42F9D30A4A0A4C002301E0136095
:1010C4000432A242FBD300F011F8FFF7CBFFFEE796
:1010D4000000012000000020A49A002058110008FC
:1010E400A49A0020149B0020FEE7000070B50D4D6B
:1010F4000D4C641BA4100026A64209D10B4D0C4CC8
:1011040000F018F8641BA4100026A64205D170BD97
:1011140055F8043B98470136EEE755F8043B9847E9
:101124000136F2E750110008501100085011000870
:1011340054110008F8B500BFF8BC08BC9E467047BF
:0C114400F8B500BFF8BC08BC9E46704720
:04115000B9010008D9
:0411540095010008F9
:101158000000011F00010203040506070101010147
:10116800010101017E7C7D7D7F80807F8080808081
:1011780081807F7F7E7E7F7E7D7B7B7B7A7A7A799A
:10118800797A7B7B7B7C7B7C7C7C7C7B7A7A7A7AA9
:101198007A7A797A7A7A7A7A7A7A7A7A7A7A7A7AA8
:1011A8007A7A7B7C7C7C7C7C7D7E7D7D7C7B7B7B7A
:1011B8007B7B7B7A7A797879797978797878787994
:1011C8007A7A7B7C7C7D7E7F7F80807F7F7F7F7F3C
:1011D8007F7F807F7F808080808181818182828201
:1011E800828282838485858686878788888888899D
:1011F8008989898887878685848484838382828293
:1012080083848485858687878888898A8A89898965
:101218008988888887868686868584848484848469
:101228008484858686868687868686858585838264
:101238008180807F7E7E7D7E80817F7E7E7F8080B4
:1012480080818282828282828281807F7F7D7F7E8E
:101258007A797979726F7277787975707277797827
:10126800767273777977726F72706D6D70716D6960
:10127800696D71757373767C80817D7C7E7F7F7CE0
:101288007674767773747A797474797C81807A78D5
:101298007A7F84817C7B7F82817E7A7C7D7E7C8262
:1012A80086848185878B8A817B7A7E86877E797A18
:1012B8007E82868283848787878B8F8F8B8D8E93A0
:1012C800918A8586898E8B838287898D8B8685888E
:1012D8008B8787888B8584868E928E8A8A90979A48
:1012E800938E8B8F8F918C88868A88858787848058
:1012F800838A908B8A8787888C867E7A7D8384818F
:101308007C7C7E817F8386877F7D8083837C736FEF
:10131800717879736E6C6D717570707175797B7F8A
:10132800827F7A7A7E85837B7471757A75706D6B2E
:101338006A6F6D6D6D6C6F7173767974757A82866C
:10134800827A7A7C8085807A767674726862616245
:1013580064666A6E72717780888B8884858C9493B2
:101368008D8A8B8B8D88817C777C7E7E7C7D767761
:101378007C828682807F858A8F8B87888B909695E2
:101388008F8E8F8E8F92938F888990959088828187
:10139800878C8B888785888E8A84807D7D7D8288EE
:1013A8008C87878D959D9B948F91979B9387817C44
:1013B8007D7B736F6C6C6B6D6E70737579808C90C0
:1013C8008E8D8E939797928D8480827D746D696AD5
:1013D8006F6E6F716F71787F83807C7D8085888464
:1013E80081807E80827C7775747676757570696980
:1013F8006E7574706E6E737B7F7A77777C84827B70
:1014080077797A7B7B7E827E7B7A7D83858078770D
:101418007B807F797775787D7972706E6F72767B55
:101428007D8183858A8D8D8C89888B8D8A87827F43
:10143800807E7B78787A797A7F807C797C838885CE
:101448008181858A8D8D8A8A8B908F898483828019
:101458007B777A787574777F817D77757B888C85C3
:1014680085868C918E8A868689888384817C787724
:101478007A8183817D7C828A8A86817F868C898134
:101488007E7F8485858786848486898A86807D7A1E
:101498007B797576737377797878797C7E81888A99
:1014A8008888888B90908C87858789837D797B7ED7
:1014B8007D767275797B7A7A7C7E7D7B7C8083846D
:1014C8008181848D8F8C8884888C89807A7A7D7DCF
:1014D8007875737476787C80817F7C7A8085848344
:1014E8007F808384827E7C7E81808182807C7B7DFC
:1014F8007E7C797470737879757272757876737585
:101508007A807F7D818587858180858681787174E1
:101518007774737073797D7A78797D81808083851B
:10152800878888888B8C8B8787898886807D7B7D58
:101538007A726F6F7272737477797A7F858A8E8DFB
:101548008E8F9595928F8C8C8E8B847D7B7C7B790E
:10155800797B7B7B7C81858A8B8885898E8F8B853F
:1015680086898C8983818588868382848683818124
:101578008385847F7D8488888785848687847F7D2A
:10158800828684808182838381818385837F81822F
:10159800827D7978797B79757175777673737575CE
:1015A800777B7E7F80807E7F8486827E7B7A7E7A50
:1015B8007169696D71706E71747678797C7F817FDD
:1015C8007E8388898581818587857F797A7C7B760A
:1015D800727070706F707074777475797F8283839E
:1015E800858C8D8B848385878481807E7B7B7B7AC9
:1015F8007A7B7B7C808385858586898A87827F81C3
:10160800848381818283858687888A898483878980
:1016180086817F818687827E7F8387868382828395
:10162800868787898B8785888B8C8884838688873B
:10163800827D7D7F7F7E7C7A7A7A7B7C7D7F7C79D8
:101648007B7F84838180838787817D7E807F7C798F
:10165800787673717173767A77777A7E807E7B7D00
:101668008285847F7D7F83838180818282807D7D66
:101678007F7C7876787A7773717376767270727702
:101688007D8080828386898B89898884828384800F
:101698007C7776787A797575797F807E7F8182828A
:1016A8008486888A8582858A8D8C87848687867FCA
:1016B80079797B7C7B797A7C7E818283888A898729
:1016C800878C8E8C8887898C88817E7D7E7E7D7CC8
:1016D8007C7C7E7F7F81828081838584827F7E80FF
:1016E80081817D7C7C7E807F7E7E7F7E7E7F808008
:1016F8007B78797B7C7A7572767C7F7B7576797C52
:101708007D7D7E80808185868786848283868987A1
:101718007F7B7B7F7D777371747775737172757852
:101728007B7E82828485898C8C8987878888837E62
:101738007A77777777757474797D7F8383838488E4
:101748008B8C898586878B888481818485827F803C
:101758007F7C7D7D80807D7D80828587858485896D
:101768008C8984828587868382818182808080803B
:10177800807E80848786817F838786837E7C7E8047
:101788007F7C7B7A7A7A797B7B7A7A797A7F837F96
:101798007C7B7D81817B7575797B797876787B7A9E
:1017A80078787B7C7C7B7B7F8181807F8082878649
:1017B8008483838382807E7D7C7C7B79777879794A
:1017C80079797A7D807E7C7B7A7C8284848382802E
:1017D800807E80838584827F7D80828584848183E6
:1017E800818080858C8F897F7E7F838687848280B5
:1017F800858482848586847F7C82848584858687A7
:1018080088818183878B8D89827E7F7F7F7F81849A
:101818008684807F8080828484868484807D7C7EA8
:1018280081807C7A7C7C7B7A79797C7F80817E7CE4
:101838007E7E7B78787E83837F7B79797878787BE6
:101848007D7E7C77767A7D7D7B7A7D81817E7C7BCF
:101858007C7F7E7D7B7D8082827E7E7D7D7D7B7CA4
:101868007E817F7C7A797B7A7C7C7A7C7F7E7975B5
:10187800777C7F807D7E7F81817F8181858586865B
:1018880085868683807E81878784807E7D80807F31
:10189800808185878380808383818083878887830D
:1018A80081828586868485878888858484868581E3
:1018B80080818585848181828483817F7F838582FD
:1018C8007F7E80808180818283817E7E7F8182820B
:1018D8007F7D7E7D7C7A76757A7D7D7A777778795B
:1018E8007776787C7F7E7B797B7D7C7B7B7E838330
:1018F8007F7B7A7E7F7E7B7A7C7F807C79797C7E19
:101908007B797A7C7F7F7D797A7D7F7D79797D7F10
:101918007F7B797A7C7D7A7A7C7F817F7D7C7F82F0
:1019280082818083868583807F8286878686858577
:101938008683808083858584828383827E7D7F837E
:101948008787828082868885828386898985828244
:1019580084848381828586858282858685817F824B
:101968008687827D7D8082817E7D7F8382807E7F67
:101978008182807E7F8182807C79797B7C7A797B89
:101988007D7E7C7776777A7B7A7A7C7E7F7C7979A4
:101998007C80817F7D7D7F807E7B7B7D80807E7D5E
:1019A8007D7E7E7C7A7B7E7F7E7B7A7C7F7F7C7867
:1019B800797C7F7E7A78797C7C7A797A7E807E7E63
:1019C8007F828383818285888986828182848381DC
:1019D80081838684817D7C7F8080808285878683E1
:1019E80082838688878586888986838181838381A7
:1019F80080818383827F7E818384838385888987AE
:101A08008382828484827F7F81807F7D7C7E7F7FCA
:101A18007D7E7F81807E7D7E8082817D7C7D7E7ED5
:101A28007B7A7B7E807F7B7978797878787A7C7C02
:101A38007A78787B7D7D7B7C7F82827F7D7D7F80CD
:101A48007F7E7D7F817F7E7B7B7D7E7D7C7D7E7FB3
:101A58007E7B79797B7B7A79797B7C7C7A797B7ED2
:101A68007E7F7F818385848383858888858483843A
:101A78008482807E808282817F7F7F808080828551
:101A880087868484858787858485878785817F8005
:101A980082838281828485858383848686878787FB
:101AA8008988858381828382807F808181807E7E10
:101AB80080818181808081817F7E7E7F807F7D7B28
:101AC8007B7B7B7A79797B7C7B7A78797979787872
:101AD8007A7B7B7A7878797B7B7A7A7B7D7D7C7A56
:101AE8007A7B7D7D7C7C7D7D7E7D7C7D7D7E7D7C25
:101AF8007C7D7E7D7A79797A7B7A7978797A7A7938
:101B0800787A7C7E7F7F80818282828284858585C7
:101B1800848484848382818182848280808181829A
:101B28008282838484848383848685848484858470
:101B3800838181828484828283848483838385856C
:101B48008483838586858281828383818080818363
:101B5800828180818181807F7F7F807F7D7D7F7F83
:101B68007E7D7C7C7D7D7C7B7B7C7D7C7A797878B6
:101B78007877767778797979787A7C7D7D7C7D7EBF
:101B8800807F7E7D7D7F7E7D7C7C7D7E7D7C7D7F74
:101B9800807F7D7D7E80807D7A7A7B7C7B7877777D
:101BA800787979797A7C7E8081828587878686872D
:101BB800878683807F7F7E7D7A797A7D7F7E80812C
:101BC8008487898A8B8C8D8C89868482807D7B7AB8
:101BD8007B7C7C7C7D7F83868787888C8E8F8F8EAD
:101BE80089878B837A7A7E7A79797C7B7C828482F6
:101BF80081898A878588888A8280837C787B7A73C2
:101C080074777F7E787D82828386838284868681CC
:101C1800817D7A7C7770727370706D747877797D56
:101C28007D7E8585858585878A88807E827C787794
:101C3800757372727779767B7F7F7E8282848482E5
:101C48008485847E7F807775797772737479787CE0
:101C5800818181878B898A8C8D8B8D8C8382877F0C
:101C6800797A787777777C7B7B82878384898A8C7B
:101C78008D8B8B8E8D8684877E7B7C7A7776787C3D
:101C88007C7A828684868B898B8E8E8B8C8B8681E0
:101C9800867F787A787473747679777D8080808788
:101CA80085858889898A8985808383797978757219
:101CB80073727672757B7B797C807E828182828466
:101CC80081807B817A7576757373767679767B8079
:101CD80083818583868786878786878280827776D1
:101CE80076767073707375767B7E7F7E8482888843
:101CF80088878A898A8385847B7C7B7B7476767ADD
:101D0800797C7F817E8388888A87898A8D8C8C8379
:101D180088867F7C7E7B7679787C767C7E817E84E3
:101D2800858687868B8C8E8D8C828B88827F807B44
:101D3800787A7B7F787D7F8079827F7F81828786B2
:101D480089888B818B857F7C80797679787E757B95
:101D58007B7C75807D7D7E7D808182828477828098
:101D68007B767C777473737D767C7D7B78868582C1
:101D7800808290969A94938283827D6D686A615F6F
:101D88005E6F6968676E67687275858B928D897EEC
:101D980088878E9A97898088868783918B82869395
:101DA8008F878E888781858A928A8A877A7D7F76CF
:101DB800696C686B6675827978848A7B868C8D817C
:101DC80081888881839486838C86716F6F716C6734
:101DD800746F68707D6E6B6D6F716E798486809597
:101DE8009589959A908B8E898F8488969691989AE2
:101DF800989B9399928485918A8A918A858A8E85FF
:101E0800837F817C747B827C757C7A746B6D756949
:101E18005A616960666E6463717268686872766C2C
:101E28007B877A71817F7B7575797166727C7A821E
:101E3800877D757D787367696E72697982807F8B1B
:101E48009390878384777775807F84879082898849
:101E58007E77797E85837C8A8B8683928F877E893D
:101E6800868481878B929AA29C989FA19E91939A2F
:101E78009A8FA1A29B9197939286827E7C7C7A8787
:101E88008C989695878C8C867D7B7F8681838D8ABE
:101E9800868488817B6C6A6265636A6B7174787802
:101EA8006B6E646255595D6B6768707171707269A9
:101EB80064595B5A5F5F686F747B837A6B6F6E6778
:101EC800656C747C747F878C87817D7A797174776F
:101ED800808791989F9D9A9186837E7B7A808B9844
:101EE800989BA1A19A948B89827E818B9A9FA1A1AC
:101EF800AAA9A89685848783787F8B948988838DFF
:101F080082726A6A6C6569758C888D969E9C9786C4
:101F1800787E85817C818B8D85807F7F7169626EFB
:101F2800727572808783888A92928C7779858A8382
:101F3800848C96978E88837F786F6872757578829F
:101F48008487808183847E6E6E767E757A818B8AA3
:101F5800837A76746D645D676D716C757D80807C45
:101F68007E8277656672726E707581837D736F6E1F
:101F78006D5F606D777371757175767671766B626A
:101F880066717B7F7F859394887D7E7F7D78828A4A
:101F98008C8C908D909391908F918681848F8E9464
:101FA80099A4A59C9289878588899397A1A4A5A5BA
:101FB800A7A8A5A0A0998682888D9193949D9A96AA
:101FC8008C86848784878D9197949392979496931F
:101FD800948575737A84868482847C766A65656B59
:101FE8006F76757A7976757579787A777B6A5F61B5
:101FF800696D6E6C6C6E685E4D484D5B636A6C71A2
:102008007273707171737375735F5C606F787A73D4
:102018007777756A5B5A63696F736E7271716E74E4
:10202800777F828883726F798B938D878D8C88797F
:10203800757981898C8B8B8B8888878D9193989FF4
:102048008F8486909B9B939295948E86888F9AA373
:10205800A9A4A098949597999C9B9C988684889706
:102068009F9E99999691837E81869196948E8C886D
:102078008B8A8B8C8D90938275737E8D8C858281F3
:102088007C7B716F6F767E817D7974737A7D7D7CC0
:102098007C7D756762657275726B666366625F6088
:1020A80066727B7C746E6A6F757978777A756C68FE
:1020B8006A757E7F7A736C6D696261666E787B740F
:1020C8006C6B727B7C7A7B7E7D7775727B878F8C5D
:1020D800867E7C797677787D858C89858184898DE3
:1020E8008F90908B7E797A828E918F8A8786878669
:1020F80089878D959C978F89888D909692928E83EB
:1021080080808A9497948F8A87868182838994961F
:1021180096908A878C9093908E887F7D7B81878923
:102128008B898685827A777881898D8C8785848B5F
:102138008D8B87837E73706E7476797D79736F70FB
:102148006B6D72788082817C7D7D81828283837BC6
:1021580073706E797D7F7E7A77716D6A6B66697050
:102168007473727170747677787A706B6B6F7C8128
:1021780083807D7C7B7470716D71757979797C7FD2
:102188008385858481726E70767E84848280828560
:102198008481817E808383817C8080858583807C27
:1021A800727377828C8D8C8588858B898687888ADF
:1021B8008C8B8584888E919087867D767778848BC2
:1021C8008E8A84848585848585858986837E7F88B3
:1021D8008F939089877B7372707E81848176737404
:1021E80075777A80868686817C7B848A92918C8CAE
:1021F8007F75727886888D897F7E777A7A797F83F2
:10220800837F79746F787D8386838273716D778914
:102218008B8F88837F7B7C7C7B818488847E7C79A0
:1022280080889392938E807B777D888B8C87818042
:102238007E7C767881868C89837972767B838283AB
:1022480080726E6F7881898D8A8180807D78777DB4
:102258008188858178727B7D80807E77706D6D74D2
:102268007B82827F7C7A7979757375798585837BA2
:10227800777E828885837872716C707378787370D2
:102288006E6D6E6C707279838586827F81858B9086
:102298008F8783818088878A87817F7D7D77727524
:1022A800737A878485817E7C7D8182827978777F45
:1022B8008A8C928C89898788847E7A7B7F88878CB0
:1022C8008B8A8F8E9397988C89878B939499908B10
:1022D8008E8D928F83837F86918D8D868182828079
:1022E8007F7C75736F7A878C908A8D8C88919089A2
:1022F8008586929A95918B87908A80736156595AF0
:102308007582839186857A7C8F8A7A7678726B66F5
:102318006C6C676660656B737074797F898F928B5C
:102328008B83838077666766575D595E666B7171CC
:10233800798789858783898E8B92847E7C6B736F7E
:10234800686C6464686A70747279797A868785873C
:1023580080868D959C8D89847A7F84807B6B737A47
:10236800757C79797F7A7A7F7C7B79798A909D9F51
:10237800989A969996989494898A8A888A878B8954
:102388008981827776767883878E928E8E929296DE
:102398009595968F908E8E918D8F938D8A88797D65
:1023A800747880848B86847C7C7776777D7F7B7D50
:1023B80081898C9294999694908483797C80818A7F
:1023C8007D776D616568676867656C6C737C82870B
:1023D8008D8E8D8A817D7679787E827A7367656540
:1023E8006967696C696A6D7372767676797A7775DA
:1023F800706973757E847D79736E6D727073747392
:1024080077707276797A7A7C7F79736E6E797B8A47
:102418008C8B8B81807E8183848083818282848877
:102428008A8C8E8D807A7776828286888888818168
:1024380080858C9090928D8E9290949496919188AC
:10244800837F7A82848C8C8D8A83817D8085878A3C
:102458008B888985878F8F9592928B83807C8588DE
:102468009292908C827F7A7A7D82827E7B7A7A7D44
:1024780082878D888D837A74717D8088878681763E
:102488007675777B7D807C7A7C797B7C7C827D7E8F
:10249800756C6765747581837F7E737371717676E9
:1024A8007676777A7676797B8482877D74746E7F88
:1024B8008391918A877777716F7273797A78787652
:1024C800797F848D8C8F8A807C737B7E868E8784CF
:1024D8007774726F77787E807D807D8084878A8C20
:1024E8008D8C807D74747B7E8D8C8D827979747EE1
:1024F8008082847D827F7F817F8584898A807A74C7
:10250800757F8390908F8A7D7E767F8181847B82A0
:102518007D7D7E7F88888C8C887F76717678838AAB
:102528008583767772767D7D858087838081818CAF
:102538008D918E897F787271777A838182787772AC
:102548006D7678807B7C7C7C81818D8D9294928F56
:1025580087847C81858E8F8D867E7B757C7B7F7E54
:102568007B7D7A7E7F86898E9290928A867C79801E
:10257800868F8C8B82807B7D807F847D7D78787947
:102588007A81838B8888817A76727C7E8587868734
:1025980083837E7F7C807D75747075747A7B7E8082
:1025A8007F82797A75767A7A8381827F7F7D7C7E55
:1025B8007A7D7575717277777D7A7E7D7E7D76738B
:1025C8006B6D6D757B7B7E787D7B7F7F80807A7A73
:1025D800777E7C817F808281827976706F7070755A
:1025E800777B7B7F7F7E7E797C787C7D8284858A01
:1025F80089908F93908B8881807C7D7F8082838572
:1026080083827E807F7F818185878E909391949746
:10261800939087837F7E828588898A888583818154
:102628008081808284888A8D8E8F92928F8984811E
:102638007D7F83868A8B8B87837B7977787B7B7C8E
:102648007D7E7F83858B8F8E877E7976797D828468
:102658008586817D797778797A7875727476797BD1
:102668007E81817D76716E6F72787E8183807D78C0
:1026780077787A7B7977747272757677797A7872E7
:102688006C68676B71767A7D7B79777575767A7DFC
:102698007E807F7F8184878B8D8C867D7572727832
:1026A8007C808282817F7E7E8183868889888688F5
:1026B8008B919697938C857D7A797E828688888699
:1026C80083817F81838587898887888A8E92949180
:1026D8008D8984807E8084888A8A87827F7C7A7AC2
:1026E8007B7D7F80808082868A8E8E8C86827D7BB1
:1026F8007E8186898885827E7C7A797979787979EC
:1027080078787B808485847F797675787B828586E6
:1027180084817F7D79777777787775747172777B25
:102728007D7A74706F707275787B7D7E7B79767434
:102738007475787C7E7D7E7E7F83858986807D7BAF
:102748007B797A7B7D7F807F7D7D7C7B7C7E8081B1
:1027580082828585888A8D8C878682828081838320
:102768008686868281807F7F7E8181818081838544
:10277800888B8D8B8B8785848486858785848280EA
:102788007E7B7A787A7A7B7C7D818387898B8B893B
:102798008683838485838384838383827E7C79771D
:1027A80076737474787B7E80818481807E7D7D7E63
:1027B80081818284858583807D7C7876737271724D
:1027C800757578797C7B7A797778797A7C7B7D7E68
:1027D8007E7D7C7B797A7979787A7C7F8181828425
:1027E8008481817F7F7F80828081838485838380C9
:1027F800807F7E7D7E82848787898889898887858E
:10280800858384848486858685838281817F7F7D94
:102818007F818487888A8C8D8B8987858382828152
:10282800807F7E7E7C7C7B7B7A7A7B7D81838587BB
:1028380088898A8A88868382827F7F7E7F7E7D7A66
:102848007876737371737477787C7F8083848685D8
:10285800838382828080807F7F7C7A777470706DBA
:102868006E6C6C6F7175777A7C7E7D7B7C7A7C7DF3
:102878007C7C7D7D7B7976757474747274767A7AD3
:102888007C7D7C7E81858486868786848484868414
:102898008482817F807E7A7877777A7F84898A8C30
:1028A8008C878384858A8E90918F8C88848081819F
:1028B800818282817E7F7E808185888B8A888987D4
:1028C800888785838181807E7D7E7C7B7C7B7B7C09
:1028D8008083858788898989878686848583817EA0
:1028E8007E7B797977777779777675777879808449
:1028F8008685888582808083838382817D7C7873C6
:102908007170706F6F7070706E7275777A7F817F7B
:102918007F7F817F7E7D7A7A797978787877777406
:10292800767678797C7F80838384828384848787A2
:10293800868385848381828382858582807F7E7E6B
:102948008184898989858284828486878487898726
:102958008585868585878A89868685828285878911
:102968008885878582817C77787A7A7D7C7E807E6F
:102978008185878483838486898D8E8D88868685E4
:1029880087847E7A7A7876767779777678797674A6
:1029980076797D81868A8E8D888988888985807EEA
:1029A8007E7A767172706E6D6E6E6C6C6B6D717610
:1029B8007C83888684848484817E7B7D7E7C797A0E
:1029C8007D7A7877756F6E6E7072757A7E83838084
:1029D80082848789878584868584858A8C8A86848B
:1029E800807C7B7C818184878B8A858380808284BC
:1029F800858385868383888A898986828181808187
:102A080084888E93968F8580807C7B797778797C93
:102A18007F85878886858280808283848A8E90924B
:102A2800948E857F7B7B78767572777A7C7F7F81C1
:102A38007D77737272767C828A8F9292918A817A7C
:102A4800787676757172727477777977706B686853
:102A58006970767D82868A88827B736F6F6E7070EC
:102A680071747A7F81807E7C78767474757C8285B7
:102A7800888D8E867E7A7979797A797B7F83888C3E
:102A88008B8786847F7C7B7D82898C9093958D83D0
:102A98007E7E81807E7C7D8084878B8E8A85838103
:102AA8007F7C7C81888B8E92928D837D797C7B7AEA
:102AB80078787D8285888B8A8783807F7C787C8202
:102AC800878B8E908A7F7776797A7977767B8185FE
:102AD800848382817F7C7A7775767C83888A8C87E9
:102AE8007E79767976716E6F73797B7A79787A7A6E
:102AF8007774716F727A81858787837C7670706E40
:102B08006C6C6F74797C7B7A7A7D807E797673774A
:102B18007F878B8C8D8E89857F7B797877787B7F93
:102B280083848586868886807D7C7D848A8D8F9245
:102B380094918E8884828080808184888788868426
:102B4800858683807E7F848A8E8F91928D89847F0B
:102B58007C7979797C7F8385878785858583807E65
:102B68007D81878A8B8C8D8985837E7A757475784B
:102B78007A7F8282817E7C7A7A7877777A81858774
:102B8800888A8886837E7A746F6F71717476787993
:102B980077767372727374767D82848585827E7C83
:102BA8007775726E6D6E707376797B7B79787776D0
:102BB80076777A808687888B8B8785817F7E797701
:102BC80077797F8586858482817F7B7B7B7D8389FE
:102BD8008A8C8F918E8B888585817E7D7F8287897F
:102BE80088868586847F7D7D7F848A8C8C8D8E8A7D
:102BF8008784807F7C7877797B82878988878685B8
:102C08007F7C7C7E8186868587898886837E7E7A9E
:102C1800767477797F82838281817F7C7776777AF1
:102C280080838386898784837D7B77716D707175D6
:102C38007A7A7A7C7D7A79747374757B80807F84E4
:102C48008380807B79756E686B6F7378797A7C7F07
:102C58007E7C777477777C828382888C8989858269
:102C6800807A74767B7E838383858786847F7A7C6B
:102C78007B7E8587868B9391918E8B89847D7B7DE6
:102C88007D82858586898987827C7C7C7D84868512
:102C98008791908F8E8887827C76797B80858586E0
:102CA800878A8A87807C7B7A7D818080898E8B8BDE
:102CB8008684837E7778797B818181838685837D0D
:102CC800767575797E7F7E858B898884807E79721A
:102CD8006E7072797B7A7C8182817C747272737770
:102CE80079787D8582807E7A76726B676B6C737873
:102CF8007A7A8185848179767576787D7E808A8AEC
:102D0800878886837F7A7477787B808180868B89B1
:102D1800877E7B7B7D7D828587919491928F8B873F
:102D280080787A7B7B7F8383878C8B88827E7D7E8D
:102D38007E8185878F938E8D8C88837E7575797853
:102D48007B8083868C8C89837F7C7B787980818764
:102D58008F8C898C8A858078747977787B7E7F845C
:102D680085817F7C7A7979797F81848A8A8587854C
:102D7800807A736C71717074787B80837E7D7A79C8
:102D8800767573787C7E83857F7E7D78746E6868BF
:102D98006D6B71767A7D827F7F7F7F7D7A797B818B
:102DA80082878B89858985827D77747978797E7F1A
:102DB80083868684868685818182898B8C91908D95
:102DC8008E8E89857E7B7C7D7C80818285858484CE
:102DD8008584838283868787898989898A88868387
:102DE8008280818182838484828380807F7E7C7BD1
:102DF8007A7A7C7E808485868787868684818183AB
:102E0800848584807E7C7D7B79767675737576790A
:102E18007A7C7D7E7C7B7C7F7C7C7F8182838283C5
:102E2800817B76757B7C7B6C656F78797778848D10
:102E3800857A76797D817F7C7C7C796E6C757973F7
:102E480069696E777975777A7F81828082838788CE
:102E58008C9395989798969997928E8A8B8A87845F
:102E68008686867F78767779746E6E74767E8182B0
:102E780083878C918F908C8D8A888D888884847FB5
:102E8800827A7972706F737B7A7A79837574717CC0
:102E98007B746F73818687818A8D948A8A898881F9
:102EA8007D82878E8D8F90918B8A8B898280818994
:102EB80089888E93929493919490847B7D81858662
:102EC8008A8981797777716B6462696565656C69F0
:102ED8006A6F767B75717072707877797B71696AC1
:102EE80073706D676771717275777172757B837FA7
:102EF8007A797B7F8A8C909588848A8F847F797B86
:102F0800847D7A7C827A7B797D7E75757675778407
:102F1800848A8C84848F948889898B8E86868B8B0F
:102F2800848C8C97998E8C8D8D87908E96948B8CB3
:102F3800929389908F989B94939893888D8C8F897E
:102F4800868689817C8381847F7879837F767A7A83
:102F58007C766F7079776F737777747375766D6A2F
:102F68007176786E6B6F7169616464655D60666CBB
:102F78006765717576777D7D7B74747E7D7F7672EB
:102F8800777A716E77747A747A7C837E7A8785898A
:102F9800838A898D868C96919A909092978A878E4B
:102FA800868A8186878C84828C898B7F85848983B5
:102FB80087918C938B8F92938581897D837B7F808A
:102FC800867F7D8B80847D85807F787A8077837902
:102FD8007A7A817473807A867F83888F87838D82DB
:102FE800867D8081817C818A7B847C7B7D817C7AE3
:102FF80083767E7679808682828B80847D7F7B7ED5
:103008007D82897E887D7A7A79706870656D696B52
:103018007276747481787D7B7C787677797F727C20
:10302800756F73706B636D616C6F6E737677727D9D
:103038007478737577797F848D818B84818383809D
:103048007980757C7A797C80827E867F8082808395
:10305800868D919B959E9C9296918C8590868D8B62
:10306800888C8D908B988F908F8C8D88898D969079
:10307800989A898B8B8B888F8D90938D9394958C50
:10308800948F8A867D817C7E828B8A8C8D7C8181DF
:10309800817D82807E847C8282837A7F7C79786F4E
:1030A800736E7277818180847477736D656A6C66DC
:1030B8006E656E6F726D767B75766C6F69696A7313
:1030C80074717D6E6B6D6C66687069736B70767504
:1030D80073778178797479797779828B8592878209
:1030E80086847E7C857C857B7A82837E7B888183CF
:1030F80080838582858D9B97A19B90938F8A858DF0
:10310800858A87828B8C8B8595928F8A868680822A
:1031180085929093978B9291928C8F8E8A8D848CC6
:103128008B8C858F91898680837D7D7E8889878E2B
:10313800838B8E868184847D857A7B808178788371
:103148007C79757A79737781847E8781797C7570CB
:103158006F736971706C74797872807C776F6D6D3C
:1031680066676F777275776D7171706D6C6769706E
:1031780068737877707C827C7C76797471768381C9
:103188007F89808385827C7A7772796F767D7D7579
:103198007E89827F7D8180808691928D95908A8DAF
:1031A80088847F807A827D7C898A8585948C8781D2
:1031B80084867E8089908991948D94928F88898461
:1031C800848680868889828B8B85817F807B7D82BF
:1031D8008F8F90968E93948F8A8A847D81787E8152
:1031E8007D7782887E7D7D827C7A808B8A838C83C2
:1031F8008286827C787A737C777B82827B7E887CED
:1032080077737670696E787B737F7A737C79746D67
:10321800736E74726E7A7B7A7985807A7675797135
:10322800747B847F85897F85827F75787170756FDF
:1032380076777B76828380827C837F7C7E89888494
:103248008D7F828480767879737D737C7F837C80A0
:1032580086828279807D7D818B8F8A938B898B880A
:1032680081797E79817B7E8285827E8C8682797D5A
:103278007D7C80848E8C94938F918E897C807A7DDE
:1032880079757A7B7E778383847D7D82817F7B8657
:10329800878A8D858685857E7D817F80777C7C8207
:1032A8007B7A807F7A7178767673777E81867F7C69
:1032B80080817E777B7A7E7C7B8082847C82808220
:1032C8007D7B7C7A7D7C86878E8D828386877A78E3
:1032D8007C7C7F787D7E8985868D8D8D83857A81BE
:1032E800818282838987817F8687817F7B80847DB5
:1032F800797C8882857F8284847D787E7E837B81C9
:1033080083867E7F7E81827C787C7C7878777978EA
:103318007B767C7A7D7879787F83838585827E7ECB
:103328007C7F7974717570736F757377777A7A7635
:1033380078747777817D83848585898687847D7B8A
:103348007A7977747074737673797176717371762C
:10335800787B82838685888689828680837D7D774F
:103368007B7B7D7E7F817F827E818188878E8D9128
:103378008B918D908987868689888B868E898F8A9E
:103388008D8689848384868A8C8D8F9090908E8B8D
:103398008386828882867E86858D8D8E8B82827AD0
:1033A8007E7D85838A8A8C8B88868583827D807CD6
:1033B8007F777A7C7F807D7D777D787D7A80818339
:1033C8007F7E7C7E7D7F7873717274726E6C757689
:1033D8007C797C747870706E747B7C7F7F807D775D
:1033E800747372716F706D6F6D7371746F736C6DD0
:1033F8006865676F78797F80848380807D77767150
:10340800736F706C75777E7E817F7F7E7B7C7E8715
:1034180083898788868586888282808281847E8166
:10342800888B8A8B8A88888282858E8B9191908EF0
:103438008B8B88868484878789878C8E8F8C8C8CED
:103448008A898583848E8F9497959392908A8681B2
:103458007E807F807E818489888A8B8A878585841F
:103468008B8C8F908C888583807B7A747875767442
:1034780078777D7D7F817E7E7A7E7B8282888A8551
:103488008382817C787773777674707473747372BF
:10349800736E6E696D6E7273797E7A7876787571EF
:1034A800706D7171726E737577787979797A7475D0
:1034B800787D7D80847F7C7879787376727674796C
:1034C800747A7E828183838385807F7E8685898CDA
:1034D8008B868281817A7B787D7A7F7C7E808181F0
:1034E800828480868286858F8E93979792918F8E1D
:1034F800858380817B7A79797C7C7E7D827E8480DD
:1035080085838C8E919695918F8D8B83828284830F
:10351800807F7E8381827F847D827D7F7D8383859A
:103528008B8B87848484807D8081827E807C82806E
:103538008480847D7F7B7B7B7E84818887857F8078
:103548007F7C7778787C797C777D7D8381858284A0
:103558008381818189848887877F7E7B7A7375726E
:103568007974777276777B7D7F837F837D817D8891
:1035780084888789838381827D7976777674716C74
:10358800706F7571787279747877828585888A8B7F
:10359800878786867F7E797B76796F757279757A6B
:1035A8007577777677798380868488838683867F24
:1035B800827D827E817A7A7B7E8180827B807A7E20
:1035C8007983818685888686868883827E7E7D7DCE
:1035D8007C787D7C848187818681848187898A8CB7
:1035E8008C8B888987847F7E7B7D797A757A7880D1
:1035F80080878386858685888D8A8D8E908B8C873B
:10360800877F7F797D77797478777B7D80807E82EC
:103618007E817E8884898C908C8E8C8D86827C7B42
:1036280078757271747378777B777E7B7E7A838303
:1036380085898C8A8A8A89857F7B777675756E738A
:10364800727B787A767D7D7A787D828084868680A2
:103658008288887B75747A77767077767A7A7E7BBB
:103668007B7E7C7A777D7E8284868284868C7F7955
:10367800747A78787274787A7C7C7E7B817D7F7BA3
:10368800818184888B86858890857C757979777423
:1036980072797A817C807D84818280848586898C18
:1036A8008986888F8A7E79797C787A757B7A827F19
:1036B800827E83838081818685888C8E8A8A8F9199
:1036C800827D797D787B7578787E807F7D7D827D2F
:1036D8007F7E8685878B8E8A898D91857E797C7998
:1036E8007977797A7B817F807B827D7E7B818182FD
:1036F800868A8885888E877D797A7C7979797D7ABA
:10370800817F817B7F7C7A77797D7E8285878487BC
:1037180088897E7C757B797A767C7A7E7E807C7BD4
:103728007D7A7B777F7D8383898587868B817B7391
:1037380076797775777B797F7E817A7F7A7D787ED7
:103748007F83858988868688857B76747A7778757D
:103758007B787F7F817B7F7D7D7B7C818287898C65
:103768008889898A807C747B797A757A7A7F818264
:103778007E7D7F7C7E7A818188888F8A8B8A8C8403
:103788007F787A7C7B78797C7D8381817B807C7F64
:103798007A7F8186878C8A89898A86807C787E7CF4
:1037A8007A797E7C8483827B7F7C7F7C7D80838723
:1037B8008A8A85898A87807D777D7A7A787D7C82F6
:1037C80083837E7E7C7C7D7D8081888A8B858788CB
:1037D80088807C767A797975797A7F82827F7C7D18
:1037E8007B7E7C7F8086898C85858789807D7779BB
:1037F80077797577797D8282807B7E7B7E7A7F7F01
:1038080084878B84848689827E7877797877757ABD
:103818007B8381827C807B7E7A7E7F84878A868395
:103828008588847F7B777A7977737A7B8482847BB7
:103838007E7B7C7B7D8184898A87838588887F7C61
:10384800777C7B7C747B7A8482837C7E7E7C7D7CA7
:1038580082848A898A838587897F7D777C7A7D7748
:103868007B7C8284827E7B807C807D84838A8A873D
:103878008384888A827C787B7A7977787C80848252
:103888007F7C807E807E84838A8C86828287868104
:103898007B787B7B7C787A7C7F84817E7A7E7D7E58
:1038A8007E8185898C8681818688817B767B7E7BFB
:1038B80079797C7F82827D7B7C7F7C7C81838A890D
:1038C800877F8186848379787A7E7D777B7981800A
:1038D800817C787D7B7E7B8184888B83807E8484D9
:1038E8007E7C757D7D7E7A7A7E7F81807B7A7C7E08
:1038F8007E7C81848B88867D818584817A787B80B3
:103908007D787A7B80807E7A797E7F7F7D84878EC2
:103918008B86828186848079777C7E7D78787C7FAF
:10392800807E797A7D7F827E858A8E8F8682808569
:10393800837F79767B7F8077797B81807E7A797FB8
:1039480080828084898E8F86817F85847F7B767D47
:103958007F8077787981807D78797F81827E84897C
:1039680090908880818486817B777B7E7D76767750
:103978007D7E7B77777E7F827E84868E8F89817F2E
:10398800848684817E80817F767473787B7C7A7864
:103998007D7A7D777E818B8D86807D8586857B7817
:1039A8007879756F7078868F928B82706B767A894A
:1039B80092A0ABA89F91928E877F7A7D7974665F7B
:1039C8005A5C5B5B5657616A717580848F94948CDE
:1039D80086898B8A878A959B9D948F8B8A87827F1D
:1039E8007B7E7E80797E797F837F79747C79756B25
:1039F8006B7179797475777D7C7F7B77797E807A36
:103A08007F7F888B857E767876726B6C7076746A29
:103A180068676D6B706E6F74787D7C82838E928D13
:103A28008988908E8D898B9096989295919590958E
:103A3800929093989B979B959F9D96929194928B29
:103A480083818285827E7E7B7D7A7A736D6E7374C4
:103A58007273707977716C6E6F6C645F60656F728A
:103A6800726F6D7171757474777E7E7E817E8986C2
:103A7800847F7F7D7B757071717673756F6F7373DB
:103A88007672717177797C7F7C827F7C797B7C7B95
:103A98007672737076747775797E7F817F7E7F8882
:103AA800888E92979E9E9B999C9D9F999798969891
:103AB8009596939494928E8A898995939898979AD3
:103AC8009594959797978F8B8C8A8A8686837F8122
:103AD8007F7D77757276757675747673716F716F91
:103AE800736C6768676862636264696A6A64646061
:103AF80065656A6B6E736F6F6D6C6A70706E7173EB
:103B080075757577787C80807E817E8183888887CB
:103B18008B87858789868E918E8C8A8B8B8B8F91EC
:103B280092959692939292949795929698938F8F56
:103B38008A8B8984828281807F7D80828385807F51
:103B480081817E80818082827F797B7A797678789C
:103B5800797875716F747677797A7A808081868AB8
:103B6800898C8F8D86858688848385838078757017
:103B78007878797E827E7B7E7E818589898888882F
:103B880082838788838786817E7E7D7D7E7C7B7825
:103B9800797779787C7E81817B797E8079797D7E61
:103BA8007B7C7E7C7772726E6C6C69696B69686B02
:103BB800676A70706A686F737475777F84817E7FB7
:103BC8007F7777797974747575757674757C80816B
:103BD80085817B818E8A86939B9690949697929105
:103BE800918F8A878D8E8B8D928D8C918E8C8B8BFD
:103BF8008991958D8F99988E9498928A8C918D8DB4
:103C08008A8888898986898B868387878488888635
:103C180085868283858584858887858584807F805D
:103C28007A767676747474747778777675706F7040
:103C38006E6E70737473737678787774747271704B
:103C480072727074757373747372706F716F6E6F54
:103C5800706E707374727373757878777877777815
:103C6800777575757472727678787A7C7C7D8080C9
:103C7800808080808383828386878A8B8B8A8A8AE6
:103C88008988898B8A8C8E8F8F8F8F8F908F8E8F5C
:103C98008F8D8C8D8E8F9192939393949495969704
:103CA8009797969493929090908E8E8D8B89888614
:103CB80084807E7D7C7B7B7B7B7F828385878785F9
:103CC8008686838282838281807F807F7E7B7B78E9
:103CD8007572706E6F7170717273747777767878A9
:103CE80079797A7877787675747473726F6C6C6C8E
:103CF8006C6B6B6C6D6F6F706F71727476777879AF
:103D08007C7D7E7E7E7F7E7C7B7B7A7A7A797879F1
:103D18007A797876767574747474747676787A7C31
:103D28007F8282848688898B8A8A8A898786848327
:103D38008383828281818281818081828484838459
:103D48008587898B8B8E909190908F8F8E8E8E8D9C
:103D58008C8B8A8A8A8A8A8A8A88868584858584D9
:103D680085858685868586878686868686878686ED
:103D7800878787858381807F7E808082838484840F
:103D880083828381807D7D7B7C7B7A7C7D7F808143
:103D980080807F7E7F7D7D7D7F7F7F7F7F807E7D32
:103DA8007B7A77767471706F7070706E6F717173E3
:103DB8007476797C7E7E80808282817E7D7B797834
:103DC800757574737272706F6E6D6C6C6D6E7172E6
:103DD800727476797B7C7E808383848384848382F7
:103DE800807D7B7A787777787A7C7C7D7D7E7F8111
:103DF8008181828485858587898A8B8B8A8A888652
:103E08008483848485858585868787878687878751
:103E1800868584868686868585858483828384864E
:103E28008585858586858584868685858485858539
:103E3800858685858585848282828484838283853C
:103E4800858587888A8B8C8B8B8B8A8987878586E3
:103E580084838282828483817F7E7D7C7A797A7B67
:103E68007C7D7E808283858788898A8A8887868602
:103E7800858583817F7E7D7B797978787675737285
:103E880071707171737374757677797B7C7C7C7BC8
:103E98007B7A78777575757371706F6E6E6D6E6FEE
:103EA8006F70706F70727373767778797B7C7D7DB5
:103EB8007E81807E7D7C7A7A78787979797B7C7C42
:103EC8007E7F7F7E7E807F7F8081838486858787D3
:103ED80085848583818281808082807F80808081C3
:103EE800807F80828283858887878788898A898B73
:103EF8008C8C8D8E8E8C8C8D8B898C8E8E8C8B8DF4
:103F08008C8B8B8A8888888A8A8B8C8E8F919290EA
:103F18008D8D8F8B8888898887888987858685860F
:103F280085858685858688888A888A8C8987878515
:103F38007F7D7979767473747676767879787B7DF7
:103F48007D8084858080847E7777776F6B6A6B67E6
:103F58006566686B696C7375737A7F7E7F87857910
:103F68007E81766E727069686B6A66686B706E6F58
:103F7800767974777E8180818B7E7F858175757B6C
:103F880074706F777373737F7C76787F79717779C4
:103F98007D76817B7A7F8078777D797A7882848450
:103FA800828F908A8C908E8486878F888A8E878568
:103FB8008B897F8181838084898F8D8E9897919159
:103FC800958F8C8A91938D90918A888C84807F7F3D
:103FD8007F7F8289908B9197948D8F8C8A88879226
:103FE800939198978B8E8F837B797779737581847A
:103FF8007D8288857E797779787B87878B958D8197
:104008008682756D696E726970817F7A7E817E762F
:104018006D6D706E757E7D838D817679746E676344
:1040280069706A747E7F7B7C7C7B7368696D6E7453
:104038007B7B8389807577736F67646C726E717C24
:104048007E797575756E64656A6F767C7D848C86FD
:10405800777674756E6A71807D7D888C8884807AA5
:104068007B7273737B828B888E9597887E7F827F25
:10407800767C898F898F92938D8A82847D7B7C82DE
:10408800898D8E8D9598907E7D83857C808C989780
:1040980096959C968C8483848181848F92918D954A
:1040A800978F79777E837B7D8796958E8D908D828D
:1040B8007B777F8182818A8C8D88898985726C76ED
:1040C8007C79787E8A90868485867B7471797C7DFC
:1040D8007C7F82848383837D6E69747878757B8422
:1040E8008C827E7D7E79726F767D7D7D7D808282F9
:1040F80081807B6F6A7073726F71787D787471726A
:10410800706C686E767979787D818382827D756E30
:10411800757A7A75767F84807A7A7B7A7573777FF9
:1041280081807F8386888786857C72777F807C7F85
:10413800868C877E7D7F7E7B787B83858584888D52
:1041480090928D8B837B7E8485828288908C8381FC
:1041580084817D7A7C83858685888C91918E8D88F3
:104168007E7F84868584878E8D848181807E797622
:104178007D81828080848A8B8887847A7A80838212
:1041880081858D8D83807F7F7C79757C8181807E20
:1041980080858683838179757B80817F82888C8600
:1041A800818082807B777C80817F7C7D81827E7D1F
:1041B8007C786D71767975787C817F7A797A7C776D
:1041C80075767E80817D7F82848080828074747B16
:1041D8007F7C7C8085867E7F80817B77777F8080EF
:1041E8007C7C7F83818183817872787D7E797C81F4
:1041F800857E7E7F807E7A7A7F84858482858888A2
:1042080086888681767980817A7A7E8583808081A6
:10421800817D7C7E8585858184888987888A867A60
:104228007880837C797B83847E7D7E7E7A76757BBD
:104238007E7F7E82878987888A877B757B807C7969
:104248007A838783828283807B777E838480828857
:104258008B88888A887D767B817E7B7D848985832F
:1042680083837E78747A7E7F7D7F83868687888540
:104278007B74787D7B787B8287848281827C767070
:10428800767B7D7C80868B8C8C8C897F777E828107
:104298007E81888C868383837B7571757776777C3E
:1042A80083848987898176727A7C797A818A8C89F4
:1042B800878B887F78757A79797A828788898889DF
:1042C8007C72717977747780898986878C857B750C
:1042D800777977787E8588888A8B86776F73756E0D
:1042E8006F757F83818285867E7875787573758012
:1042F8008382858A8D8276747A746F727E848182D5
:10430800888D857D7C7E7C7677808985878B928C6D
:104318007F797D7B706F78837F7E838C867F7D80BD
:104328007C75747A81808389908D8581837E75728E
:1043380078817F7E848A85807E807E77787C828182
:10434800868B9290898B8C877B7C7F837D81878B02
:10435800868381807B76797C7D7C83868B8383854D
:10436800877D7C7E827F7F878B8985888481787929
:104378007B7F7D818287838182837D7A7C7E7E7B41
:10438800808487828582817A78777A7C808384802A
:104398007E7F7E797578787A777C7B7C7B807E7C63
:1043A80079797976777A7E7F7D7A7D7D787478776A
:1043B80075757C7D7B7A7F817F7E7F807D7D7D7E2C
:1043C80080807F83847F7D807E7B797D7F7F7E82F6
:1043D800817E7F7F7F7C7D7F807F7C7B7F817D7DF1
:1043E800807D7B7B7D7D7B7E8484818183838284C9
:1043F800858585828180807E81848181818685838F
:104408008185868585858685878787868383837F5B
:104418007C7C7D7E818283818383827E7F82828190
:1044280082888787868889888381847F7D7E838444
:1044380085848585817F7E7F7F828383868483834D
:10444800847F7F7D78777778787C7F817E7C7E7C9F
:1044580079767B7E7F7F7F82827F7A7D7C78757795
:10446800787474757C7D7F7E848887837D7D7B7E70
:1044780080807C797A797876767175797A7B7D8592
:10448800878C8D8E867F777577787E8289817B751C
:1044980074747B7E7D7C767372797D878782837D59
:1044A8007F7E807E7F7E7D83878A888881807C80EE
:1044B800808181848784847F8181838286817677E5
:1044C8007C7C7C8083888786878A888787848483A6
:1044D800868A86827E7C7A7A7B7C7F8380838688C4
:1044E80088868889857F84858786858281807F857F
:1044F80087847D7C787C7C838584828284818384A4
:104508008787827C81817C7C7D7C7B7D7C7D7B79BF
:104518007978777676787D818180807B77747376F9
:104528007A7B7D807D7E8083817F7E7F7F7C807F9C
:104538007C7C7F79787C7674757A777C80828180C0
:104548008281828286888480807C7B7D7D7D7B7869
:104558007577777474757976797B7E818287888898
:104568008786868A88828387837F807F7C7B7B7926
:10457800777A7D80828287888A8888838787817F07
:1045880081817D7F80807E807F817E7D7E807E8030
:104598008485878A89878987858386817F808585C1
:1045A800868986827C7A7A7B7B7D7F8383868786F1
:1045B8008888868284807E7E818182838080807ED6
:1045C8007C7E7B7A7C7C7A7B7E797A787675777745
:1045D80075777A7B7C82838585858382807D7F7DE4
:1045E8007C7B7F7F7F817E7B797A7878777A7A790E
:1045F8007B7C7D7C7E7D7D7B7C7F8286888C8A88A7
:1046080085827B7878757372767475777B7C7D800C
:104618007E7F7E828084848486858685858080826C
:10462800817D7D817F7E7F81817E7D7E7E7B7D8099
:104638008283878A8B8A8A8D898382807A777A7B3C
:10464800787A7C7D7C7F7F808183858788898C8E42
:104658008F8B8D8B868185837E8184817E81807D11
:104668007C7D7C7C7A7A7B7D7F8386898A8A8B8B2A
:10467800868485827F80817D7C7C7A767677767663
:104688007778787B7B7D7D7E7D7E807F7D7B7F7E5E
:104698007B7C7F7F7C7E7D7B797A7B7C7A7B7C7B55
:1046A8007D7F7E7F85848487858084847F7E817BEF
:1046B80076797877777B7D7E7C7C7B797B7C808242
:1046C80084828385827E80817F8182807E80817FD3
:1046D800808282807E7C7979797A7B7F83828488E4
:1046E8008782858785848583828381808082828290
:1046F8008181817D7E7F7F8084828184837E8081A9
:104708007E7C7E8080838487898C8B89888885815C
:104718008083858484818485817F82817D7C7F7E7E
:104728007C7C7E818284848483838280808383836B
:10473800827F807D78767874747677767778787BE0
:104748007F80808283827F7D7E7F7E7F7E7E7E7B70
:1047580077777776767A7D7C7E7F8181818180818B
:1047680081828183868686868685837E7D7D79762D
:10477800767673757779797B7E7F807F8182828573
:104788008989878889878381817D7C7C7D7A7A7D08
:104798007D7C7C7E7F7E7E818280838688888B8DEF
:1047A8008E8B888783807F7F7D7C7D7D7B7A7B7CF9
:1047B8007C7E828384878A8B89888A89868686819B
:1047C8007F817F7E7E7F7E7F8183838182838181DB
:1047D80083858584858786838483808082807F81A2
:1047E800807E7D7D7B7A77787978797B807F7F8200
:1047F80084817E807B78787A76777B7B7B7A7B7BFB
:104808007A76797A79797B7D7A7C7D7C7A7D7E79F6
:104818007A7D7F7C7D80827F7F81817F7D7F7F7FA6
:104828007E80808084827E7E827D797A7B797778AB
:104838007A7B787A7C7D7C7E808386868685878570
:10484800827E7E7C79797B7B7C7F80838485878868
:10485800868686858687858283837F7E7D7B7B7A35
:104868007B7B7D7E7E818285878787888B8B8B8B00
:104878008A898A878483847F7C7D7C7A787A7D7F25
:104888007D8084868588898A8B8C87888A848081C4
:10489800807C7C7B7D7E7F7F82828181817E7C7C27
:1048A8007A7A7A787679787677797576797B7A7B79
:1048B8007D7F807E7F81807D7F7F7F80817C7D7F03
:1048C8007B777A7A7372747574747377797A7C816A
:1048D8008385898B8C8D8D878786817C7B787575A0
:1048E80075747475757676797B7C7D80838585870C
:1048F800858585827F81807A7A7D7D7A7B7C7E7CC6
:104908007C7F81808185878A8D8C8A8C8C87838542
:10491800817C797A7977777879787A7C7E808587CF
:104928008A8B908F8C8D8A8684837F7E7D7E7E7E27
:104938008081807F82817F7F828384848786848749
:10494800848282827F808181808182848381828146
:104958007E7C7D7C7D7F807D7E82807C7D7E78777D
:1049680078797879787B7C7C7D7D7C7E807E80817F
:10497800837E7E807F79797A75767679787B7C7D7F
:104988007E7F81817F808180818284818081807E19
:104998007D7E7B7A7B7C7D7E7E7E7F7E807F7F7E38
:1049A8007F8183838485838583817E7F7A77777609
:1049B80077777A7B7E7E8184858685888A8B898BCA
:1049C8008C858787837F83807D7F7E7D7C7D7D80CE
:1049D8007F7F8182818184848887898A8689898585
:1049E80080858380807E7D7E7E7D828280838586B1
:1049F80086878889888A8D8A8789847B7D7E7B776C
:104A0800797A7575767C7D7E848A8884807E7B79C8
:104A18007E858681828077767A7A78726E73787CE2
:104A28007F85898F938F84817E77797E7B78766A7C
:104A38006B6B66686E6A6A6E7171757C8386848436
:104A48008686848F979A9DA09C9E9A93929088823E
:104A5800837C787776727475747474777977767ADC
:104A6800797C80838284857E7D7F7C797D7C7A7C5D
:104A7800797A7A797A7E7E7F807A76787672787A91
:104A8800777A7B7271767471777D7C7D8086888A6F
:104A98008A8C908D90929293969795999C999EA2C4
:104AA8009D9EA29C979B938F918E8D91918D8D8CBD
:104AB8008B8987827E7C77777C7B7B81827B7D7FFD
:104AC8007A7473726E6F6C6C69686A6A696B7272F9
:104AD8006F71767873747575787B7A7B7D77737070
:104AE8006F686A686A6C6E717579797D7E7F7C7C87
:104AF8007A7976797B7B8084808187847C797773E7
:104B0800736F6F6E6F71797B7C81807C7B7E7D7C1F
:104B18007E82888C9297949699979295958F8F8E8E
:104B2800918E8C8B908D8B9396949096989A9C9E50
:104B38009D9B9C9D989A9E968D88857C77727472B1
:104B48007273777B7A7E7D7E7A7A797573737470E7
:104B58007477706D75766D6C6C666565676666678B
:104B68006C70727775756E6B6B6966687072777F3B
:104B7800827D81827D797C7A7677787B7B7B7A7F70
:104B88007D7E868A878183888C8A898E8E8F918D97
:104B98009197918785857E7B78797B7D7D828987D2
:104BA80086888C8886848686898A888B8F8B80897C
:104BB8008B837C7C7A77757373737473787D7E7B53
:104BC8007D7C7874747274787B7C848A8082878612
:104BD8007F7D7B7676757777797C7D81858A8A8AF1
:104BE80086828384848687878C908D888D8C837A4F
:104BF8007B78717176787C818286898782868783C3
:104C08007E80818384838387877E8186847C7A7C87
:104C18007A79787A797976747B7D7C77787774700D
:104C28006D707377787D8687808086847C7A7774C8
:104C380074727172767273797F7D7E7D7C7B7A7BEC
:104C48007E8282868B93928D8F8E8881807D7D7CFB
:104C58007E80868A898D8F8F8D8F8D888584898CBB
:104C68008F8F93969A959395958F8C8A878885834D
:104C7800858684868B8C87858383807F80818687E1
:104C88008B8D9291898989867F7B77757674757704
:104C98007772757A7B79767879787779797B7C7E83
:104CA80082847F777876726C68646568696B6F70E8
:104CB8006E727677787B7B77757573747575777D8B
:104CC80084817D7C7E7E7A736F7170707177797A5A
:104CD8007D807F7D7C77767778797F878B8D9193C0
:104CE8008D8A8885817F7C7A7B7E81828384868990
:104CF800898A8A8A898989898C8E8F909497948CDD
:104D0800898A8783828180808386898A87898D9230
:104D1800918E8B8A8A8785878785878B908F8A89EA
:104D28008B8A86837F7D7E7E81838380818181815A
:104D38007E78777777787A7D8082868A8884807D86
:104D48007A76706C6B6B6B70747475777A7C7C7A1E
:104D580077747174787B7F828587857F79736C6AB5
:104D68006A68686A6E757A7A797A7C7C7B7B7977EF
:104D78007375797C7C8082858884807F7C7879795A
:104D880079797A7B8184838080817F7F7F7F7E7C35
:104D98007E84888988898E918D8C8985837F7A77AE
:104DA8007673757B8085888A8E908F8B86807E7DD2
:104DB80081878C8D8E908E8B877F7A7876747579C3
:104DC8007C82878C8E8F8D8C8B8985807D7D7E8281
:104DD800878A8D90918D8B8883807C7A7B7F7F8179
:104DE8008484828281807F7F7D7C7B7B7B7F8487BC
:104DF800898A8C8B8784817E7C7A777473737678C2
:104E0800797A7C7C7D7F817E7C7A797A7E828584C2
:104E18008384817F7A76747573737677797B7C7DEA
:104E28007F807F7F817E7975727072757C818385C2
:104E3800878584827F7D7B777678797B7D7C7B7C98
:104E48007B7A7B7C7B7A78797E81868B8D8E8E8B44
:104E58008785807C7A76737476787D7F7F8183827C
:104E680084858483807E7F83878B8C8C8A87827FEE
:104E78007B79797877797B7D7E808283848182854E
:104E88008683807C7A797B818788898B89878684E9
:104E980082807E7B7C7E7F8081828180808282810D
:104EA8007E7E7C7D7F83898D8E918D87847F7D7BBF
:104EB80079757576787C81848584848688878584ED
:104EC8007F7D7D80858B8C8D8D8984817D7D7C7BAC
:104ED8007B7B7B7B7F8287888686878683817C78BD
:104EE80078787E868B8C8E8A8885807C7B7A7776AC
:104EF8007778797A7D7E7C79787777787878797A17
:104F08007B8186888A88847F7A747372706D6C6CF2
:104F18006D707378797A7C7C7B7B7976747474781D
:104F28007D7F8284827D79757473737273727273F4
:104F3800787F8180807F7C7C7B77737475787F85B0
:104F4800898D8D8B87807B7B7C7C7E7F8080818434
:104F5800878889878482828382828182878B8F94E3
:104F680096938F8A8482817E7E7D7C7E7F808487F3
:104F7800898C8E8C8B8C8B888787888B8E9093936B
:104F88008F8B86838383838484818183878A8A89BC
:104F98008A88848281817D7B7D85847E8C9C9695A0
:104FA80097898A8D8A8488867D7B756C6464696537
:104FB8005C5E65656E798086858B9E9F9A9B998ECF
:104FC800867F71706B6560575B63676C72797F80F1
:104FD800858988888684868186857E7D75746C6BD4
:104FE8006C6161686E686770797D7E82827E7C7B89
:104FF8007D79777C7E8083888B8882847D757570C7
:105008006E6F6A68686E7170747C8286858A8F8F0D
:105018008E8D8E8F8D8B9799928C8B847A79747004
:105028006A6E707071757A8082888F8E9391939171
:105038008F918F949796999C949189868A7F7E7F89
:105048007F7A767C83858285878683818485858639
:105058008B8E96979EA39C9A95908C89867D7B785B
:1050680072757776787878807E7E81808082848673
:105078008B8F969B968E8C827D7A7675706D6A6B17
:105088006F72747877797878747779767A797F819E
:1050980082868783807D777477727070706E656C96
:1050A8007474716F6F6C6968666666676C6E767E1D
:1050B80085868784817C7A7B78787473717273763D
:1050C800777879767577757172717474787D869151
:1050D800908C8A8581817F7C7A7876777B7F8284C1
:1050E80085878583828282817F7F85878B9194954E
:1050F80093908E8887878587858482848C8D8D8E12
:105108008D8D8A87868481808181848990969897FD
:105118009591908E8B8985838083878A8A8B8D8CE5
:105128008A8989848381818080848C9393908C87F9
:1051380083807F7E7B7A7A797C81838583817F7B7C
:105148007A7A79767473747A7E818486837F7D7A9D
:1051580079777472706D6B6D727574737273717127
:1051680071706D6C6E6E767C8082817D79757170E0
:10517800706F6B6B6C6F757A7A7C7B797A7A7976DB
:1051880074716F6F6F747C80827F7C7C797776779F
:1051980073706F7174787D7F7D7B7C7D7D7E7F7D74
:1051A8007A797C82898C8D8F8D8986848383817FAF
:1051B80080808083888A8A8786898A8887847E7B9C
:1051C8007D7F848A8C8E908F8E8E8D8D8D8A86863B
:1051D8008586888A8A89888889898785817E7F816A
:1051E80082868C9195959393918C8985807D7E7C20
:1051F8007D81828283828283817E7C7A77787B81BB
:1052080086898B8F908C8A86827F7C797876727378
:1052180077797978787979787673706E7174787D22
:105228008183868784827E7A7877757373727477C0
:1052380078787776777776757371717272767D8103
:1052480084888783827E7978767271717274787AAD
:105258007C7D7D7F807E7C7A78777A7C7F84878965
:105268008E8E8A888380807F7C7C7B7A7F82838312
:1052780084828384827F7E7B7B7E8084898B8E92EE
:105288008F8B89858383817F8080818788888989BE
:10529800888989878583807F80808487898D918E9E
:1052A8008B8A868484817E7F7E7F838383838383C6
:1052B800858583817F7C7C7C7D808183898E8C89B8
:1052C800888584837F7B7A78797D7D7C7D7B7C7DF6
:1052D8007D7B7976757676787C8082888C8A8886DC
:1052E80082807E79777674757777787A797A7C7D1B
:1052F8007D7C7A787877797B7D7F84858281807ED2
:105308007C7976757675767877777A7B7D7E7F81FE
:105318008281807E7E7F808183888B89888886844D
:10532800827E7C7B797A7B7A7B7D7E808181838398
:10533800838281808181818386888786868585842A
:1053480084838381817F7E7D7C7C7D7E7D7F80825E
:10535800828281807F7F818284878786868787880B
:10536800878583807E7B7A76767878797A7B7C7E6F
:105378007E7E7E7D7E7E81838688878687868585FC
:1053880083807E7B79787774747475777778797A87
:105398007A7B7B7B7C7E80818486868585868686F3
:1053A8008583807D7B797877757576777778787956
:1053B80079797A7B7B7A7C7D7F80828484848586F8
:1053C8008586848180807E7D7D7B7B7A7B7C7C7CEE
:1053D8007C7D7F8181828383848687898B8B8B8B7D
:1053E8008B8B8A8885848281807F7D7B7A7A7B7AA1
:1053F8007B7C7D7E81828181838486888A8B8B8B6E
:105408008B8B8A8A888482807E7C7A787676767995
:10541800797B7D7E7E7F807F7E7E7F80828384868F
:10542800868584848382807D7C7979797978797A94
:105438007A7C7D7D7C7C7B7C7D7D7C7C7B7B7C7CA5
:105448007D7F7F7F7F80807F7F7D7C7B7A7B7B7B7E
:105458007A7A79797A7A7A7A7A7A7C7C7C7C7C7D99
:105468007F80818283848382818181807F7E7D7B2E
:105478007A7A7977767677787A7B7B7C7E7F818279
:10548800828383858688898B8C8D8D8D8E8D8C8982
:105498008683807F7E7D7C7C7D7E80818182828305
:1054A8008384838282828385898B8D8E8F8F8F8E72
:1054B8008D8B8784817F7D7D7C7B7B7C7E7E8080DD
:1054C800807F807F7E7D7D7D7E81838587898888BA
:1054D8008686858582807D7B7B7A7A7877757777F3
:1054E800787978797A7B7B7D7C7C7C7E7F808182F1
:1054F800848383828281817D7A78777574737272EE
:10550800737475777778787A7A7B7B7B7B7B7E8000
:10551800838486878583838483827E7C7877767686
:1055280075747372737578787A7B7E7E7E7C7B7CEB
:105538007C7E8285888A8987858788898783817F19
:105548007E7E818284807F7E7D7B7D818488878545
:1055580082808083898E908F8C88848385868583DA
:105568007E7B7D81838384808286898786878788FE
:10557800878785817C7C7C7C7B8080818181858715
:105588008784837E7F7F818384817D7E8080807F06
:105598007C7C7A7874716D6F72797E808381838266
:1055A80084888D8B847F7F85898884827D7D7B7BC1
:1055B800797673716F72716D6D6F747A8183868677
:1055C800858386878989827F7A7D81848486827FA4
:1055D8008381796F6965656969696B6D74797E879F
:1055E80089898A8685868585807B7A7E828584817D
:1055F800807F7D7E817F7B797A7B7E78797E8182D0
:10560800878B90908F8E8C91918D888784868384E8
:10561800827F78757A7F82807E808285898584877B
:10562800888D92948F8A85848B878887817F7F7DF8
:105638007E7B7774747A7E82817F7F808184838485
:105648008180888D8C8A877D7C7D7B7B7772707367
:105658007B807F81807E848386857D78797E7E7C51
:105668007C7F8285888B897F7A767577756D6C6C7F
:105678006D7378797B7C808281827F7C7A7B7D7E6A
:105688007D7B7B8183848686837C767472706E6C66
:105698007074777B7F7E7C797B7E7F7B7C7C7C7F54
:1056A800818281817F818281807F7F7D7B7B8083F6
:1056B800828483878887868987838382838182859A
:1056C8008886878482838485828183838384818199
:1056D8008182817F8286888A8A8A8C8B898B888559
:1056E8008282827E797B7C7B7D7B7C8183848686BB
:1056F80085817E8081827F808180818183817F7C9A
:105708007E7B7B7B7A7A7878787B7D808082898AB9
:105718008583817F7C79777A7D7E808183807D789F
:1057280075737375737779797C7F807F7F81807FCC
:1057380081838385868381818380817F7F7E7D7954
:10574800767776736E71777B7F848689888586887D
:1057580085858584858482848180807D7C7A797939
:105768007C7D7E7C7C7A7E7D7F858586838386882A
:1057780084847F8386848C8B86878280827B7877FB
:10578800767573747B7B7E847F808284828081843B
:1057980084858482888984868983817D7D807A78DE
:1057A80079767B7D7C83827E817D7F837E807F7A14
:1057B8007F7F7B7D7D7E7F7A797B7B7D7E7F828309
:1057C800808682888785878280817F7C8079787DC2
:1057D8007B81807A7F7A7D7C7A787C7E7A7A7C7C01
:1057E8007B8885868C88878A88888480807C7F7F70
:1057F800787B827C7878787A7A7A79757C7C7A82F8
:1058080082878882838787847F838680848685844D
:10581800827E777B7D7671747B7C7A7C80818889B7
:10582800878782848084857F84817E838183878142
:10583800817D7D7E797B787777757A7B7B7E7C82AC
:1058480080818689898786848285817F827E807F20
:105858007E787B7C7B787A7A7D797B8386877F8468
:105868008584828185837E7B7883807F7D7D827934
:105878007B7F7B7E7B797F758083848A8288878023
:10588800848385877C7D7E7F7C7A7F807D79797A29
:105898007C7C7D7B7E807B7F7F8281848385838304
:1058A800898487808585827E8484797D74767976FB
:1058B80070777C7B8280838B87838387867F7D81DB
:1058C800817A7D807C807F807F7C7B7B7E7C7E7CF8
:1058D8007D807D7F7F8287828482818383808183AC
:1058E8007D82817D7E7D817E798078787C7B787EE3
:1058F800827A808188828288828882808184847C7E
:105908007E7F837F837D7C7F787B787A7C78787EC6
:105918007A7F89818987838D82838B8882827B8441
:10592800857477777D7E73787C797D7B7D857D83B3
:105938008483877E7E80837C8A828488818C868229
:1059480081847D7B77757977737D797E7E79848193
:105958007A8380818A7C848482858883847C84831A
:105968007883827A7A7F768281777F827B827F7D55
:10597800857A80817E837F7A848281837F81807E1D
:105988007C847B7C7A7A847E847D7C8B8687857D0B
:10599800877E7B7D7B7981807E7B7E8B7F7F817913
:1059A800807D7A7F777E807E7D818482827E888AF0
:1059B800807C8280868582817881817C7A79797AF7
:1059C800836F7C837E8178898883857D7D908179CA
:1059D800848181837E7D888581797F807D7A7B76CD
:1059E80078827B777E8383867F83838383857E80AB
:1059F800807F8380828082808080797C7F7E8376AE
:105A08007D7F8082837D80837E837F847F84827D87
:105A180081847C8081827D7E7A767F7F77797E80A3
:105A2800847C83838A86827D87857F7F7881817D58
:105A38007A807E847E7E7C7C827C797A7C7C847B86
:105A48008181808A7E85828088857E818284897E24
:105A58007E8180837E76757D7F7579737D7E7D8579
:105A68008181848184897D878280827E7F8683820A
:105A7800847984827A78737B80787A757D88848348
:105A88007C8086857F7D7B8284797C8085887E7713
:105A98008380827E797E7E7F797B81847F7E81820E
:105AA8008683828681898583857F7D817E7D7D7BD6
:105AB80080777F7E7A7F7A7D85837F777B86898EE4
:105AC8008A8A90978E8E8686887E8474747574729E
