:020000040800F2
:1000000000000120051500085515000855150008C9
:10001000551500085515000855150008000000008A
:10002000000000000000000000000000551500085E
:1000300055150008000000005515000805140008BB
:10004000000000005515000855150008551500085A
:100050005515000855150008FD0A00081D0B00087D
:100060003D0B00085D0B00087D0B0008E107000850
:100070000D08000839080008650800089108000804
:10008000BD080008E9080008551500080000000038
:100090000000000000000000000000009D0B0008B0
:1000A0005515000855150008551500085515000888
:1000B0005515000855150008551500085515000878
:1000C0005515000855150008551500086913000856
:1000D00077130008551500085515000800000000AA
:1000E000510C0008551500085515000800000000C7
:1000F00000000000000000000000000015090008DA
:10010000000000005515000855150008851300086B
:1001100000000000000000000000000000000000DF
:10012000410900086D09000899090008C50900087F
:10013000F1090008000000000000000000000000BD
:10014000000000000000000000000000551500083D
:100150001D0A0008490A0008750A0008551500081C
:1001600055150008551500080000000000000000AB
:10017000000000000000000000000000000000007F
:10018000000000000000000000000000000000006F
:0401900055150008F9
:1001940010B5054C237833B9044B13B10448AFF3BD
:1001A40000800123237010BD6400002000000000C3
:1001B400A015000808B5034B1BB103490348AFF36E
:1001C400008008BD0000000068000020A0150008A1
:1001D40070B54FF0FF0C4CF4E06C1CEA11541DBFD9
:1001E4001CEA135594EA0C0F95EA0C0F00F0DEF8A4
:1001F4002C4481EA030621EA4C5123EA4C5350EA89
:10020400013518BF52EA033541F4801143F48013D9
:1002140038D0A0FB02CE4FF00005E1FB02E506F06A
:100224000042E0FB03E54FF00006E1FB03569CF0BF
:10023400000F18BF4EF0010EA4F1FF04B6F5007FC5
:1002440064F5407404D25FEA4E0E6D4146EB060637
:1002540042EAC62141EA55514FEAC52040EA5E50C0
:100264004FEACE2EB4F1FD0C88BFBCF5E06F1ED86A
:10027400BEF1004F08BF5FEA500E50F1000041EBA1
:10028400045170BD06F0004646EA010140EA02004E
:1002940081EA0301B4EB5C04C2BFD4EB0C0541EA70
:1002A400045170BD41F480114FF0000E013C00F385
:1002B400AB8014F1360FDEBF002001F0004170BDA9
:1002C400C4F10004203C35DA0C341BDC04F11404C2
:1002D400C4F1200500FA05F320FA04F001FA05F24E
:1002E40040EA020001F0004221F0004110EBD3701B
:1002F40021FA04F642EB06015EEA430E08BF20EA47
:10030400D37070BDC4F10C04C4F1200500FA04F3E9
:1003140020FA05F001FA04F240EA020001F000417B
:1003240010EBD37041F100015EEA430E08BF20EAEE
:10033400D37070BDC4F1200500FA05F24EEA020E36
:1003440020FA04F301FA05F243EA020321FA04F065
:1003540001F0004121FA04F220EA020000EBD3701C
:100364005EEA430E08BF20EAD37070BD94F0000F1C
:100374000FD101F00046400041EB010111F4801F50
:1003840008BF013CF7D041EA060195F0000F18BF01
:10039400704703F00046520043EB030313F4801F3D
:1003A40008BF013DF7D043EA0603704794EA0C0FF7
:1003B4000CEA135518BF95EA0C0F0CD050EA41060D
:1003C40018BF52EA4306D1D181EA030101F000418A
:1003D4004FF0000070BD50EA410606BF10461946B2
:1003E40052EA430619D094EA0C0F02D150EA0136BE
:1003F40013D195EA0C0F05D152EA03361CBF1046FF
:1004040019460AD181EA030101F0004141F0FE419D
:1004140041F470014FF0000070BD41F0FE4141F421
:10042400780170BD81F0004102E000BF83F0004319
:1004340030B54FEA41044FEA430594EA050F08BF7B
:1004440090EA020F1FBF54EA000C55EA020C7FEA3F
:10045400645C7FEA655C00F0E2804FEA5454D4EBBC
:100464005555B8BF6D420CDD2C4480EA020281EA86
:10047400030382EA000083EA010180EA020281EABE
:100484000303362D88BF30BD11F0004F4FEA013110
:100494004FF4801C4CEA113102D0404261EB41011F
:1004A40013F0004F4FEA03334CEA133302D05242A5
:1004B40063EB430394EA050F00F0A780A4F1010461
:1004C400D5F1200E0DDB02FA0EFC22FA05F280189B
:1004D40041F1000103FA0EF2801843FA05F3594181
:1004E4000EE0A5F120050EF1200E012A03FA0EFC00
:1004F40028BF4CF0020C43FA05F3C01851EBE3712A
:1005040001F0004507D54FF0000EDCF1000C7EEB46
:1005140000006EEB0101B1F5801F1BD3B1F5001F84
:100524000CD349085FEA30004FEA3C0C04F10104A3
:100534004FEA445212F5800F80F09A80BCF1004FCC
:1005440008BF5FEA500C50F1000041EB045141EA4E
:10055400050130BD5FEA4C0C404141EB0101013C17
:1005640028BFB1F5801FE9D291F0000F04BF014606
:100574000020B1FA81F308BF2033A3F10B03B3F1D8
:1005840020020CDA0C3208DD02F1140CC2F10C0268
:1005940001FA0CF021FA02F10CE002F11402D8BFC6
:1005A400C2F1200C01FA02F120FA0CFCDCBF41EA92
:1005B4000C019040E41AA2BF01EB0451294330BD61
:1005C4006FEA04041F3C1CDA0C340EDC04F114043E
:1005D400C4F1200220FA04F001FA02F340EA030015
:1005E40021FA04F345EA030130BDC4F10C04C4F15B
:1005F400200220FA02F001FA04F340EA030029463B
:1006040030BD21FA04F0294630BD94F0000F83F484
:10061400801306BF81F480110134013D4EE77FEA67
:10062400645C18BF7FEA655C29D094EA050F08BFB3
:1006340090EA020F05D054EA000C04BF1946104694
:1006440030BD91EA030F1EBF0021002030BD5FEAD8
:10065400545C05D14000494128BF41F0004130BD00
:1006640014F580043CBF01F5801130BD01F0004554
:1006740045F0FE4141F470014FF0000030BD7FEAC7
:10068400645C1ABF194610467FEA655C1CBF0B46C2
:10069400024650EA013406BF52EA033591EA030FD9
:1006A40041F4002130BD00BF90F0000F04BF0021D1
:1006B400704730B54FF4806404F132044FF0000504
:1006C4004FF0000150E700BF90F0000F04BF00217D
:1006D400704730B54FF4806404F1320410F00045E3
:1006E40048BF40424FF000013EE700BF42004FEADE
:1006F400E2014FEA31014FEA02701FBF12F07F435B
:1007040093F07F4F81F06051704732F07F4208BF11
:10071400704793F07F4F04BF41F40021704730B518
:100724004FF4607401F0004521F000411CE700BF64
:1007340050EA010208BF704730B54FF000050AE0E7
:1007440050EA010208BF704730B511F0004502D5E8
:10075400404261EB41014FF4806404F132045FEAEA
:10076400915C3FF4D8AE4FF003025FEADC0C18BF93
:1007740003325FEADC0C18BF033202EBDC02C2F185
:10078400200300FA03FC20FA02F001FA03FE40EA17
:100794000E0021FA02F11444BDE600BF4A0011D252
:1007A40012F5001211D20DD56FF47873B3EB6252C7
:1007B4000ED44FEAC12343F0004343EA505323FAD3
:1007C40002F070474FF00000704750EA013002D148
:1007D4004FF0FF3070474FF00000704780B500AF16
:1007E400074B9B68064A43F020039360054B1B6844
:1007F400002B02D0034B1B68984700BF80BD00BF8D
:10080400006002408000002080B500AF074B9B6869
:10081400064A43F400639360054B5B68002B02D0E7
:10082400034B5B68984700BF80BD00BF0060024077
:100834008000002080B500AF074B9B68064A43F454
:1008440000139360054B9B68002B02D0034B9B68FD
:10085400984700BF80BD00BF0060024080000020B8
:1008640080B500AF074B9B68064A43F00063936072
:10087400054BDB68002B02D0034BDB68984700BFB5
:1008840080BD00BF006002408000002080B500AF42
:10089400074BDB68064A43F02003D360054B1B6912
:1008A400002B02D0034B1B69984700BF80BD00BFDB
:1008B400006002408000002080B500AF074BDB6879
:1008C400064A43F40063D360054B5B69002B02D0F6
:1008D400034B5B69984700BF80BD00BF00600240C6
:1008E4008000002080B500AF074BDB68064A43F464
:1008F4000013D360054B9B69002B02D0034B9B690B
:10090400984700BF80BD00BF006002408000002007
:1009140080B500AF074BDB68064A43F00063D36041
:10092400054BDB69002B02D0034BDB69984700BF02
:1009340080BD00BF006002408000002080B500AF91
:10094400074B9B68064A43F020039360054B1B68E2
:10095400002B02D0034B1B68984700BF80BD00BF2B
:1009640000640240A000002080B500AF074B9B68E4
:10097400064A43F400639360054B5B68002B02D086
:10098400034B5B68984700BF80BD00BF0064024012
:10099400A000002080B500AF074B9B68064A43F4D3
:1009A40000139360054B9B68002B02D0034B9B689C
:1009B400984700BF80BD00BF00640240A000002033
:1009C40080B500AF074B9B68064A43F00063936011
:1009D400054BDB68002B02D0034BDB68984700BF54
:1009E40080BD00BF00640240A000002080B500AFBD
:1009F400074BDB68064A43F02003D360054B1B69B1
:100A0400002B02D0034B1B69984700BF80BD00BF79
:100A140000640240A000002080B500AF074BDB68F3
:100A2400064A43F40063D360054B5B69002B02D094
:100A3400034B5B69984700BF80BD00BF0064024060
:100A4400A000002080B500AF074BDB68064A43F4E2
:100A54000013D360054B9B69002B02D0034B9B69A9
:100A6400984700BF80BD00BF00640240A000002082
:100A740080B500AF074BDB68064A43F00063D360E0
:100A8400054BDB69002B02D0034BDB69984700BFA1
:100A940080BD00BF00640240A000002080B483B089
:100AA40000AF0346FB71084B5B69FA79012101FA37
:100AB40002F21146044A0B43536100BF0C37BD4692
:100AC4005DF8047B704700BF003C014080B483B0F4
:100AD40000AF0346FB71074B5A69FB7922FA03F313
:100AE400DBB203F00103DBB218460C37BD465DF8F8
:100AF400047B7047003C014080B500AF054B1B6888
:100B0400002B02D0034B1B6898470020FFF7C6FF59
:100B140000BF80BDC000002080B500AF054B5B68FE
:100B2400002B02D0034B5B6898470120FFF7B6FF08
:100B340000BF80BDC000002080B500AF054B9B689E
:100B4400002B02D0034B9B6898470220FFF7A6FFB7
:100B540000BF80BDC000002080B500AF054BDB683E
:100B6400002B02D0034BDB6898470320FFF796FF66
:100B740000BF80BDC000002080B500AF054B1B69DD
:100B8400002B02D0034B1B6998470420FFF786FF14
:100B940000BF80BDC000002080B500AF0520FFF776
:100BA40095FF0346002B0AD0274B5B69002B02D02C
:100BB400254B5B6998470520FFF770FF42E006204C
:100BC400FFF784FF0346002B0AD01F4B9B69002BC1
:100BD40002D01D4B9B6998470620FFF75FFF31E069
:100BE4000720FFF773FF0346002B0AD0164BDB697F
:100BF400002B02D0144BDB6998470720FFF74EFF08
:100C040020E00820FFF762FF0346002B0AD00E4BBA
:100C14001B6A002B02D00C4B1B6A98470820FFF775
:100C24003DFF0FE00920FFF751FF0346002B09D0D9
:100C3400054B5B6A002B02D0034B5B6A9847092083
:100C4400FFF72CFF00BF80BDC000002080B500AFBF
:100C54000A20FFF73BFF0346002B0AD0304B9B6A68
:100C6400002B02D02E4B9B6A98470A20FFF716FFF1
:100C740053E00B20FFF72AFF0346002B0AD0284B32
:100C8400DB6A002B02D0264BDB6A98470B20FFF768
:100C940005FF42E00C20FFF719FF0346002B0AD0A2
:100CA4001F4B1B6B002B02D01D4B1B6B98470C205A
:100CB400FFF7F4FE31E00D20FFF708FF0346002B99
:100CC4000AD0174B5B6B002B02D0154B5B6B98471C
:100CD4000D20FFF7E3FE20E00E20FFF7F7FE0346AA
:100CE400002B0AD00E4B9B6B002B02D00C4B9B6B42
:100CF40098470E20FFF7D2FE0FE00F20FFF7E6FE25
:100D04000346002B09D0064BDB6B002B02D0044BAF
:100D1400DB6B98470F20FFF7C1FE00BF80BD00BF0B
:100D2400C000002080B483B000AF0346FB710B46C3
:100D3400BB7113467B71FB79022B2CD0022B3DDC5B
:100D4400002B02D0012B13D038E0204B1B68BA795A
:100D54005200032101FA02F2D24313407979BA799D
:100D6400520001FA02F21146184A0B43136026E0BE
:100D7400174B1B68BA795200032101FA02F2D243DD
:100D840013407979BA79520001FA02F21146104AF5
:100D94000B43136013E00F4B1B68BA795200032115
:100DA40001FA02F2D24313407979BA79520001FA76
:100DB40002F21146074A0B43136000E000BF00BF74
:100DC4000C37BD465DF8047B704700BF000002404D
:100DD400000402400008024080B483B000AF034620
:100DE400FB710B46BB7113467B71FB79022B5DD003
:100DF400022B00F38680002B02D0012B2BD080E045
:100E0400BB79072B12D8424B1B68BA7992000F2189
:100E140001FA02F2D24313407979BA79920001FAC5
:100E240002F211463A4A0B4313606BE0394B1B68DC
:100E3400BA79083A92000F2101FA02F2D243134020
:100E44007979BA79083A920001FA02F21146314AE4
:100E54000B43136056E0BB79072B12D82E4B1B684B
:100E6400BA7992000F2101FA02F2D2431340797940
:100E7400BA79920001FA02F21146274A0B43136031
:100E840040E0264B1B68BA79083A92000F2101FA18
:100E940002F2D24313407979BA79083A920001FAFE
:100EA40002F211461D4A0B4313602BE0BB79072B5A
:100EB40012D81B4B1B68BA7992000F2101FA02F277
:100EC400D24313407979BA79920001FA02F21146B9
:100ED400134A0B43136015E0124B1B68BA79083AA6
:100EE40092000F2101FA02F2D24313407979BA79C0
:100EF400083A920001FA02F211460A4A0B431360BF
:100F040000E000BF00BF0C37BD465DF8047B7047AE
:100F14002000024024000240200402402404024035
:100F2400200802402408024080B500AF00F0BCF85D
:100F340000BF80BD80B400AF144B1B68134A43F05C
:100F440001031360114B1B68104A23F480331360B0
:100F54000E4B1B680D4A23F08073136000BF0B4BCC
:100F64001B6803F00203002BF9D0094B1B68084AE5
:100F740023F001031360064B1B68054A23F00203A8
:100F8400136000BFBD465DF8047B70470038024023
:100F94000838024080B400AF084B1B68074A23F0AE
:100FA400F0031360054B1B68044A43F0800313608D
:100FB40000BFBD465DF8047B704700BF083802409F
:100FC40080B400AF074B1B68064A23F4E053136058
:100FD400044B044A1B68136000BFBD465DF8047BE4
:100FE400704700BF0838024080B400AF074B1B684D
:100FF400064A23F460431360044B044A1B681360DD
:1010040000BFBD465DF8047B704700BF083802404E
:1010140080B500AFFFF78EFFFFF7BCFFFFF7D0FFEF
:10102400FFF7E2FF00BF80BD80B483B000AF03468A
:101034000A46FB711346BB71FB79022B1CD0022BB1
:1010440025DC002B02D0012B0BD020E0134B1B68B6
:10105400BA79012101FA02F21146104A0B431360D6
:1010640016E00F4B1B68BA79012101FA02F211460E
:101074000B4A0B4313600BE00A4B1B68BA7901213E
:1010840001FA02F21146074A0B43136000E000BF65
:1010940000BF0C37BD465DF8047B70473038024012
:1010A400403802404438024080B483B000AF00238B
:1010B4007B6005233B600D4BDB687B607A684FF6F1
:1010C400FF0313407B603B681A027B68134343F0C1
:1010D400BF6343F400337B60044A7B68D36000BF82
:1010E4000C37BD465DF8047B704700BF00ED00E09F
:1010F40080B582B000AF78607B681B78022B4CD03F
:10110400022B7BDC002B02D0012B19D076E00021CE
:101114000020FFF789FF022205210020FFF702FECD
:10112400052205210020FFF757FE02220721002097
:10113400FFF7F8FD052207210020FFF74DFE5DE0D3
:1011440001210020FFF770FF02220A210120FFF78E
:10115400E9FD05220A210120FFF73EFE02220C21AF
:101164000120FFF7DFFD05220C210120FFF734FEEB
:1011740002220E210120FFF7D5FD05220E210120B8
:10118400FFF72AFE02220F210120FFF7CBFD0522E3
:101194000F210120FFF720FE30E000210020FFF79F
:1011A40043FF01210020FFF73FFF02220A21002014
:1011B400FFF7B8FD06220A210020FFF70DFE0222E8
:1011C40003210120FFF7AEFD062203210120FFF7D2
:1011D40003FE022204210120FFF7A4FD06220421BC
:1011E4000120FFF7F9FD022205210120FFF79AFDF6
:1011F400062205210120FFF7EFFD00BF00BF0837DD
:10120400BD4680BD80B400AF034B01221A7000BFFD
:10121400BD465DF8047B70470001002080B582B0B4
:1012240000AF78607B681B78022B10D0022B13DC94
:10123400002B02D0012B05D00EE00C210220FFF779
:10124400F3FE09E00E210120FFF7EEFE04E00F217A
:101254000120FFF7E9FE00BF00BF0837BD4680BD8F
:1012640080B582B000AF78607868FFF741FF786896
:10127400FFF7D4FF7B685A787B689B781343DAB214
:101284007B68DB781343DAB27B681B791343DAB2E9
:101294007B685B791343DAB27B681B7819460C4B85
:1012A40053F821301A607B681B781A46084B53F8B0
:1012B40022301A687B681B781946054B53F8213095
:1012C40042F040021A6000BF0837BD4680BD00BF2F
:1012D4005800002080B586B000AFF8600B467A60F5
:1012E400FB720023FB750023BB751B49786800F073
:1012F4009DF8FB681B781A46184B53F82230FA7A8B
:10130400DA6000BFFB681B781A46144B53F822308E
:101314009B68DB0903F00103012B03D1104B1B78FD
:10132400012BEFD10E4B1B78012B05D10223FB754A
:101334000B4B00221A7009E000F046F8FB681B789A
:101344001A46064B53F82230DB68BB75FB7D184602
:101354001837BD4680BD00BF0912000858000020A0
:101364000001002080B400AF00BFBD465DF8047BDF
:10137400704780B400AF00BFBD465DF8047B704782
:1013840080B400AF00BFBD465DF8047B7047000029
:1013940080B400AF0B4B1B680A4A23F004031360AC
:1013A400084B1B68074A23F002031360054B1B68B4
:1013B400044A43F00103136000BFBD465DF8047B9B
:1013C400704700BF10E000E080B400AF0B4B1B6817
:1013D4000A4A23F001031360084B00225A60074BAA
:1013E40000229A60054B1B68044A23F00203136031
:1013F40000BFBD465DF8047B704700BF10E000E00D
:1014040080B500AF074B1B78DBB2002B01D1FFF78F
:10141400DBFF054B1B68002B02D0034B1B6898476E
:1014240000BF80BD080100200401002080B584B005
:1014340000AF786039600023FB603B68002B2ED03E
:101444007868FFF731F94FF00002174BFEF7C0FE42
:1014540002460B4610461946FFF7A0F90346FB6007
:10146400FB68B3F1807F02D36FF07F43FB600F4AC8
:10147400FB6853600D4B00229A600D4A3B68136071
:101484000C4B00221A70094B1B68084A43F00203F4
:101494001360064B1B68054A43F00103136000BF49
:1014A4001037BD4680BD00BF00408F4010E000E013
:1014B400040100200801002080B582B000AF094873
:1014C400FFF7CEFE4FF47A724D210648FFF702FF74
:1014D400054B7B6002E07B68013B7B607B68002BF3
:1014E400F9D1EFE70000002000350C0080B500AF13
:1014F400FFF78EFDFFF74CFFFFF716FD00BF80BD21
:101504000D488546FFF7F2FF0C480D490D4A0023AC
:1015140002E0D458C4500433C4188C42F9D30A4AA4
:101524000A4C002301E013600432A242FBD300F012
:1015340011F8FFF7C1FFFEE70000012000000020C2
:1015440064000020C0150008640000200C01002085
:10155400FEE7000070B50D4D0D4C641BA410002671
:10156400A64209D10B4D0C4C00F018F8641BA410D2
:101574000026A64205D170BD55F8043B98470136B4
:10158400EEE755F8043B98470136F2E7B815000832
:10159400B8150008B8150008BC150008F8B500BF58
:1015A400F8BC08BC9E467047F8B500BFF8BC08BC40
:0415B4009E46704798
:0415B800B90100086D
:0415BC00950100088D
:1015C0000004020000100000000000000000000005
:1015D000000000000000000000000000000000000B
:1015E00000000000000000000000000000000000FB
:1015F00000000000000000000000000000000000EB
:1016000000000000000000000000000000000000DA
:1016100000000000000000000030014000380040E1
:04162000003C00404A
:0400000508001505D5
:00000001FF
